:020000040800F2
:1000000080070020ED010008F3310008BB2900083B
:10001000F1310008DD080008A540000800000000DC
:10002000000000000000000000000000AD350008E6
:10003000DF08000800000000F5310008AF350008B7
:10004000070200080702000807020008070200086C
:10005000070200080702000807020008070200085C
:10006000070200080702000807020008070200084C
:10007000070200080702000807020008070200083C
:10008000070200080000000007020008070200083D
:10009000070200080702000807020008070200081C
:1000A000070200084D360008070200080702000892
:1000B00007020008070200080702000807020008FC
:1000C00007020008070200080702000807020008EC
:1000D000070200089940000807020008070200080C
:1000E00007020008070200080702000807020008CC
:1000F00007020008070200080702000800000000CD
:1001000000000000070200080000000007020008CD
:1001100007020008000000000702000807020008AC
:10012000070200080702000807020008070200088B
:10013000070200080000000000000000070200089D
:10014000070200080702000800000000000000008D
:10015000000000000000000000000000000000009F
:10016000000000000000000000000000070200087E
:10017000070200080000000000000000000000006E
:10018000000000000702000800000000000000005E
:10019000000000000000000000000000000000005F
:1001A000000000000000000007020008070200082D
:1001B000070200080702000807020008000000000C
:1001C000000000000702000800000000000000001E
:1001D0000702000807020008DFF80CD000F020FB3F
:1001E00000480047F14A0008800700200648804781
:1001F00006480047FEE7FEE7FEE7FEE7FEE7FEE70C
:10020000FEE7FEE7FEE7FEE73D360008D9010008FD
:100210002DE9F05F0546002092469B46884606463B
:10022000814640241BE0284641464746224600F0CE
:100230000CF953465A46C01A914110D3114618463C
:10024000224600F0F3F82D1A67EB01084F462246CC
:100250000120002100F0EAF817EB00094E41201EB2
:10026000A4F10104DFDC484631462A464346BDE896
:10027000F09FD2B201E000F8012B491EFBD270477B
:100280000022F6E710B513460A4604461946FFF762
:10029000F0FF204610BD421C10F8011B0029FBD1C5
:1002A000801A70472DE9FE4F81EA030404F00044F0
:1002B00021F0004100944FF0000B23F0004350EA7E
:1002C00001045ED052EA03045BD0C3F30A54C1F3C5
:1002D0000A552C44A4F2F3340194A0FB0254C1F358
:1002E000130141F48011C3F3130343F4801301FBA2
:1002F000024400FB034E840A970A44EA815447EA09
:100300008357A4FB076802958D0A05FB07854FEA12
:10031000932C04FB0C542705029D4FEA065847EA2C
:100320001637B5EB08056EEB070C870E920E47EA01
:10033000811742EA8312A7FB0201B6EB0B0164EBC3
:1003400000042B0D43EA0C335E1844EB1C50DA46D4
:100350005146E7FB0201C5F313044FEA0B3343EAAE
:1003600014534FEA0432019C43EA0603A4F10C043F
:100370000294009CCDE900B400F0BDF803B0BDE8E4
:10038000F08F00200146F9E70EB540F233410291AB
:100390000021CDE900110A460B4600F0ACF803B08D
:1003A00000BD00F0004230F000400AD0C10D01F560
:1003B0006071C0F3160042EA0151C20840071143C0
:1003C000704700200146704701F0004330B421F02F
:1003D000004150EA010206D00A0DA2F56072C1F395
:1003E0001301002A02DC30BC00207047440F44EAAD
:1003F000C104C100E01830BC00EBC25000F035B8B9
:1004000030B50B46014600202022012409E021FAE4
:1004100002F59D4205D303FA02F5491B04FA02F5E1
:100420002844151EA2F10102F1DC30BD202A04DBB4
:10043000203A00FA02F1002070479140C2F12003F7
:1004400020FA03F3194390407047202A04DB203A36
:1004500021FA02F00021704721FA02F3D040C2F1E4
:10046000200291400843194670470029A8BF7047F1
:10047000401C490008BF20F00100704710B4B0FADA
:1004800080FC00FA0CF050EA010404BF10BC704775
:1004900049B1CCF1200421FA04F411FA0CF118BF8F
:1004A000012121430843A3EB0C01CB1D4FEA00615E
:1004B0004FEA102042BF002010BC704700EBC35031
:1004C00010440029A4BF10BC7047401C490008BF5D
:1004D00020F0010010BC704710B5141E73F1000429
:1004E00008DA401C41F1000192185B411A4301D126
:1004F00020F0010010BD2DE9F04D92469B4611B150
:10050000B1FA81F202E0B0FA80F220329046FFF7B1
:100510008DFF04460F4640EA0A0041EA0B015346AC
:100520005A46084313D0114653EA010019D0C8F1C6
:1005300040025046FFF789FF05460E465046594691
:100540004246FFF773FF084305D0012004E0204630
:100550003946BDE8F08D0020054346EAE0762C439D
:1005600037430A986305E40AA0EB08000022FD0A5D
:1005700044EA47540A3002D500200146E9E7010564
:1005800010196941DDE9084500196941BDE8F04DE0
:10059000A2E72DE9FE4F804681EA0300C00F0C461A
:1005A000009021F0004123F00045B8EB0200A94182
:1005B00005D24046214690461C460B46024623F093
:1005C0000040104347D0270DC7F30A00C3F30A5178
:1005D0000290401A019040286BDAC3F3130040F4F4
:1005E000801B0098924620B10023D2EB030A63EBF4
:1005F0000B0B01985946C0F140025046FFF716FF19
:1006000006460D4650465946019A00F01BF910EB7C
:1006100008006141002487EA115284EAE7731A4313
:1006200040D0009A62B3019A012A4FEA075215DCC2
:10063000001B61EB02014FF0004202EA0752CDE9D4
:100640000042001C41F5801132462B46FFF753FF54
:1006500003B0BDE8F08F40462146F9E7001B61EB8F
:100660000201001C41F5801300185B412018A2F51F
:10067000001747EB030140EAD570B6196D4111E050
:100680006D084FEA360645EAC0754FEA0752001B6F
:1006900061EB0201001C41F5801149084FEA30006E
:1006A0000019514132462B4603B0BDE8F04FFFF729
:1006B00013BF0098012240000023D0EB020263EB3D
:1006C000E073009821464FEAE074B8EB000061EB5C
:1006D0000401E9E783F000435BE781F0004158E75C
:1006E0002DE9F04D81EA030404F0004B21F00045B0
:1006F00014464FF0000A23F0004150EA050220D0D2
:1007000054EA01021DD0C5F30A570246C5F313038C
:10071000C1F31300C1F30A5640F4801543F480136B
:10072000A7EB0608101BD64608F2FD3873EB050050
:1007300002D308F1010801E092185B41B8F1000F03
:1007400003DA00200146BDE8F08D00204FF480114F
:10075000064684460EE0171B73EB050705D3121BF4
:1007600063EB050306434CEA010C49084FEA3000ED
:1007700092185B4150EA0107EDD152EA030012D012
:1007800082EA040083EA0501084305D0101BAB414F
:1007900006D20122002306E000224FF0004302E0CF
:1007A0006FF0010253101AEB06004CEB085110EBEE
:1007B0000A0041EB0B01BDE8F04DFFF78DBEC1F320
:1007C0000A52C1F3130140F2FF3341F480119A42FF
:1007D00002DA00200146704740F233439A42A2F207
:1007E000334202DC5242FFF730BEFFF71FBE00006B
:1007F00030B5041E71F1000404DB4FF000444042A8
:1008000064EB0101141E73F1000405DB1C464FF07C
:100810000043524263EB0403994208BF904230BD4B
:10082000064C074D06E0E06840F0010394E807003D
:1008300098471034AC42F6D3FFF7D2FC546100085D
:1008400074610008202A06DBCB17203A41FA02F037
:1008500043EAE07306E041FA02F3D040C2F120021D
:10086000914008431946704770B504460068816896
:1008700011F0010F2DD18168174A11421AD18168F8
:10088000D5432940491C816000F06AFD06461BE003
:10089000816811F0010F03D181682940491C8160F2
:1008A00000F05EFD801B02280ED920680068C0435E
:1008B000C00709D0E06D40F01000E065206E40F008
:1008C00001002066012070BD20680168C943C90786
:1008D000DED1002070BD00003F000080FEE77047C1
:1008E000002240F6B83306E00021491C89B2994243
:1008F000FBD3521C92B28242F6D3704772B6FEE727
:100900002DE9F84F00270446009790F85800DFF8CB
:10091000E0930D46B846012811D0012684F85860AE
:10092000206802F00FFB60B1E06D40F02000E06550
:100930005FF0010784F858803846BDE8F88F022040
:10094000FBE7D5E900210C23206803EA9113184442
:10095000036B01F01F014FF01F0C0CFA01FCC2F3F6
:10096000846223EA0C038A4013430363206802F085
:10097000E9FA8246206802F0E1FA5AEA00003CD126
:10098000AA6829682068B2F1004F37D002F0DEFA79
:100990002068416921F00041416120686969C268AD
:1009A000C2F3C102520091402A69042A31D000EBFF
:1009B00082002B68026EDFF83CC303F0F84302EAC2
:1009C0000C020B431A4342F00041016620682A6979
:1009D000A96900EB8200026E22F080720A4302666F
:1009E000297F22682869012910D0002102EB8000AC
:1009F000026E22F000720A4302667DE0002202F0DD
:100A0000A5FA2068416941F00041C5E74FF0007147
:100A1000ECE7002102F08CFA400320684FF000015F
:100A200072D002F085FA90FAA0F0B0FA80F128684E
:100A300042036ED090FAA0F0B0FA80F0814204D167
:100A400000221146206802F090FA0121206802F08D
:100A50006FFA400320684FF001015DD002F068FAA0
:100A600090FAA0F0B0FA80F12868420359D090FAC9
:100A7000A0F0B0FA80F0814204D100220121206868
:100A800002F073FA0221206802F052FA4003206853
:100A90004FF0020148D002F04BFA90FAA0F0B0FA01
:100AA00080F12868420344D090FAA0F0B0FA80F0B8
:100AB000814204D100220221206802F056FA03216B
:100AC000206802F035FA400320684FF0030133D06C
:100AD00002F02EFA90FAA0F0B0FA80F128684203F2
:100AE0002FD090FAA0F0B0FA80F0814204D1002219
:100AF0000321206802F039FA2068816811F0010FA3
:100B000022D0ACE000E004E002F012FAC0F384610D
:100B10008DE7C0F3846091E702F00AFAC0F38461C4
:100B2000A2E7C0F38460A6E702F002FAC0F3846192
:100B3000B7E7C0F38460BBE702F0FAF9C0F3846161
:100B4000CCE7C0F38460D0E72A7B296850F8B03F37
:100B5000C1F3120C23EA0C0302F0180C664A22FAC5
:100B60000CF20A4013430360E968494577D12868CD
:100B700041031CD090FAA0F1B1FA81F1491C01F0B7
:100B80001F0109294FEA403132D8002912D000BF95
:100B900090FAA0F1B1FA81F101F1010101F01F0118
:100BA00006FA01F609D100BFC0F3846109E0C0F381
:100BB0008461E3E7C0F38461EEE790FAA0F1B1FA53
:100BC00081F101F1010101F01F0146EA816102D1C9
:100BD000C0F3846003E090FAA0F0B0FA80F000F176
:100BE000010000F01F0000EB400041EA005132E03C
:100BF00000290ED090FAA0F1B1FA81F101F10101C2
:100C000001F01F0106FA01F606D100BFC0F38461AE
:100C100006E0C0F38461F1E790FAA0F1B1FA81F146
:100C200001F1010101F01F0146EA816102D1C0F327
:100C3000846003E090FAA0F0B0FA80F000F10100C7
:100C400000F01F002D4A00EB400002EB005041EA8B
:100C5000000141F00071AA68206802F077F9284885
:100C60002A6802423FF466AE26488168264B01F0AE
:100C7000E0719A4202D0254B9A421CD10B021AD441
:100C80002268B2F1A04F7FF455AE826841F40001B2
:100C900022F0E0720A4382601D481E490068B0FBE2
:100CA000F1F0401C00EB4000800000E0401E00908E
:100CB0000028FBD13EE6184D184BAA4207D1CD01C2
:100CC00005D422689A42F5D041F0807109E0144DB4
:100CD000AA42EFD14A02EDD422689A42EAD041F406
:100CE0008001826822F0E0720A43826022E60000FE
:100CF00000007F4000F0FF03FFFF0700000020FE20
:100D00000000088000030050000021C31000C090C4
:100D100034000020400D0300000052C700010050C5
:100D2000000084CB0068006C70470000F8B54FF0FD
:100D3000000504002E46009502D0E06D10B107E0DA
:100D40000120F8BD204600F0EFF8266684F85860D0
:100D500020688168C1F3407119B181686A4A114005
:100D6000816020688168C1F3007189B98168674A30
:100D7000114041F080518160654866490068B0FBD0
:100D8000F1F04000801C00E0401E00900028FBD1E4
:100D900020688168C1F3007141B9E16D41F0100133
:100DA000E165216E41F001012166012502F0CAF8DA
:100DB000E16DC90600D430B1E06D40F01000E0658F
:100DC00001252846F8BDE06D20F4807040F0020057
:100DD000E0652068806810F0010F11D14FF0A0404D
:100DE00080684D4900F00100896801F00101084365
:100DF00006D14A486168826822F47C120A43826004
:100E0000E168E06B627F0843A16841EA4231084330
:100E100094F8241040EA0140012904D1218D404A70
:100E200002EB41410843E16A29B101F47871226B78
:100E3000014342EA01002168CA683A4B1A40024362
:100E4000CA6020680169626B21F040611143016151
:100E5000206802F077F80646206802F06FF8304309
:100E60002ED1207F94F83810800340EA4102206898
:100E7000C16844F2020399431143C160206900280C
:100E8000206801690AD041F480310161206850F87E
:100E9000C01F22696FF30D01114307E021F4803177
:100EA0000161206850F8C01F6FF30D01016094F8D4
:100EB000400001280CD02068016921F00101016186
:100EC000606901282068016B21F00F0111D013E047
:100ED000D4E911010843D4E91312114308432168EE
:100EE0000A6940F2FC739A43104340F00100086124
:100EF000E6E7226A521E11430163E06D20F0020012
:100F000040F00100E0655CE7C0FFFF5FC0FFFF7FCE
:100F100034000020400D0300000100500003005089
:100F20000000FEFF0740F0FF10B586B00446142114
:100F30006846FFF7A5F91149206888421BD110487F
:100F4000C16C41F40051C164C16C01F400510591C0
:100F5000C16C41F00201C164C06C694600F002003E
:100F600005904FF400400090032001900020029073
:100F7000044800F007F906B010BD00000001005061
:100F800000100240000400482DE9F04104463848B2
:100F9000806800F01F05206801F0D4FF18B102211D
:100FA0000846BDE8F08194F8580001280CD00120D3
:100FB00084F858002046FFF757FC01004FF000036B
:100FC00004D084F85830EBE70220EAE7E06D40F601
:100FD0000162904340F48070E065264A20684FF03B
:100FE000A046904201D1374600E00746874200D034
:100FF0001DB9E76D27F48017E765E76DFF0404D599
:10100000276E27F00607276600E023661C27076087
:1010100084F858302068904201D1334600E00346FE
:10102000834215D0A5B1052D12D0092D10D0E36D46
:1010300043F48013E365904200D13046C0688001DC
:10104000AED5E06D20F4005040F48050E065A7E795
:10105000C268920105D5E26D22F4005242F480523A
:10106000E2658268044B1A40121D826098E7000016
:101070000003005000010050C0FFFF7F10B590F842
:10108000253000210122022B03D00421C16301215C
:1010900022E003681C6824F00E041C60836C1C684A
:1010A00024F480741C6003681C6824F001041C6034
:1010B00090F84430046C03F01F0302FA03F36360FA
:1010C000D0E913345C60436D33B11C6824F4807440
:1010D0001C60D0E916345C6080F82520002280F87E
:1010E0002420084610BD70B590F825200024012169
:1010F0002346022A07D00422C26380F8251080F814
:101100002430012429E00268156825F00E051560D9
:101110000268156825F001051560826C156825F4D4
:101120008075156090F84420056C02F01F0201FAEA
:1011300002F26A60D0E913255560426D32B115683C
:1011400025F480751560D0E91625556080F82510C6
:1011500080F82430816B01B18847204670BD0000C3
:1011600070B5044600F0FCF80546601C02D0044847
:101170004068044400F0F4F8401BA042FAD370BD6C
:10118000280000202DE9FC4FDFF8A0A10023012555
:101190000AF1040B03244FF00F0C0BF1040EBDE019
:1011A00005FA03F632406FD04F68012F05D0022FA9
:1011B00003D0112F01D0122F17D1D0F808905F0063
:1011C00004FA07F829EA08090097D1F80C8008FA10
:1011D00007F848EA0908C0F808804768B7430E795D
:1011E000C6F300169E403E434660C6684FEA430879
:1011F00004FA08F7BE4301978F6807FA08F73743E8
:10120000C7604E68022E01D0122E13D1DE0800EB0B
:1012100086060096366A5F07FF0E0CFA07F926EA83
:101220000906D1F8109009FA07F949EA0609009E63
:10123000C6F820900668019FBE430F7907F00307A8
:1012400007FA08F7374307604E68F60065D5384E51
:10125000376E47F001073766366E23F0030706F056
:1012600001060096334E3E44B146B6689F074FEAEA
:1012700017780CFA08F7BE43B0F1904F05D02E4F07
:10128000B84204D1012717E047E0002714E02B4FB4
:10129000B84201D102270FE0294FB84201D10327FC
:1012A0000AE0284FB84201D1042705E0264FB84292
:1012B00001D1052700E0062707FA08F73743C9F8E8
:1012C0000870DAF800605746D1F8048096435FEA68
:1012D000C83800D516433E60DBF800605F46D1F8A1
:1012E000048096435FEA883800D516433E60DEF8F6
:1012F00000607746D1F8048096435FEAC82800D59D
:1013000016433E60094F0C373E68D1F8048096437F
:101310005FEA882800D516433E605B1C0A6832FAF3
:1013200003F67FF43DAFBDE8FC8F000000040140F0
:10133000001002400000014000040048000800487E
:10134000000C0048001000480014004800690840E4
:1013500000D0012070470AB18161704781627047F7
:10136000014880687047000028000020024881681A
:1013700042681144816070472800002010B50024A5
:10138000032000F073F8002000F008F808B10124F1
:1013900001E000F025F8204610BD000070B50E4EAB
:1013A00005460024706898B14FF47A71B1FBF0F0F3
:1013B0000A490968B1FBF0F000F062FD40B9102D58
:1013C00006D200222946501E00F030F8356000E0B9
:1013D0000124204670BD00002800002034000020B9
:1013E0000A4882B0016E41F001010166016E01F010
:1013F00001010091816D41F080518165806D00F0A7
:101400008050009002B000F0A1B80000001002402F
:10141000002809DB00F01F020121914040098000F3
:1014200000F1E020C0F8001170470000F0B40E4B4E
:101430001B680C46C3F30223C3F10705042D00D932
:101440000425191D072901D2002300E0DB1E012617
:1014500006FA05F1491E214099409E40761E16402D
:101460003143F0BC02F034BE0CED00E0064900F060
:10147000070208684FF6FF03184040EA0220034ABB
:1014800010430860704700000CED00E00000FA0512
:101490002B492C4B0A6832214A432B4940B1B0F505
:1014A000007F086829D020F4C06040F480602CE000
:1014B0000868C0F34120022804D051F8800F20F4BE
:1014C000807022E0D1F8800020F48070C1F88000A4
:1014D000086820F4C06040F400700860B2FBF3F0CC
:1014E000401C00E0401E4A69520501D50028F9D190
:1014F000486940050AD503207047C0F341200228FF
:1015000006D051F8800F40F48070086000207047CA
:10151000D1F8800040F48070C1F88000086820F4A1
:10152000C06040F400700860B2FBF3F0401C00E0C3
:10153000401E4A695205DBD50028F9D1D8E70000E2
:101540003400002040420F000070004002488168D3
:1015500041F4804181607047007000402DE9F843FC
:101560000446006800269D4D00035ED5A86D002747
:10157000C00008D4A86D40F08050A865A86D012770
:1015800000F080500090DFF85892D9F8001041F434
:101590008071C9F80010FFF7E3FE804606E000BF47
:1015A000FFF7DEFEA0EB080002282BD8D9F80000D8
:1015B000C005F5D5D5F8900010F4407014D0216C1A
:1015C000814211D0D5F89000D5F8901020F44070E9
:1015D00041F48031C5F89010D5F8901021F4803195
:1015E000C5F89010C5F89000C00711D0FFF7B8FEFD
:1015F000804641F2883907E0FFF7B2FEA0EB080110
:10160000494501D903260BE0D5F890008007F3D5B2
:10161000D5F89000216C20F440700843C5F8900084
:101620001FB1A86D20F08050A8652078C00707D0B2
:10163000D5F88800616820F003000843C5F88800E9
:101640002078800707D5D5F88800A16820F00C0025
:101650000843C5F888002078400707D5D5F88800EA
:10166000E16820F030000843C5F8880020780007C2
:1016700007D5D5F88800216920F0C0000843C5F8D7
:1016800088002078800607D5D5F88800616920F4A5
:1016900040600843C5F888002078400607D5D5F893
:1016A0008800A16920F440500843C5F888002078DC
:1016B000000607D5D5F88800E16920F440400843CA
:1016C000C5F888002088C00507D5D5F88800216AAC
:1016D00020F440300843C5F888002088800507D5ED
:1016E000D5F88800616A20F440200843C5F88800D6
:1016F000208840050FD5D5F88800A16A20F4401055
:101700000843C5F88800A06AB0F5801F03D1E868D7
:1017100040F48010E860208800050FD5D5F88800D7
:10172000E16A20F440000843C5F88800E06AB0F59B
:10173000800F03D1E86840F48010E8602088C0047E
:101740000FD5D5F88800216B20F040700843C5F80C
:101750008800206BB0F1807F03D1E86840F48010EE
:10176000E86020884FF0006180040ED5D5F888002D
:10177000626B20F040601043C5F88800606B8842BF
:1017800003D1E86840F48010E860208840040ED55A
:10179000D5F88800A26B20F040601043C5F888009F
:1017A000A06B884203D1E86840F48010E86020888C
:1017B00000040FD5D5F88800E16B20F040500843B5
:1017C000C5F88800E06BB0F1805F03D1E86840F4B1
:1017D0008030E8603046BDE8F88300000010024029
:1017E000007000402DE9F0470E4605004FF000075D
:1017F00025D0DFF8AC81D8F8000000F00F00B0422F
:101800000CD2D8F8001021F00F013143C8F80010B5
:10181000D8F8000000F00F00B04210D12968614CE8
:10182000C80741F2883A5AD06868DFF87C910328EB
:1018300008D0022820682DD0400500282CDB01208C
:10184000BDE8F08720688001F9D5E06800F0030268
:10185000E068C0F30310401C032A19D0534A00BFAC
:10186000B2FBF0F0E268C2F306225043E268C2F332
:101870004162521C5200B0FBF2F0484517D9A068F3
:1018800010F0F00F0CD0880711D5A86840B10EE019
:10189000474AE5E78003D0E700F0B6F8484506D9A7
:1018A000A06820F0F00040F08000A0608027A068D1
:1018B000696820F003000843A060FFF751FD8146EE
:1018C00006E000BFFFF74CFDA0EB090151453AD8F7
:1018D000A068696800F00C00B0EB810FF2D12868B5
:1018E000810714D5400703D5A06840F4E060A060EC
:1018F0002878000705D5A06820F4605040F4E06027
:10190000A060A068A96820F0F000084304E0802FE0
:1019100003D1A06820F0F000A060D8F80010404685
:1019200001F00F01B14216D9016821F00F013143D6
:101930000160FFF715FD074607E000BFFFF710FD48
:10194000C11B514501D903207AE7D8F8000000F007
:101950000F00B042F2D12878400705D5A068E968A9
:1019600020F4E0600843A0602878000706D5A0684E
:10197000296920F4605040EAC100A06000F044F8FA
:10198000A1680C4AC1F30311515C01F01F01C8406A
:101990000949086009480068BDE8F047FFF7FEBC48
:1019A000002002400010024000B4C4040024F400EF
:1019B00000127A003C61000834000020280000205A
:1019C0000548064900688968054AC1F30221515C4F
:1019D00001F01F01C8407047340000200010024091
:1019E0004C6100080548064900688968054AC1F34A
:1019F000C221515C01F01F01C84070473400002033
:101A0000001002404C610008184910B58868C0F306
:101A100081021748012A0BD08A684310C2F3810261
:101A2000022A06D08A68C2F38102032A03D000206A
:101A300010BD184610BDCA6802F00304CA68C2F39C
:101A40000312521C032C02D0B0FBF2F001E0B3FBF6
:101A5000F2F0CA68C968C2F306225043C1F341617B
:101A6000491C4900B0FBF1F010BD0000001002401D
:101A70000024F4002DE9F84304007AD02078FA4DD0
:101A8000C00747D0A868E96800F00C0001F0030126
:101A90000C2802D0082817D001E0032914D0606870
:101AA000B0F5803F17D0B0F5A02F286817D020F4EC
:101AB00080302860286820F4802028606068E0B1C9
:101AC000FFF74EFC064614E02868800322D56068C4
:101AD0000028D2D01EE0286840F48030EDE740F4C2
:101AE00080202860F7E700BFFFF73AFC801B6428DE
:101AF00070D828688003F7D50CE0FFF731FC064664
:101B000005E000BFFFF72CFC801B6428F0D8286894
:101B10008003F7D4207880074CD5A868E96800F0E6
:101B20000C0001F003010C2802D004280DD001E0C4
:101B300002290AD0E068002828682BD040F4807081
:101B40002860FFF70DFC064619E02868400502D51D
:101B5000E068002891D06868217C20F0FE4040EACF
:101B600001606860C1480068FFF718FC002800D1D8
:101B700020E076E1FFF7F4FB801B0228B8D8286844
:101B80004005F7D56868217C20F0FE4040EA0160FE
:101B900068600FE020F480702860FFF7E1FB0646E4
:101BA00005E000BFFFF7DCFB801B0228A0D82868F7
:101BB0004005F7D42078000729D560690028D5F8BA
:101BC000940013D040F00100C5F89400FFF7C8FB63
:101BD000064606E090E000BFFFF7C2FB801B02282C
:101BE00086D8D5F894008007F6D510E020F00100E3
:101BF000C5F89400FFF7B4FB064604E0FFF7B0FB1E
:101C0000801B022878D8D5F894008007F6D4207875
:101C1000400761D5A86D0026C00008D4A86D40F02B
:101C20008050A865A86D012600F080500090904873
:101C30000168C90511D40168804641F480710160D2
:101C4000FFF78EFB074604E0FFF78AFBC01B022864
:101C500052D8D8F80000C005F6D5A068012815D0E4
:101C60000528D5F8900016D020F00100C5F89000A6
:101C7000D5F8900020F00400C5F89000A06841F26B
:101C80008838B8B1FFF76CFB07460EE0D5F8900036
:101C900040F00100F0E740F00400C5F89000F5E7DF
:101CA000FFF75EFBC11B414526D8D5F890008007A1
:101CB000F6D50CE0FFF754FB074604E0FFF750FBB6
:101CC000C11B414518D8D5F890008007F6D41EB145
:101CD000A86D20F08050A8652078800629D5A069DD
:101CE0000028D5F8980013D040F00100C5F89800FE
:101CF000FFF736FB064606E077E000BFFFF730FB54
:101D0000801B022877D8D5F898008007F6D510E018
:101D100020F00100C5F89800FFF722FB064604E01A
:101D2000FFF71EFB801B022865D8D5F898008007B6
:101D3000F6D4E069F0B3A968C1F38101032961D049
:101D40000228286820F0807028600BD0E86820F016
:101D50000300E860E86847490840E860FFF700FBD7
:101D600004464BE0FFF7FCFA064604E0FFF7F8FAFA
:101D7000801B02283FD828688001F7D4F4E90801C5
:101D80006FF00F0202EB01110843218A5204490847
:101D900002EB4151A26841EA02210843217D4FF044
:101DA0007E42490802EB41610843217B40EAC16061
:101DB000E96800E062E0304A11400843E8602868C2
:101DC00040F080702860E86840F08070E860FFF7BD
:101DD000C7FA044605E000BFFFF7C2FA001B02285D
:101DE00009D828688001F7D548E004E0FFF7B8FA81
:101DF000001B022802D90320BDE8F883286880016F
:101E0000F4D43BE00128F7D0E868226A00F003012F
:101E1000914226D1616A00F0F00209011039914225
:101E20001FD1A26A00F4FE41B1EB022F19D194F840
:101E30002C2000F07841B1EBC26F12D1218E00F45A
:101E4000C00249084905A1F50011914209D194F851
:101E5000341000F0C06049084906A1F100718142C8
:101E60000CD00120C8E7000000100240280000202C
:101E700000700040FFFFEEFE0C809F010020BBE7DA
:101E800010B5401EB0F1807F01D3012010BD4FF08E
:101E9000E02460610F21601702F01AF90020A061B0
:101EA00007202061002010BD7047704770477047C1
:101EB00070477047F0B590F83C20012A3AD00125D0
:101EC00080F83C50022280F83D2003685A689C68E4
:101ED000194E1A4FB34201D0BB4204D122F4700C08
:101EE0004A6842EA0C02DFF858C002EA0C02D1F854
:101EF00000C04CEA020CC3F804C00268B2420DD024
:101F0000B2F1804F0AD00F4B9A4207D00E4B9A4243
:101F100004D0BA4202D00D4B9A4204D1896824F011
:101F200080031943916080F83D50002180F83C10F7
:101F30000846F0BD0220F0BD002C014000340140F5
:101F40008FFFFFFD000400400008004000400140FA
:101F5000704710B5040003D094F83D0010B107E0BD
:101F6000012010BD002084F83C00204600F022F83B
:101F7000022084F83D00211D206801F06DFB012046
:101F800084F8480084F83E0084F83F0084F840005C
:101F900084F8410084F8420084F8430084F8440047
:101FA00084F8450084F8460084F8470084F83D0032
:101FB000002010BD08B500680B49884212D10B48BB
:101FC000016E41F400610166006E002200F40060C1
:101FD000009011461920FFF729FABDE808401920A2
:101FE000FFF716BA08BD0000002C014000100240A7
:101FF00090F83D10012901D001207047022180F89E
:102000003D100168CA6842F00102CA6000681049C8
:1020100088420ED0B0F1804F0BD00E49884208D0D4
:102020000D49884205D00D49884202D00C498842AA
:1020300007D181680B4A1140062906D0B1F5803FCF
:1020400003D0016841F001010160002070470000E9
:10205000002C014000040040000800400034014012
:10206000004001400700010070B5044690F83C00B4
:10207000012814D0012584F83C50022084F83D004A
:1020800022689068344B184020F47F4090600868C4
:10209000702827D010DC10F00F0F03D04AE04FF06B
:1020A000020070BD4FEA2012072A43D2DFE802F097
:1020B0005050505048313900284BC21A984247D0EE
:1020C00009DCB0F5805F35D0B0F5005F15D0B0F118
:1020D000101F2FD13CE0102A3AD0202A38D0502AA5
:1020E00028D135E0CB68D1E90121206801F00CFB53
:1020F0002068816841F0770109E0CB68D1E90121CE
:10210000206801F001FB2068816841F48041816012
:1021100010E0CA684968206801F00AFB5021206875
:1021200006E0CA684968206801F013FB6021206856
:1021300001F0F4FA84F83D50002084F83C0070BDB2
:10214000CA684968206801F0F3FA40212068EFE787
:10215000226801461046EBE788FFCEFF2000100002
:10216000704770B50446006801694FF00005C94327
:10217000890715D4C168C943890711D4E91E0161D3
:1021800001202077206880698007204602D0FFF771
:10219000E7FF04E000F0E3F8204600F0E1F82577DF
:1021A00020680169C943490717D4C168C943490771
:1021B00013D46FF004010161022020772068806948
:1021C00010F4407F204602D0FFF7CAFF04E000F081
:1021D000C6F8204600F0C4F8257720680169C94395
:1021E000090716D4C168C943090712D46FF0080162
:1021F0000161042020772068C0698007204602D052
:10220000FFF7AEFF04E000F0AAF8204600F0A8F8BF
:10221000257720680169C943C90617D4C168C94335
:10222000C90613D46FF010010161082020772068DF
:10223000C06910F4407F204602D0FFF791FF04E010
:1022400000F08DF8204600F08BF8257720680169B2
:10225000C943C90708D1C168C943C90704D1891E48
:102260000161204600F07EF820680169C943090633
:1022700009D4C168C943090605D46FF08001016122
:102280002046FFF712FE20680169C943C90509D439
:10229000C168C943090605D46FF480710161204605
:1022A000FFF702FE20680169C943490609D4C168E5
:1022B000C943490605D46FF040010161204600F092
:1022C000C9F820680169C943890609D4C168C943AE
:1022D000890605D46FF0200101612046FFF7E6FD75
:1022E00020680169C943C90209D4C168C943C90248
:1022F00005D46FF4801101612046FFF7D9FD2068F5
:102300000169C943890209D4C168C943890205D456
:102310006FF4001101612046FFF7C9FD20680169D3
:10232000C943490209D4C168C943490205D46FF4BD
:10233000800101612046FFF7BCFD20680169C943A7
:1023400009020BD4C168C943090207D46FF4000124
:1023500001612046BDE87040FFF7FABD70BD7047CF
:1023600070470000F8B52D4988424BD12C4E012111
:10237000304600F0E5FB00252A4C012813D002214D
:10238000304600F0DDFB012814D00421304600F077
:10239000D7FB012815D001214FF0904000F0D0FB71
:1023A000012810D012E0E068401CE06001280DDD3B
:1023B000E5600BE02069401C2061032806DD2561F3
:1023C00004E0052001E06FF00400A061164D302606
:1023D0002878432817D0532814D1A0780090637828
:1023E000227812A110480A3001F05EFE0E480A3031
:1023F000FDF751FF0C4982B232230A31104800F038
:102400007DFA2E70F8BDE069FDF7CBFF41EC100BB3
:10241000E07853EC102B0BA10090E3E7A40200201E
:102420000004004808000020C8010020533A544C22
:1024300025642B544D25642B544825640D0A000057
:10244000F0020020433A48252E30662B4C25640DBF
:102450000A000000704790F88010012918D001216F
:1024600080F880102421C0F8841050F8641B0A689A
:102470000B6823F001030B6022F000510022026080
:1024800050F8643C196020210162027710467047C1
:10249000022070477047704770B5044690F880007E
:1024A00001281DD0012084F880002420C4F8840075
:1024B00020680568026822F00102026020688268D4
:1024C00022F060620A438260204601F055F92068DC
:1024D00005602020C4F88400002084F8800070BDCE
:1024E000022070BD70B5044690F8800001281DD010
:1024F000012084F880002420C4F884002068056846
:10250000026822F0010202602068826822F06042C4
:102510000A438260204601F02FF9206805602020E0
:10252000C4F88400002084F8800070BD022070BDD3
:1025300070477047704700002DE9F041036804467A
:10254000D86919689A6840F60F0528424FF00005CF
:1025500009D186067ED501F0200602F080573E4361
:1025600078D0216FFFE0924E924F16400F403743D4
:1025700070D0C70709D0CF0507D501271F62D4F84F
:102580008C3043F00103C4F88C3083070AD5D3079D
:1025900008D0276802233B62D4F88C3043F0040350
:1025A000C4F88C3043070AD5D30708D02768042322
:1025B0003B62D4F88C3043F00203C4F88C3003073C
:1025C0000CD501F02003334308D02668082333627A
:1025D000D4F88C3043F00803C4F88C3003050BD5D5
:1025E0004B0109D526684FF400633362D4F88C3070
:1025F00043F02003C4F88C30D4F88C30002B34D056
:10260000800609D501F0200002F08051084303D074
:10261000216F09B120468847D4F88C002168896869
:10262000490602D410F0280F21D0204601F064F9A9
:1026300020688168490615D5816821F040018160D4
:10264000E06F78B15C498163E06FFEF74CFD0028D4
:102650000BD000E011E0E06F816B00E02046BDE8A8
:10266000F04108472046FFF765FFBDE8F0812046AE
:10267000FFF760FFC4F88C50F7E7E76E2026012FC4
:102680005CD1C7065AD5CF0658D5102018622068ED
:10269000816849062FD5E26F116849680904090C61
:1026A000E3D0B4F85C308B42DFD9A4F85E10116837
:1026B0000968890618D4016821F4807101602068D6
:1026C000816821F0010181602068816821F040016A
:1026D0008160C4F88860E5662068016821F0100117
:1026E0000160E06FFEF7CAFCB4F85C00B4F85E105D
:1026F000401A81B21EE0B4F85C10B4F85E20891A6A
:10270000B4F85E2089B2002AAFD00029ADD00268AB
:1027100022F49072026020688268254BDB431A40E5
:102720008260C4F88860E56625672068026822F048
:10273000100202602046FFF7ADFE96E7C70209D5FA
:10274000570207D54FF4801018622046BDE8F041CB
:10275000FFF7EFBE07060AD501F0800702F400027A
:10276000174304D0616F00297FF478AF7DE74206FC
:102770000CD54A060AD51968204621F04001196097
:10278000C4F88460656700F017F96EE7020206D5A9
:102790004A0004D52046BDE8F041FFF7C9BEC0019C
:1027A000CBD50029C9DA2046BDE8F041FFF773BE5A
:1027B0000100001020010004E538000810B50400F5
:1027C00003D0D4F8840010B107E0012010BD002030
:1027D00084F88000204600F027F82420C4F8840004
:1027E0002068016821F001010160204601F05CFAD7
:1027F0000128EBD0A06A10B1204600F0DFFF20686E
:10280000416821F4904141602068816821F02A01EB
:1028100081602068016841F0010101602046BDE847
:10282000104001F02FB8000010B586B00446142106
:102830006846FDF725FD17492068884227D11648CC
:10284000016E41F480410166016E01F48041059101
:10285000C16C41F00101C164C06C694600F0010027
:1028600005904FF4C060009002200190002002907B
:102870000390072004904FF09040FEF783FC002265
:1028800011462520FEF7D2FD2520FEF7C1FD06B03A
:1028900010BD0000003801400010024010B4D0F814
:1028A0008830202B1BD1B9B1B2B190F88030012B08
:1028B00015D0012380F880300023C366094C0368DB
:1028C000A34206D05C68240203D51C6844F08064EF
:1028D0001C6010BC01F022BB012010BC704702201C
:1028E000FBE7000000800040012202490248FFF798
:1028F000D5BF0000C8010020F00200202DE9F843F8
:102900000446D0F884001F4616460D46202851D1B3
:10291000DDB1D6B194F8800001284BD0012084F8B5
:1029200080004FF00008C4F88C802120C4F8840097
:102930001834FEF715FDA6878146E68754F8100C7B
:10294000183CB0F5805F03D004E00120BDE8F883B7
:10295000206920B12E46002584F8808010E00026F2
:10296000FAE78021204601F045FBB8B9C6B116F858
:10297000010B21688862B4F85600401EA4F8560086
:10298000B4F856004B464FF0000200970028E8D1FB
:102990004FF04001204601F02DFB30B10320D5E778
:1029A00035F8020BC0F30800E3E72020C4F88400E8
:1029B0000020CBE70220C9E77047FEE700B585B0ED
:1029C00014216846FDF75CFCC020009001200190B6
:1029D00002900220039069460248FEF7D3FB05B03F
:1029E00000BD00000004004870B50824002500F078
:1029F000A5FD13E06806050E002000F087FD1420F9
:102A000001F0F8FF142001F0F5FF012000F07EFD39
:102A1000142001F0EFFF00F085FD0543641EE4B2D1
:102A2000E8D2002000F072FD142001F0E3FF00F076
:102A3000A7FD284670BD70B50446082516E000F0D5
:102A400065FD142001F0D6FF04F0800000F08CFD3D
:102A5000142001F0CFFF6006040E142001F0CAFF1D
:102A6000012000F053FD142001F0C4FF6D1EEDB2F3
:102A70004FF00000E3D200F049FDBDE870401420A3
:102A800001F0B8BF10B5012000F06EFD142001F078
:102A9000B1FF012000F03AFD142001F0ABFF00204F
:102AA00000F062FD142001F0A5FF002000F02EFDD3
:102AB000BDE81040142001F09DBF10B5002000F0CB
:102AC00025FD142001F096FF002000F04DFD14209C
:102AD00001F090FF012000F019FD142001F08AFFA1
:102AE000012000F041FDBDE81040142001F082BF3C
:102AF00010B5052400F022FD142001F07BFF012019
:102B000000F004FD142001F075FF05E0641EA4B27E
:102B1000142001F06FFF6CB100F004FD0028F5D126
:102B200000F02EFD002000F0F1FC142001F062FF07
:102B3000002010BD00F024FDFFF7BFFF012010BDF5
:102B400070B50C460546FEF701FC08B1002070BDCB
:102B500021462846FEF7FAFB0028F9D0012070BD77
:102B600000B585B014216846FDF78AFB4FF6FF706B
:102B7000009000200321CDE902010190694602483E
:102B8000FEF700FB05B000BD0008004800B585B0A9
:102B900014216846FDF774FB4FF6FF70009001208A
:102BA0000190032003900020029069460248FEF73E
:102BB000E9FA05B000BD00000008004870B5002427
:102BC00006462146204600F003F900F045F94FF48F
:102BD0009635304600F010F9641CAC42F9D370BD54
:102BE00030B587B014216846FDF74AFB1E48C16C1A
:102BF00041F00401C164C16C01F004010591C16C94
:102C000041F00101C164C16C01F001010591C16C89
:102C100041F00201C164C06C012500F00200059082
:102C20004FF44870CDE900050024039469460294EE
:102C30000E48FEF7A7FA280203940090CDE901544C
:102C40004FF0904469462046FEF79CFAFFF79EFF3E
:102C5000A06940F48070A06104481830016841F414
:102C60000871016007B030BD001002400004004848
:102C7000203AD2B2034B02EB420203EB021200F005
:102C800019B80000444F0008F0B50E46074600256D
:102C900040F23F1407E021463846FFF7E9FF103CB9
:102CA0006D1CA4B2761C3278002A01D0142DF2D308
:102CB000F0BD00002DE9F04791468A460026044603
:102CC00000F086F8DFF84080012700BF00F0C4F86C
:102CD0005FF0000539F8160007FA05F10842404692
:102CE00001D1408800E0008800F086F86D1C102DAE
:102CF000F0D3641CE4B25146204600F069F8761C1B
:102D0000182EE3D3BDE8F0870000002010B5FFF7D0
:102D100067FF002000F014F8084CA080A088A0F500
:102D20000241303906D000F0EFFA002000F008F838
:102D3000A08010BD00F05FFAF7E70000000000205F
:102D400070B51D490A6842F400720A600A6842F4CC
:102D500080720A60184C103C226842F02002226007
:102D6000164A1060086840F02000086000BF00BFED
:102D700000BF206840F020002060206840F4807090
:102D80002060FFF7EDFE4FF09041886A40F48070BC
:102D9000886200BF00BF00BF0848001F006885B2FE
:102DA000886940F480708861FFF7F0FE206840F485
:102DB00000702060284670BD2804004814080048B0
:102DC00001B5BDF800000149488008BD00000020A1
:102DD00010B50C460146202000F070F82146BDE8F1
:102DE0001040212000F06AB801B5BDF8000001498B
:102DF000088008BD0000002030B5154B1968154A41
:102E00008CB2116841F400711160124910390D68DB
:102E100045F480750D600D6845F020050D60186063
:102E2000106840F02000106000BF00BF00BF0868BD
:102E300040F020000860086840F48070086000BF1F
:102E400000BF00BF086840F4007008601C6030BD1F
:102E50001408004828040048164A10B5106816499E
:102E600083B2086840F400700860086840F480701D
:102E7000086011481038046844F0200404602224DB
:102E800014600C6844F020040C6000BF00BF00BF59
:102E9000016841F020010160016841F48071016026
:102EA00000BF00BF00BF016841F400710160136002
:102EB00010BD0000140800482804004870B51A4CE2
:102EC00022681A4B95B21A6842F400721A601A68A6
:102ED00042F480721A60154A103A166846F02006CD
:102EE00016602060186840F02000186000BF00BF26
:102EF00000BF106840F020001060106840F480703F
:102F000010602160186840F02000186000BF00BF0A
:102F100000BF106840F020001060106840F480701E
:102F20001060256070BD00001408004828040048A7
:102F300000EB8100006E00F0F84070478068C0F33D
:102F4000C00070478068C0F380007047042303EA24
:102F5000D15310B518444369C1F3045107248C4080
:102F6000A3438A401343436110BD00EB8100016E0F
:102F700021F00041114301667047000030B589B06F
:102F800020216846FDF77CF91948184900240160A2
:102F9000C902C0E90114C46004250461C0E9054503
:102FA000047744770121016280F82440C4620463FD
:102FB00080F83840C46380F84040FDF7B7FE08B1A0
:102FC000FDF79CFC0B4800900620CDE901047F2012
:102FD0000594CDE9030569460548FDF791FC0028F5
:102FE00001D0FDF78BFC09B030BD0000000100509E
:102FF000380200200080F03E2DE9F04F87B0142108
:103000006846FDF73DF94048C16C41F00401C164D8
:10301000C16C01F004010591C16C41F02001C16453
:10302000C16C01F020010591C16C41F00101C16446
:10303000C16C01F001010591C16C41F00201C16454
:10304000C16C01F002010591C16C41F00801C1643D
:10305000C06CDFF8B88000F008004FF6FF740590F0
:10306000002221464046FEF776F94FF480764FF075
:103070009049002231464846FEF76DF9DFF890A0EE
:10308000002204215046FEF766F9DFF888B04FF4BD
:103090006877002239465846FEF75DF90125CDE9EB
:1030A000004500240294694640460394FEF76AF8FE
:1030B000CDE90054694648460294FEF763F80720BC
:1030C000CDE90004694658460294FEF75BF8009685
:1030D000CDE90154694648460394FEF753F80420AD
:1030E0000090CDE90154694650460394FEF74AF832
:1030F0000097CDE90154694658460394FEF742F81B
:1031000007B0BDE8F08F0000001002400008004842
:10311000000C00480004004810B588B0002419488D
:103120000594069403940494009401941449029421
:1031300001604F21C0E9011440F2E731C0E90314F6
:103140008021C0E90541FEF704FF08B1FDF7D6FB79
:103150004FF48050039003A90A48FEF785FF08B199
:10316000FDF7CCFB00940194694606480294FEF7F3
:10317000A1FE002801D0FDF7C1FB08B010BD000082
:10318000002C0140A4020020184810B51649016027
:103190004FF416514160002181600C22C160C0E9EA
:1031A00004128161C161016241628162FFF706FB25
:1031B00008B1FDF7A3FB00210C48FFF793F908B114
:1031C000FDF79CFB00210948FFF766F908B1FDF700
:1031D00095FB0648FFF73FF9002803D0BDE81040F3
:1031E000FDF78CBB10BD000000380140F00200204C
:1031F000FEE7FEE7704730B501210020FFF75EFED5
:103200004FF47A70FDF76CFB00210120FFF756FEAA
:1032100041F290711020FFF751FE4FF41C516020D5
:10322000FFF74CFE01216120FFF748FE02214620F6
:10323000FFF744FE48F210011320FFF73FFE48F26B
:10324000FE011220FFF73AFE4FF4A0610220FFF7C3
:1032500035FE41F230010320FFF730FE40F2033427
:1032600021463020FFF72AFE21463120FFF726FEB7
:1032700021463220FFF722FEE51E29463320FFF7C4
:103280001DFE03213420FFF719FE21463520FFF7EC
:1032900015FE14213620FFF711FE21463720FFF7D7
:1032A0000DFE21463820FFF709FE21463920FFF7A1
:1032B00005FE29463A20FFF701FE03213B20FFF7D8
:1032C000FDFD21463C20FFF7F9FD4FF4A0513D20C4
:1032D000FFF7F4FD4FF400719220FFF7EFFD214658
:1032E0009320FFF7EBFD40F60D019020FFF7E6FD80
:1032F00041F218010320FFF7E1FDBDE8304040F244
:1033000073110720FFF7DABD10B543F20801E3207F
:10331000FFF7D4FD1221E720FFF7D0FD41F2312164
:10332000EF20FFF7CBFD00210120FFF7C7FD4FF491
:10333000E0610220FFF7C2FD41F230010320FFF7F8
:10334000BDFD00210420FFF7B9FD40F20721082050
:10335000FFF7B4FD00210920FFF7B0FD00210A208E
:10336000FFF7ACFD00210C20FFF7A8FD00210D2088
:10337000FFF7A4FD00210F20FFF7A0FD0021102082
:10338000FFF79CFD07211120FFF798FD0021122077
:10339000FFF794FD00211320FFF790FDC820FDF7F3
:1033A000DFFE41F290611020FFF788FD40F22721F7
:1033B0001120FFF783FD3220FDF7D2FE1D211220E0
:1033C000FFF77CFD3220FDF7CBFE4FF400611320A8
:1033D000FFF774FD14212920FFF770FD0B212B202E
:1033E000FFF76CFD3220FDF7BBFE00212020FFF728
:1033F00065FD00212120FFF761FD07213020FFF747
:103400005DFD40F207713120FFF758FD06213220A3
:10341000FFF754FD40F204713520FFF74FFD41F6F0
:1034200004713620FFF74AFD04213720FFF746FDDF
:1034300000213820FFF742FD40F206713920FFF7E6
:103440003DFD40F201713C20FFF738FD0F213D208A
:10345000FFF734FD00215020FFF730FDEF21512010
:10346000FFF72CFD00215220FFF728FD40F23F110D
:103470005320FFF723FD4FF41C516020FFF71EFD82
:1034800001216120FFF71AFD00216A20FFF716FDD8
:1034900000218020FFF712FD00218120FFF70EFDA3
:1034A00000218220FFF70AFD00218320FFF706FD9F
:1034B00000218420FFF702FD00218520FFF7FEFC9C
:1034C00010219020FFF7FAFC00219220FFF7F6FC74
:1034D00003219320FFF7F2FC4FF488719520FFF74A
:1034E000EDFC00219720FFF7E9FC00219820FFF771
:1034F000E5FC41F218010320FFF7E0FCBDE81040B5
:1035000040F273110720FFF7D9BC000008B104484E
:1035100001E003481030016841F04001016070474C
:103520001804004810B580210348FDF70FFF01285B
:1035300000D0002010BD00000004004800B585B098
:1035400014216846FCF79CFE80200090002001902A
:10355000012002900220039069460248FDF712FE06
:1035600005B000BD0004004808B1044801E003486C
:103570001030016841F08001016070471804004874
:1035800000B585B014216846FCF77AFE80200090D3
:103590001120019000200290022003906946024809
:1035A000FDF7F0FD05B000BD000400487047FDF7D1
:1035B000DDBE10B5A4B038216846FCF761FE1421C9
:1035C0001FA8FCF75DFE44210EA8FCF759FE4FF43E
:1035D0000070FDF75DFF0220C101039140210491BD
:1035E0000121CDE9080100900A21CDE90A100790D8
:1035F0000C900D906846FEF73DFA08B172B6FEE7F2
:103600000F2000241F900320CDE9200422940221E2
:103610001FA82394FEF7E6F808B172B6FEE748F259
:103620000100CDE90E0440071D900EA8FDF796FF9E
:10363000002801D072B6FEE724B010BD0248016830
:1036400041F470010160704788ED00E00148FEF729
:1036500088BD0000A40200202DE9F0430268234B3E
:10366000234D244E244C4FF08049984207D04845C2
:1036700005D0A84203D0B04201D0A04203D122F02D
:1036800070074A683A431D4FDFF874C0DFF8748052
:1036900098420DD048450BD0A84209D0B04207D07F
:1036A000A04205D0B84203D0604501D0404503D1C7
:1036B00022F44075CA682A434D6922F080022A43E9
:1036C00002608A68C2620A688262984207D0A04299
:1036D00005D0B84203D0604501D0404501D1096909
:1036E000016301214161BDE8F0830000002C01402D
:1036F0000004004000080040003401400040014048
:10370000004401400048014010B5846842EA0322A9
:1037100024F47F440A432243826010BD8268034B35
:103720001A400A4342F00701816070478FFFCFFFC4
:1037300010B5036A046A24F001040462846924F069
:10374000F00444EA021423F00A020A43846102628C
:1037500010BD10B5036A23F0100303628369046A85
:1037600023F4704343EA023224F0A00343EA011138
:103770008261016210BD000030B5416EB9B10268CE
:1037800091689268C1F342610B4B520F9C5CE5005B
:1037900003F10804A25CB5FBF2F2A0F86A205A5CBF
:1037A000615CD200B2FBF1F1A0F8681030BD0121DC
:1037B000A0F86A10F8E700002C61000890F82810C3
:1037C000C90706D001684A68C36A22F400321A4366
:1037D0004A6090F82810890706D501684A68036B8B
:1037E00022F480321A434A6090F82810490706D51F
:1037F00001684A68436B22F480221A434A6090F8B9
:103800002810090706D501684A68836B22F4004234
:103810001A434A6090F82810C90606D501688A68DC
:10382000C36B22F480521A438A6090F828108906EC
:1038300006D501688A68036C22F400521A438A6034
:1038400090F82810490611D501684A68436C22F4A3
:1038500080121A434A60416CB1F5801F06D101689D
:103860004A68836C22F4C0021A434A6090F8281018
:10387000090606D501684A68C06C22F4002202439A
:103880004A607047F8B500260446C0F88C60FDF722
:1038900067FD0546206800686FF07E47000708D581
:1038A0002B4600224FF400112046009700F0A2FBA7
:1038B00060B92068006840070AD52B4600224FF403
:1038C00080012046009700F095FB08B10320F8BD69
:1038D0002020C4F88400C4F8880044F86C6F0020ED
:1038E0002675F8BD10B5806A0021A0F85E10A0F81A
:1038F0005610FEF71FFE10BD01680A6822F4907290
:103900000A6001688A68094B1A408A60C16E012901
:1039100004D101680A6822F010020A602021C0F870
:1039200088100021C166016770470000FEFFFFEFAD
:1039300070B5B0F86010D0F8882004460068222ADC
:1039400004D0816941F00801816170BD406AA26DB7
:1039500008401080A06D801CA065B4F85E00401E79
:10396000A4F85E00B4F85E000028EED1206801687B
:1039700021F4907101602068816821F0010181606B
:103980002020C4F8880000252567E06E012804D0B7
:103990002046FEF7A9FFE56670BD2068016821F0AA
:1039A00010010160B4F85C102046FEF773FDF2E7E9
:1039B0002DE9F0470446B0F860600068C569D0F8AA
:1039C00000A0D0F80880D4F88810222905D0816999
:1039D00041F008018161BDE8F087B4F868704FF0EC
:1039E00000095BE02068406AA16D30400880A06D4E
:1039F000801CA065B4F85E00401EA4F85E0020683C
:103A0000C569690730D0E9070AD05FEACA5107D50E
:103A100001210162D4F88C0040F00100C4F88C0050
:103A2000A8070BD55FEAC87008D021680220086299
:103A3000D4F88C0040F00400C4F88C0068070BD563
:103A40005FEAC87008D0216804200862D4F88C00AE
:103A500040F00200C4F88C00D4F88C0020B120465D
:103A6000FEF768FDC4F88C90B4F85E00B0B9206829
:103A7000016821F48071016020688168194A114051
:103A800081602020C4F88800C4F87090E06E01289E
:103A90001CD02046FEF728FFC4F86C900FB1A80692
:103AA000A0D4B4F85E00002895D0B4F86810814224
:103AB00091D92068816821F0805181600A4820678F
:103AC0002068016841F02001016084E720680168F6
:103AD00021F010010160B4F85C102046FEF7DAFC1A
:103AE000DAE70000FEFFFFEF3139000870B5B0F8EB
:103AF0006010D0F8882004460068222A04D081692A
:103B000041F00801816170BD406A0840A16D0870F4
:103B1000A06D401CA065B4F85E00401EA4F85E00D5
:103B2000B4F85E000028EED12068016821F490719D
:103B300001602068816821F0010181602020C4F8C3
:103B4000880000252567E06E012804D02046FEF796
:103B5000CBFEE56670BD2068016821F010010160B0
:103B6000B4F85C102046FEF795FCF2E72DE9F0472B
:103B70000446B0F860600068C569D0F800A0D0F8CD
:103B80000880D4F88810222905D0816941F0080105
:103B90008161BDE8F087B4F868704FF000095BE020
:103BA0002068406AA16D30400870A06D401CA0657F
:103BB000B4F85E00401EA4F85E002068C56969077D
:103BC00030D0E9070AD05FEACA5107D50121016266
:103BD000D4F88C0040F00100C4F88C00A8070BD585
:103BE0005FEAC87008D0216802200862D4F88C000F
:103BF00040F00400C4F88C0068070BD55FEAC87079
:103C000008D0216804200862D4F88C0040F002003B
:103C1000C4F88C00D4F88C0020B12046FEF78AFC52
:103C2000C4F88C90B4F85E00B0B92068016821F443
:103C30008071016020688168194A114081602020EC
:103C4000C4F88800C4F87090E06E01281CD02046AB
:103C5000FEF74AFEC4F86C900FB1A806A0D4B4F8E1
:103C60005E00002895D0B4F86810814291D9206890
:103C7000816821F0805181600A48206720680168CE
:103C800041F02001016084E72068016821F0100103
:103C90000160B4F85C102046FEF7FCFBDAE7000098
:103CA000FEFFFFEFED3A00082DE9F0410446016800
:103CB00080682269E3691043626900251A43104352
:103CC000DFF82CC20A688B4B1A4002430A60206856
:103CD0004168E26821F44051114341602168A069C4
:103CE000614501D0226A10438A68834B1A4002431F
:103CF0008A602068C16A626A21F00F011143C162C3
:103D00007E4923687E488B420DD1D0F8880010F0A0
:103D1000030006D0012855D0022842D003283FD105
:103D200052E001203DE077498B420BD1D0F888006A
:103D300010F00C0035D0042833D0082840D00C28CF
:103D40002ED141E070498B420BD1D0F8880010F0A1
:103D5000300026D0102835D0202831D030281FD16F
:103D600032E06A498B420BD1D0F8880010F0C000D5
:103D700017D0402826D0802822D0C02810D123E098
:103D800063450DD1D0F8880010F4406009D0B0F53B
:103D9000806F17D0B0F5006F12D0B0F5406F13D020
:103DA00010205B4A5B4F00264FF40041634539D138
:103DB00060B102280DD004280DD0082831D10EE0C2
:103DC0000220EEE70420ECE70820EAE7FDF7F8FD23
:103DD00003E0114603E0FDF717FE01007DD0606AA5
:103DE00037F810206768B1FBF2F007EB4703834216
:103DF0006CD8B0EB073F69D8002308461946FCF79A
:103E000007FA090241EA10610202780810187141AC
:103E10003A460023FCF7FCF93F4AA0F54071914275
:103E200059D953E0E3694FF6EF788B422DD1092839
:103E30004CD2DFE800F005080D4B274B4B4B0E0032
:103E4000FDF7BEFD01E0FDF7CDFD010001D144E02D
:103E50001146606A37F81000B1FBF0F0410060686D
:103E600001EB5001B1FBF0F080B2A0F1100141452F
:103E70002CD84FF6F0710140C0F342000143206896
:103E8000C1602AE0FDF7C0FDDFE709281ED2DFE8A8
:103E900000F005080D1D1F1D1D1D0E00FDF790FDF6
:103EA00001E0FDF79FFD010001D116E01146606AB7
:103EB00037F81000B1FBF0F1606801EB5001B1FB85
:103EC000F0F080B2A0F11001414504D9012504E0D1
:103ED000FDF79AFDE7E72168C8600120A4F86A00B1
:103EE00024F8680F2846A660E660BDE8F08100006F
:103EF00000800040F369FFCFFFF4FF11003801405C
:103F0000001002400044004000480040004C0040C7
:103F10000024F40014610008FFFC0F0070B58165F7
:103F2000A0F85C20A0F85E200021016783684FF4B0
:103F30008056FF24B34204D10369D3B940F2FF1382
:103F40001DE07F259BB1B3F1805F15D0A0F8601014
:103F5000C0F88C102223C0F8883003689C6844F0B5
:103F600001049C60436EB3F1005F0ED027E003694B
:103F700043B9A0F86040EBE703691BB13F23A0F809
:103F80006030E5E7A0F86050E2E7B0F868309342AF
:103F900015D88268B24201D1026972B1114A026732
:103FA00080F8801001680A6842F480720A60006834
:103FB000816841F0805181600FE00B4AEFE7826831
:103FC000B24201D1026952B1084A026780F88010FA
:103FD0000068016841F490710160002070BD044ADE
:103FE000F3E700006D3B0008B1390008ED3A000826
:103FF000313900082DE9F0479A4617460E46044627
:104000004FF000094FF02008089D39E0681C37D0B8
:10401000FDF7A6F9A0EB0A00A84222D80DB320684C
:10402000016849072CD5C069C043000528D4216820
:104030004FF4006008622068016821F4D0710160CB
:104040002068816821F001018160C4F88480C4F88F
:104050008880C4F88C8000BF84F880900320BDE87D
:10406000F0872068016821F4D071016020688168C0
:1040700021F001018160C4F88480C4F88880EBE7F6
:104080002068C06936EA000004D00020B842BDD0E4
:104090000020E4E70120F9E70148FEF74DBA0000EF
:1040A000F0020020FEE700000FB4084B10B504A991
:1040B00002AA039800F0EEF8044602A9002000F0DE
:1040C00080FC204610BC5DF814FB0000C3490008CA
:1040D0000907090E002804DB00F1E02080F8001435
:1040E000704700F00F0000F1E02080F8141D7047C9
:1040F00002E008C8121F08C1002AFAD170477047B1
:10410000002001E001C1121F002AFBD1704700000E
:104110002DE9FF5F82B00021DDE90430020DDDF8FA
:1041200040B0034318D044F61050A2F2FF3242438D
:104130001514119801281FD0A5EB0B00401C5FEA55
:10414000000A4FF000064E4FDFF83891B046504657
:1041500015D5CAF1000413E0119801244AA30128DF
:1041600001D16FEA0B010298119AC0E90031C0E950
:10417000024206B0BDE8F09FCBF10000DFE7044645
:104180000021404A491842EB0450CDE9001012E0EA
:10419000E00707D032463B4640464946FCF782F8E6
:1041A0008046894632463B4610461946FCF77AF867
:1041B00006460F466410002CEAD1DDE90401DDE972
:1041C0000023BAF1000F06DAFCF76CF842464B46C2
:1041D000FCF768F805E0FCF783FA42464B46FCF72B
:1041E0007FFA04460E460022284BFCF701FB03D859
:1041F0004FF0FF30014607E00022254B20463146B4
:10420000FCF7C7F9FCF7DBFA102409E0002C0ADB05
:104210000A220023FBF7FCFF039B30321A55641E71
:1042200050EA0102F2D1641C039AC4F11103144450
:10423000119A012A03D0012208430DD10AE0084354
:1042400004D000204FF0110B119072E7A3EB0B0587
:104250006D1E0DE05B4504DD4FF0000205F1010528
:1042600004E003DA4FF00002A5F10105002AECD0CA
:1042700002981199C0E90231C0E9004579E70000D0
:10428000000014400000F03F300000000000F04348
:104290000000E03F2DE9FF4F95B09B46894606465A
:1042A00000250FE2252877D100242746F84A01216E
:1042B000059400E0044316F8013F203B01FA03F0A7
:1042C0001042F7D130782A2811D06FF02F033078C0
:1042D000A0F13002092A16D8059A44F0020402EB34
:1042E000820203EB42021044761C0590EFE759F876
:1042F000042B0592002A03DA504244F4005405903E
:1043000044F00204761C30782E2816D116F8010FDE
:1043100044F004042A280DD06FF02F023078A0F169
:104320003003092B09D807EB870302EB4303C718B7
:10433000761CF3E759F8047B761C30786C280FD094
:1043400006DC4C2817D068280DD06A2814D104E068
:10435000742810D07A280FD10DE044F400140AE03C
:1043600044F4801401E044F440147278824202D193
:1043700004F58014761C761C307866280BD013DC8C
:10438000582877D009DC002875D04528F6D0462873
:10439000F4D047281AD19DE118E0632835D064286D
:1043A00079D0652812D195E1702873D008DC672890
:1043B000F1D069286FD06E280DD06F2806D1B5E0F6
:1043C00073282CD0752875D0782874D05A46179940
:1043D00090476D1C75E1C4F30250022809D00328F0
:1043E0000DD0D9F8001004280DD00D6009F1040992
:1043F00067E1D9F80010EA17C1E90052F6E7D9F8E9
:1044000000100D80F2E70D70F0E719F8041B8DF82D
:10441000001000208DF80100EA46012003E059F861
:1044200004AB4FF0FF3061074FF0000102D40DE004
:1044300008F101018846B9420FDA8045F8DB1AF825
:1044400008100029F4D108E008F1010188468142F2
:10445000FADB1AF808100029F6D105985B46A0EBA4
:10446000080721463846179A00F094FA284400EBD2
:10447000080507E04DE029E10DE01AF8010B5A4666
:1044800017999047B8F10108F7D25B4621463846A4
:10449000179A13E142E00A220092C4F302524FF04D
:1044A000000A022A08D059F804CB032A4FEAEC711B
:1044B0000AD00DE029E02AE009F1070121F0070206
:1044C000F2E802C1914609E00FFA8CFC4FEAEC7168
:1044D000042A03D14FFA8CFC4FEAEC71002907DA69
:1044E0000A460021DCF1000C61EB02012D2202E002
:1044F000220504D52B228DF80420012203E0E207D7
:1045000001D02022F7E7904659E00A2102E010226C
:104510000DE010214FF0000A00910BE010224FF047
:10452000000A44F004040827009203E008224FF038
:10453000000A0092C4F30252022A05D059F804CBB3
:104540000021032A08D009E009F1070121F0070240
:10455000F2E802C1914605E01FFA8CFC042A01D161
:104560000CF0FF0C4FF00008220728D5702806D069
:10457000009B83F0100353EA0A0305D00EE04022AB
:104580008DF80420012208E05CEA010206D0302206
:104590008DF804208DF8050002229046009B83F0E0
:1045A000080353EA0A030AD15CEA010201D1620757
:1045B00005D530228DF804204FF001087F1E5828C1
:1045C00004D034A003900EA802900DE036A0F9E7C5
:1045D00053466046009AFBF71BFE84460398825CB4
:1045E0000298401E029002705CEA0100F0D102982D
:1045F00006A9081A00F1200A600702D524F48034C5
:1046000000E00127574502DDA7EB0A0000E000208B
:1046100000EB0A01009005984144401A0590E00320
:1046200006D45B462146179A059800F0B3F9054475
:10463000002706E001A85A46C05D179990476D1CF7
:104640007F1C4745F6DBE0030CD55B462146179AF5
:10465000059800F09FF9054404E030205A46179968
:1046600090476D1C0099481E00900029F5DC08E079
:10467000029802995A460078491C0291179990476E
:104680006D1CBAF10001AAF1010AF1DC65E100003C
:104690000928010030313233343536373839616218
:1046A00063646566000000003031323334353637DC
:1046B00038394142434445460000000000F058F9B3
:1046C0000544761C307800287FF4ECAD19B02846FC
:1046D000BDE8F08F620700D4062709F1070222F037
:1046E000070CFCE80223E14603F000485FEA080CEF
:1046F00002D00FF2702C0DE05FEA045C02D50FF2DD
:10470000682C07E05FEAC47C02D00FF2602C01E065
:10471000AFF2700C4FF0FF3823F00043CDF850C0DB
:1047200065280CD006DC452809D046281DD047282E
:104730003DD13DE0662818D067287ED138E00021C1
:10474000112F01DB112000E0781CCDE9000106A942
:104750000EA8FFF7DDFCDDE90F010E9A03910021A1
:10476000009207F1010A04914DE04FF000400097DC
:10477000CDE9011006A90EA8FFF7CAFCDDE90F027A
:1047800003920E9B11990022DDF80CA00093049275
:1047900011B9791C00EB010AB7EB0A0004D4C0F18F
:1047A000FF3007F1010A0490AAEB0700019044E0F2
:1047B000012F00DA01270021112F01DD112000E077
:1047C0003846CDE9000106A90EA8FFF7A1FCDDE9F6
:1047D0000F010E9A0391002104910092BA4621071D
:1047E0000CD40399514500DA8A46BAF1010F05DD70
:1047F000009AAAF10101515C302908D0B84202DACE
:1048000010F1040F06DA0121CDE9011015E0AAF13B
:104810000101E9E7002805DC049901440491AAEBB1
:10482000000102E0411C514500DD8A460499401A0E
:10483000401C01904FF000400290200704D40198E2
:10484000504501DBCDF8048000208DF84F00029820
:104850000DF14F07B0F1004F25D02B200E9002989C
:104860004FF0020800280CDA404202902D200E90F2
:1048700007E00A210298FBF7C3FD3031029007F8E8
:10488000011DB8F10001A8F10108F2DC029800282E
:10489000EFD1791E0E980870307800F0200040F0BB
:1048A000450007F8020D12A8C01B00F10708149874
:1048B000007800B1012000EB0A01019801EBE071E2
:1048C00005984144401A401E0590E00306D45B461B
:1048D0002146179A059800F05DF805441498007871
:1048E00018B15A46179990476D1CE00324D55B46D2
:1048F0002146179A059800F04DF805441CE00498ED
:10490000002807DBDDE90301884203DD0098405CF5
:10491000179901E0179930205A469047049805F1FD
:104920000105401C04900198401E019004D12E20E6
:104930005A46179990476D1CBAF10001AAF1010A75
:10494000DDDC05E017F8010B5A46179990476D1CFE
:10495000B8F10001A8F10108F4DC5B462146179A82
:104960000598ABE62D0000002B00000020000000A1
:104970002DE9F041044600251E461746880404D45C
:1049800005E039462020B0476D1C641EF9D5284645
:10499000BDE8F0812DE9F041044600251E46904611
:1049A000C80301D5302700E02027880404D505E09E
:1049B00041463846B0476D1C641EF9D52846BDE80F
:1049C000F0810A68531C0B601070704770B50024AA
:1049D00025460748FCF7D8FA0548FCF7A3F9204418
:1049E0006D1C84B20A2DF4DB0A20B4FBF0F070BD1C
:1049F00038020020002100E0491C8142FCD37047AE
:104A000010B50446FEF73EF8A020FEF714F8FEF7B6
:104A10006FF82046FEF70FF8FEF76AF8FEF732F857
:104A2000A120FEF708F8FEF763F8FDF7DDFF044666
:104A3000FEF75EF8FEF741F8204610BD70B50D4652
:104A40000446FEF71FF8A020FDF7F5FFFEF750F82B
:104A50002046FDF7F0FFFEF74BF82846FDF7EBFF89
:104A6000FEF746F8BDE87040FEF727B810B5012202
:104A70004FF6FF710748FCF76EFC074C012204213A
:104A80002046FCF768FC20460022BDE810400421C7
:104A9000FCF761BC00080048000C004870B54FF4FA
:104AA0008074401E8440104DA1B22846FCF74EFC95
:104AB0000128A1B204D02846FCF748FC10B106E05A
:104AC000002201E0A1B201222846FCF744FC074C79
:104AD000012204212046FCF73EFC2046BDE8704040
:104AE00000220421FCF737BC00080048000C0048F5
:104AF0002DED068B82B0FCF741FCFEF75AFDFEF768
:104B00007BFAFEF709FBFEF739FAFEF73DFBFDF7EE
:104B100055FFFEF7FBF80020FEF750F80020FFF7E6
:104B20006FFFCE4C20700520FCF71AFB0120FFF729
:104B300067FF60700520FCF713FB0220FFF760FFA2
:104B4000A070FFF793FF4FF6FF70FEF74DF90020BE
:104B5000FEF736F90122C249C248FDF79FFEFFF772
:104B600035FFFBF711FC9FEDC08B53EC182BFBF7C7
:104B700099FB9FEDBF9B53EC192BFBF793FBFBF7C6
:104B800023FC6061BC48FDF733FA9FEDBCAB012606
:104B90004FF4784B4FF05F084FF0050900254FF4B4
:104BA0007A7A00BFFFF712FFFBF7EEFB53EC182BEE
:104BB000FBF778FB53EC192BFBF774FBFBF704FCBA
:104BC00060610120FFF76AFF6069FBF7EAFB53ECC5
:104BD0001A2BFBF767FBFBF7F7FB00EE100A84EDDF
:104BE000070A207800EE900AF8EE600AB4EEE00AB8
:104BF000F1EE10FA01D8E57036E000EE900AF8EE1A
:104C0000600AB4EEE00AF1EE10FA0BDD607800EE17
:104C1000900AF8EE600AB4EEE00AF1EE10FA01D85C
:104C2000E67021E0607800EE900AF8EE600AB4EEDB
:104C3000E00AF1EE10FA0BDDA07800EE900AF8EE33
:104C4000600AB4EEE00AF1EE10FA01D802200AE0A0
:104C5000A07800EE900AF8EE600AB4EEE00AF1EEF9
:104C600010FA01DD0320E070A06878B12079E778C0
:104C7000B84226D010EE100A0CD9FBF792FB41EC9B
:104C8000100B80A153EC102B00970BE0E078207103
:104C9000A66016E0FBF785FB41EC100B7DA153EC01
:104CA000102B00976E480A30FFF7FEF96C480A3067
:104CB000FBF7F1FA6A4982B232230A316948FDF7FB
:104CC0001DFEE0782071E06810B1012836D0C1E007
:104CD00074A17A48FFF7E8F978490020FDF7D4FF7E
:104CE000E069FBF75EFB41EC100B744853EC102BB2
:104CF00073A16430FFF7D8F9704948206431FDF79B
:104D0000C3FF6069FBF74DFB41EC100B544853ECBB
:104D1000102B72A1C838FFF7C7F951497820C8395C
:104D2000FDF7B2FF4E48E27872A16438FFF7BCF994
:104D30004B49A8206439FDF7A7FF8BE073A15F48BA
:104D4000FFF7B2F95D490020FDF79EFF20690128B9
:104D50001AD15846FEF734F82078411F5A2913D843
:104D6000217E0844C0B220705F2803D9404684F8F1
:104D7000008004E0052802D2484684F80090C1B2C1
:104D80000020FFF75BFEA5614C48227866A16430E5
:104D9000FFF78AF9494948206431FDF775FF002083
:104DA000FEF70EF8206902281AD15846FEF708F8D7
:104DB0006078411F5A2913D8217E0844C0B2607020
:104DC0005F2803D9404684F8018004E0052802D218
:104DD000484684F80190C1B20120FFF72FFEA5617B
:104DE0001F48627850A1C838FFF75EF91C49782047
:104DF000C839FDF749FF0020FDF7E2FF20690328CD
:104E00001AD15846FDF7DCFFA078411F5A2913D864
:104E1000217E0844C0B2A0705F2803D9404684F8C0
:104E2000028004E0052802D2484684F80290C1B20C
:104E30000220FFF703FEA5610948A2783AA1643871
:104E4000FFF732F90649A8206439FDF71DFF00205D
:104E5000FDF7B6FF5046FCF783F9A3E608000020F3
:104E6000C8010020F00200206666666666660A4099
:104E7000000000000000303FA40200204E36D9643C
:104E8000934D3E40413A48252E30662B4C25642BED
:104E9000440D0A00413A48252E30662B4C25642BE0
:104EA000550D0A0020204C6971756964204C6576A7
:104EB000656C2020202020202020000038000020C9
:104EC00020204865696768743A2020252E30666383
:104ED0006D202020202020202000000020204144A0
:104EE000433A2020252E326620202020202020201A
:104EF0000000000020204C6576656C3A2020256477
:104F000020202020202020200000000020205061B0
:104F100072616D6574657220536574757020202010
:104F20002020202020000000202054687265736833
:104F30006F6C64313A20202564636D20202020208E
:104F40002020200000000000000000000000000001
:104F50000000000000000000000000000000000051
:104F60000000000000000000000000000000000041
:104F700000000000000080018001800180018001AC
:104F80008001800180018001800180018001800119
:104F9000000000008001800100000000000000000F
:104FA0000000000000000000CC00CC00CC00CC00D1
:104FB000CC00CC0000000000000000000000000059
:104FC00000000000000000000000000000000000E1
:104FD00000000000000000000000000000000000D1
:104FE000600C600C600C30063006FE1FFE1F3006A1
:104FF00038071803FE1FFE1F180318038C018C01CD
:105000008C01000000008000E003F80F9C0E8C1C57
:105010008C188C009800F801E007800E801C8C181A
:105020008C189C18B80CF00FE00380008000000082
:10503000000000000000000000000E181B0C110C06
:1050400011061106110311039B018E01C038C06CBB
:1050500060446044304430441844186C0C380000FC
:10506000000000000000E001F003380718061806F1
:105070003003F001F000F8009C310E33061E061CD0
:10508000061C063FFC73F021000000000000000039
:1050900000000000000000000C000C000C000C00E0
:1050A0000C000C00000000000000000000000000E8
:1050B00000000000000000000000000000000000F0
:1050C000000000000000000200038001C000C000DA
:1050D00060006000300030003000300030003000F0
:1050E0003000300060006000C000C000800100039C
:1050F00000020000000020006000C000800180016C
:105100000003000300060006000600060006000675
:10511000000600060003000380018001C00060005B
:10512000200000000000000000000000000000005F
:10513000C000C000D806F807E001300338070000BF
:10514000000000000000000000000000000000005F
:10515000000000000000000000000000000000004F
:1051600080018001800180018001FC3FFC3F8001C3
:10517000800180018001800100000000000000002B
:10518000000000000000000000000000000000001F
:10519000000000000000000000000000000000000F
:1051A000000000000000800180010001000180007B
:1051B00000000000000000000000000000000000EF
:1051C000000000000000000000000000E007E00711
:1051D00000000000000000000000000000000000CF
:1051E00000000000000000000000000000000000BF
:1051F00000000000000000000000000000000000AF
:10520000000000000000C000C0000000000000001E
:10521000000000000000000C000C00060006000664
:105220000003000300038003800180018001C000AF
:10523000C000C0006000600000000000000000002E
:10524000000000000000E003F007380E180C0C18F6
:105250000C180C180C180C180C180C180C180C182E
:10526000180C380EF007E0030000000000000000FA
:1052700000000000000000018001C001F001980161
:10528000880180018001800180018001800180010E
:10529000800180018001800100000000000000000A
:1052A000000000000000E003F80F180C0C180C18A8
:1052B00000180018000C000600038001C000600008
:1052C00030001800FC1FFC1F000000000000000060
:1052D000000000000000E001F807180E0C0C0C0C98
:1052E000000C0006C003C007000C001800180C18C2
:1052F0000C18180CF807E003000000000000000084
:10530000000000000000000C000E000F000F800DD8
:10531000C00C600C600C300C180C0C0CFC3FFC3FFB
:10532000000C000C000C000C00000000000000004D
:10533000000000000000F80FF80F180018000C0023
:10534000EC03FC071C0E001C0018001800180C18B9
:105350001C0C180EF807E00300000000000000001D
:10536000000000000000C007F00F381C18181800DB
:105370000C00CC03EC0F3C0E1C1C0C180C180C1869
:10538000181C380EF007E0030000000000000000C9
:10539000000000000000FC1FFC1F000C00060006BF
:1053A000000380038001C001C000E00060006000D5
:1053B00070003000300030000000000000000000ED
:1053C000000000000000E003F007380E180C180C75
:1053D000180C3806F007F007180C0C180C180C18ED
:1053E0000C18380CF80FE00300000000000000006B
:1053F000000000000000E003F007380E1C0C0C1841
:105400000C180C181C1C381EF81BE0190018000C96
:10541000000C1C0EF807F001000000000000000066
:10542000000000000000000000000000000000007C
:10543000800180010000000000000000000000006A
:10544000000000008001800100000000000000005A
:10545000000000000000000000000000000000004C
:10546000800180010000000000000000000000003A
:1054700000000000800180010001000180000000A8
:10548000000000000000000000000000000000001C
:10549000000000000010001C800FE003F80018005E
:1054A000F800E003800F001C001000000000000066
:1054B00000000000000000000000000000000000EC
:1054C00000000000F81F000000000000F81F0000AE
:1054D00000000000000000000000000000000000CC
:1054E00000000000000000000000000000000000BC
:1054F0000000000008003800F001C007001F00187D
:10550000001FC007F0013800080000000000000084
:10551000000000000000E003F80F180C0C180C1835
:105520000018000C000600038001C000C000C0008D
:1055300000000000C000C0000000000000000000EB
:105540000000000000000000E00718180420C22935
:10555000224A114409440944094409221113E20C66
:10556000024004201818E0070000000000000000BE
:1055700000000000000080038003C006C006C006D3
:10558000600C600C301830183018F83FF83F1C7071
:105590000C600C6006C006C00000000000000000A7
:1055A000000000000000FC03FC0F0C0C0C180C1891
:1055B0000C180C0CFC07FC0F0C180C300C300C30C9
:1055C0000C300C18FC1FFC0700000000000000005D
:1055D000000000000000C007F01F38381C300C70BD
:1055E00006600600060006000600060006000660CB
:1055F0000C701C30F01FE0070000000000000000ED
:10560000000000000000FE03FE0F060E061806183C
:1056100006300630063006300630063006300618F2
:105620000618060EFE0FFE0300000000000000003A
:10563000000000000000FC3FFC3F0C000C000C00D0
:105640000C000C00FC1FFC1F0C000C000C000C00DC
:105650000C000C00FC3FFC3F0000000000000000BC
:10566000000000000000F83FF83F18001800180084
:1056700018001800F81FF81F18001800180018006C
:1056800018001800180018000000000000000000BA
:10569000000000000000E00FF83F3C780E6006E0DC
:1056A00007C00300030003FE03FE03C007C006C0DB
:1056B0000EC03CF0F83FE00F0000000000000000CA
:1056C0000000000000000C300C300C300C300C30AE
:1056D0000C300C30FC3FFC3F0C300C300C300C30EC
:1056E0000C300C300C300C300000000000000000CA
:1056F0000000000000008001800180018001800125
:105700008001800180018001800180018001800191
:105710008001800180018001000000000000000085
:10572000000000000000000600060006000600065B
:105730000006000600060006000600060006180621
:1057400018063807F003E001000000000000000028
:1057500000000000000006300618060C06060603CE
:105760008601C60066007600DE008E01060306068E
:10577000060C06180630066000000000000000005D
:1057800000000000000018001800180018001800A1
:105790001800180018001800180018001800180049
:1057A00018001800F81FF81F00000000000000009B
:1057B0000000000000000EE01EF01EF01EF036D8C3
:1057C00036D836D836D866CC66CC66CCC6C6C6C601
:1057D000C6C6C6C686C386C300000000000000001F
:1057E0000000000000000C301C303C303C306C30BD
:1057F0006C30CC30CC308C310C330C330C360C3656
:105800000C3C0C3C0C380C30000000000000000088
:10581000000000000000E007F81F1C380E70066052
:1058200003C003C003C003C003C003C003C00660BD
:105830000E701C38F81FE007000000000000000098
:10584000000000000000FC0FFC1F0C380C300C3076
:105850000C300C300C18FC1FFC070C000C000C006A
:105860000C000C000C000C00000000000000000008
:10587000000000000000E007F81F1C380E700660F2
:1058800003E003C003C003C003C003C007E0066316
:105890000E3F1C3CF83FE0F700C000000000000095
:1058A000000000000000FE0FFE1F06380630063024
:1058B00006300638FE1FFE0706030606060C06180D
:1058C00006180630063006600000000000000000E8
:1058D000000000000000E003F80F1C0C0C180C186E
:1058E0000C001C00F803E00F001E003806300630E4
:1058F0000E301C1CF80FE007000000000000000044
:10590000000000000000FE7FFE7F8001800180011A
:10591000800180018001800180018001800180017F
:105920008001800180018001000000000000000073
:105930000000000000000C300C300C300C300C303B
:105940000C300C300C300C300C300C300C300C3077
:105950000C301818F81FE0070000000000000000DD
:1059600000000000000003600630063006300C180E
:105970000C180C18180C180C380E3006300670076E
:1059800060036003C001C0010000000000000000CF
:105990000000000000000360C361C361C36166339F
:1059A000663366336633663366336C1B6C1B6C1B65
:1059B0002C1A3C1E380E380E0000000000000000BB
:1059C0000000000000000FE00C7018303018700C60
:1059D000600EC00780038003C003E006700C301C1B
:1059E00018180C300E6007E00000000000000000F6
:1059F00000000000000003C006600C301C3838189E
:105A0000300C6006E007C003800180018001800146
:105A10008001800180018001000000000000000082
:105A2000000000000000FC7FFC7F006000300018D8
:105A3000000C000600038001C00060003000180068
:105A40000C000600FE7FFE7F00000000000000004A
:105A5000000000000000E003E00360006000600060
:105A60006000600060006000600060006000600036
:105A70006000600060006000600060006000E003A3
:105A8000E0030000000030003000600060006000B3
:105A9000C000C000C000C00180018001800100037F
:105AA00000030003000600060000000000000000E4
:105AB000000000000000E003E00300030003000317
:105AC00000030003000300030003000300030003BE
:105AD0000003000300030003000300030003E003CE
