:020000040800F2
:1000000028060020ED01000821270008871C0008B1
:100010004126000885020008773000080000000033
:10002000000000000000000000000000652B000838
:10003000870200080000000023270008672B000843
:10004000070200080702000807020008070200086C
:10005000070200080702000807020008070200085C
:10006000070200080702000807020008070200084C
:10007000070200080702000807020008070200083C
:10008000070200080000000007020008070200083D
:10009000070200080702000807020008070200081C
:1000A000070200080702000807020008070200080C
:1000B000052C0008070200080702000807020008D4
:1000C00007020008070200080702000807020008EC
:1000D00007020008070200080702000807020008DC
:1000E00007020008070200080702000807020008CC
:1000F00007020008070200080702000800000000CD
:1001000000000000070200080000000007020008CD
:1001100007020008000000000702000807020008AC
:10012000070200080702000807020008070200088B
:10013000070200080000000000000000070200089D
:10014000070200080702000800000000000000008D
:10015000000000000000000000000000000000009F
:10016000000000000000000000000000070200087E
:10017000070200080000000000000000000000006E
:10018000000000000702000800000000000000005E
:10019000000000000000000000000000000000005F
:1001A000000000000000000007020008070200082D
:1001B000070200080702000807020008000000000C
:1001C000000000000702000800000000000000001E
:1001D0000702000807020008DFF80CD000F040F822
:1001E000004800477D340008280600200648804764
:1001F00006480047FEE7FEE7FEE7FEE7FEE7FEE70C
:10020000FEE7FEE7FEE7FEE7F52B0008D901000850
:10021000D2B201E000F8012B491EFBD27047002248
:10022000F6E710B513460A4604461946FFF7F0FFF5
:10023000204610BD30B50B46014600202022012487
:1002400009E021FA02F59D4205D303FA02F5491BA4
:1002500004FA02F52844151EA2F10102F1DC30BDBA
:10026000064C074D06E0E06840F0010394E8070003
:1002700098471034AC42F6D3FFF7B2FFF4470008BA
:1002800014480008FEE77047002240F6B83306E045
:100290000021491C89B29942FBD3521C92B282427E
:1002A000F6D3704772B6FEE770B5044600F0FCF86E
:1002B0000546601C02D004484068044400F0F4F88D
:1002C000401BA042FAD370BD740000202DE9FC4F02
:1002D000DFF8A0A1002301250AF1040B03244FF04D
:1002E0000F0C0BF1040EBDE005FA03F632406FD09F
:1002F0004F68012F05D0022F03D0112F01D0122FEC
:1003000017D1D0F808905F0004FA07F829EA080925
:100310000097D1F80C8008FA07F848EA0908C0F8F5
:1003200008804768B7430E79C6F300169E403E43E7
:100330004660C6684FEA430804FA08F7BE430197CF
:100340008F6807FA08F73743C7604E68022E01D05E
:10035000122E13D1DE0800EB86060096366A5F0780
:10036000FF0E0CFA07F926EA0906D1F8109009FAEF
:1003700007F949EA0609009EC6F820900668019F21
:10038000BE430F7907F0030707FA08F73743076002
:100390004E68F60065D5384E376E47F00107376670
:1003A000366E23F0030706F001060096334E3E44F6
:1003B000B146B6689F074FEA17780CFA08F7BE43B4
:1003C000B0F1904F05D02E4FB84204D1012717E06D
:1003D00047E0002714E02B4FB84201D102270FE07D
:1003E000294FB84201D103270AE0284FB84201D172
:1003F000042705E0264FB84201D1052700E0062773
:1004000007FA08F73743C9F80870DAF8006057466A
:10041000D1F8048096435FEAC83800D516433E60A1
:10042000DBF800605F46D1F8048096435FEA8838C5
:1004300000D516433E60DEF800607746D1F80480B0
:1004400096435FEAC82800D516433E60094F0C3733
:100450003E68D1F8048096435FEA882800D51643A9
:100460003E605B1C0A6832FA03F67FF43DAFBDE8DC
:10047000FC8F000000040140001002400000014019
:100480000004004800080048000C00480010004824
:10049000001400480069084000D0012070470AB1EC
:1004A0008161704781627047014880687047000031
:1004B00074000020024881684268114481607047DE
:1004C0007400002010B50024032000F073F8002011
:1004D00000F008F808B1012401E000F025F82046FA
:1004E00010BD000070B50E4E05460024706898B12E
:1004F0004FF47A71B1FBF0F00A490968B1FBF0F0F2
:1005000000F0C0FE40B9102D06D200222946501E30
:1005100000F030F8356000E00124204670BD000096
:1005200074000020800000200A4882B0016E41F073
:1005300001010166016E01F001010091816D41F040
:1005400080518165806D00F08050009002B000F015
:10055000A1B8000000100240002809DB00F01F02D3
:10056000012191404009800000F1E020C0F8001115
:1005700070470000F0B40E4B1B680C46C3F3022317
:10058000C3F10705042D00D90425191D072901D23F
:10059000002300E0DB1E012606FA05F1491E21407A
:1005A00099409E40761E16403143F0BC02F078BD63
:1005B0000CED00E0064900F0070208684FF6FF0363
:1005C000184040EA0220034A1043086070470000C8
:1005D0000CED00E00000FA052B492C4B0A68322193
:1005E0004A432B4940B1B0F5007F086829D020F478
:1005F000C06040F480602CE00868C0F3412002280D
:1006000004D051F8800F20F4807022E0D1F88000EF
:1006100020F48070C1F88000086820F4C06040F4C5
:1006200000700860B2FBF3F0401C00E0401E4A6915
:10063000520501D50028F9D1486940050AD50320A3
:100640007047C0F34120022806D051F8800F40F4D3
:100650008070086000207047D1F8800040F48070FE
:10066000C1F88000086820F4C06040F400700860A1
:10067000B2FBF3F0401C00E0401E4A695205DBD596
:100680000028F9D1D8E700008000002040420F0088
:10069000007000400248816841F4804181607047E9
:1006A000007000402DE9F8430446006800269D4D87
:1006B00000035ED5A86D0027C00008D4A86D40F0E7
:1006C0008050A865A86D012700F080500090DFF8E9
:1006D0005892D9F8001041F48071C9F80010FFF762
:1006E000E3FE804606E000BFFFF7DEFEA0EB080059
:1006F00002282BD8D9F80000C005F5D5D5F8900010
:1007000010F4407014D0216C814211D0D5F89000C3
:10071000D5F8901020F4407041F48031C5F8901065
:10072000D5F8901021F48031C5F89010C5F89000EC
:10073000C00711D0FFF7B8FE804641F2883907E0C4
:10074000FFF7B2FEA0EB0801494501D903260BE0F3
:10075000D5F890008007F3D5D5F89000216C20F4EF
:1007600040700843C5F890001FB1A86D20F080507C
:10077000A8652078C00707D0D5F88800616820F008
:1007800003000843C5F888002078800707D5D5F80E
:100790008800A16820F00C000843C5F88800207884
:1007A000400707D5D5F88800E16820F030000843FD
:1007B000C5F888002078000707D5D5F8880021699A
:1007C00020F0C0000843C5F888002078800607D5CF
:1007D000D5F88800616920F440600843C5F88800B6
:1007E0002078400607D5D5F88800A16920F440504C
:1007F0000843C5F888002078000607D5D5F888009A
:10080000E16920F440400843C5F888002088C0050D
:1008100007D5D5F88800216A20F440300843C5F890
:1008200088002088800507D5D5F88800616A20F403
:1008300040200843C5F88800208840050FD5D5F82A
:100840008800A16A20F440100843C5F88800A06A17
:10085000B0F5801F03D1E86840F48010E86020887C
:1008600000050FD5D5F88800E16A20F44000084360
:10087000C5F88800E06AB0F5800F03D1E86840F45D
:100880008010E8602088C0040FD5D5F88800216B5F
:1008900020F040700843C5F88800206BB0F1807FDD
:1008A00003D1E86840F48010E86020884FF00061D0
:1008B00080040ED5D5F88800626B20F040601043AC
:1008C000C5F88800606B884203D1E86840F4801066
:1008D000E860208840040ED5D5F88800A26B20F08F
:1008E00040601043C5F88800A06B884203D1E868D7
:1008F00040F48010E860208800040FD5D5F8880007
:10090000E16B20F040500843C5F88800E06BB0F17F
:10091000805F03D1E86840F48030E8603046BDE88D
:10092000F883000000100240007000402DE9F047FD
:100930000E4605004FF0000725D0DFF8AC81D8F84F
:10094000000000F00F00B0420CD2D8F8001021F0E7
:100950000F013143C8F80010D8F8000000F00F0074
:10096000B04210D12968614CC80741F2883A5AD088
:100970006868DFF87C91032808D0022820682DD011
:10098000400500282CDB0120BDE8F08720688001AD
:10099000F9D5E06800F00302E068C0F30310401CE2
:1009A000032A19D0534A00BFB2FBF0F0E268C2F349
:1009B00006225043E268C2F34162521C5200B0FB6F
:1009C000F2F0484517D9A06810F0F00F0CD0880756
:1009D00011D5A86840B10EE0474AE5E78003D0E7AB
:1009E00000F092F8484506D9A06820F0F00040F0E9
:1009F0008000A0608027A068696820F00300084399
:100A0000A060FFF751FD814606E000BFFFF74CFDF7
:100A1000A0EB090151453AD8A068696800F00C00C4
:100A2000B0EB810FF2D12868810714D5400703D5B8
:100A3000A06840F4E060A0602878000705D5A068B1
:100A400020F4605040F4E060A060A068A96820F045
:100A5000F000084304E0802F03D1A06820F0F000EC
:100A6000A060D8F80010404601F00F01B14216D93D
:100A7000016821F00F0131430160FFF715FD0746C2
:100A800007E000BFFFF710FDC11B514501D903204E
:100A90007AE7D8F8000000F00F00B042F2D12878D1
:100AA000400705D5A068E96820F4E0600843A0602D
:100AB0002878000706D5A068296920F4605040EA2C
:100AC000C100A06000F020F8A1680C4AC1F3031136
:100AD000515C01F01F01C8400949086009480068DD
:100AE000BDE8F047FFF7FEBC0020024000100240C6
:100AF00000B4C4040024F40000127A00E4470008A3
:100B00008000002074000020184910B58868C0F3E8
:100B100081021748012A0BD08A684310C2F3810270
:100B2000022A06D08A68C2F38102032A03D0002079
:100B300010BD184610BDCA6802F00304CA68C2F3AB
:100B40000312521C032C02D0B0FBF2F001E0B3FB05
:100B5000F2F0CA68C968C2F306225043C1F341618A
:100B6000491C4900B0FBF1F010BD0000001002402C
:100B70000024F4002DE9F84304007AD02078FA4DDF
:100B8000C00747D0A868E96800F00C0001F0030135
:100B90000C2802D0082817D001E0032914D060687F
:100BA000B0F5803F17D0B0F5A02F286817D020F4FB
:100BB00080302860286820F4802028606068E0B1D8
:100BC000FFF772FC064614E02868800322D56068AF
:100BD0000028D2D01EE0286840F48030EDE740F4D1
:100BE00080202860F7E700BFFFF75EFC801B6428C9
:100BF00070D828688003F7D50CE0FFF755FC06464F
:100C000005E000BFFFF750FC801B6428F0D828687F
:100C10008003F7D4207880074CD5A868E96800F0F5
:100C20000C0001F003010C2802D004280DD001E0D3
:100C300002290AD0E068002828682BD040F4807090
:100C40002860FFF731FC064619E02868400502D508
:100C5000E068002891D06868217C20F0FE4040EADE
:100C600001606860C1480068FFF73CFC002800D1C3
:100C700020E076E1FFF718FC801B0228B8D828682E
:100C80004005F7D56868217C20F0FE4040EA01600D
:100C900068600FE020F480702860FFF705FC0646CE
:100CA00005E000BFFFF700FC801B0228A0D82868E1
:100CB0004005F7D42078000729D560690028D5F8C9
:100CC000940013D040F00100C5F89400FFF7ECFB4E
:100CD000064606E090E000BFFFF7E6FB801B022817
:100CE00086D8D5F894008007F6D510E020F00100F2
:100CF000C5F89400FFF7D8FB064604E0FFF7D4FBE5
:100D0000801B022878D8D5F894008007F6D4207884
:100D1000400761D5A86D0026C00008D4A86D40F03A
:100D20008050A865A86D012600F080500090904882
:100D30000168C90511D40168804641F480710160E1
:100D4000FFF7B2FB074604E0FFF7AEFBC01B02282B
:100D500052D8D8F80000C005F6D5A068012815D0F3
:100D60000528D5F8900016D020F00100C5F89000B5
:100D7000D5F8900020F00400C5F89000A06841F27A
:100D80008838B8B1FFF790FB07460EE0D5F8900021
:100D900040F00100F0E740F00400C5F89000F5E7EE
:100DA000FFF782FBC11B414526D8D5F8900080078C
:100DB000F6D50CE0FFF778FB074604E0FFF774FB7D
:100DC000C11B414518D8D5F890008007F6D41EB154
:100DD000A86D20F08050A8652078800629D5A069EC
:100DE0000028D5F8980013D040F00100C5F898000D
:100DF000FFF75AFB064606E077E000BFFFF754FB1B
:100E0000801B022877D8D5F898008007F6D510E027
:100E100020F00100C5F89800FFF746FB064604E005
:100E2000FFF742FB801B022865D8D5F898008007A1
:100E3000F6D4E069F0B3A968C1F38101032961D058
:100E40000228286820F0807028600BD0E86820F025
:100E50000300E860E86847490840E860FFF724FBC2
:100E600004464BE0FFF720FB064604E0FFF71CFBBF
:100E7000801B02283FD828688001F7D4F4E90801D4
:100E80006FF00F0202EB01110843218A5204490856
:100E900002EB4151A26841EA02210843217D4FF053
:100EA0007E42490802EB41610843217B40EAC16070
:100EB000E96800E062E0304A11400843E8602868D1
:100EC00040F080702860E86840F08070E860FFF7CC
:100ED000EBFA044605E000BFFFF7E6FA001B022824
:100EE00009D828688001F7D548E004E0FFF7DCFA6C
:100EF000001B022802D90320BDE8F883286880017E
:100F0000F4D43BE00128F7D0E868226A00F003013E
:100F1000914226D1616A00F0F00209011039914234
:100F20001FD1A26A00F4FE41B1EB022F19D194F84F
:100F30002C2000F07841B1EBC26F12D1218E00F469
:100F4000C00249084905A1F50011914209D194F860
:100F5000341000F0C06049084906A1F100718142D7
:100F60000CD00120C8E700000010024074000020EF
:100F700000700040FFFFEEFE0C809F010020BBE7E9
:100F80000F4810B50B4601680E480140080CD87098
:100F9000C1F304245C7001F03F049C70C1F3423142
:100FA000197052B901F048FDD870587801F044FD2D
:100FB0005870987801F040FD9870002010BD000036
:100FC000042800403FFFFF00144810B500680B469E
:100FD0004860124808300068C0F30E0088600F486F
:100FE000083801680E480140C1F305401870C1F38C
:100FF00006245C7001F07F049C70890DD97052B991
:1010000001F01AFD1870587801F016FD58709878A4
:1010100001F012FD9870002010BD0000082800406B
:101020007F7F7F0070B504004FF001003ED094F840
:10103000250028B9002084F82400204600F03CF860
:10104000022084F825001A4ECA20306053203060F8
:10105000204601F007FD10BB154D0C3D28681549D1
:101060000840286028686168A26908432169114323
:10107000084328602189E06840EA01400C4914399E
:101080000860204601F014FD48B9D4E90721114356
:1010900062692B6823F060431A4311432960FF21E2
:1010A0003160002802D1012184F8251070BD0000B4
:1010B00024280040BFFF8FFB00680549884205D106
:1010C000044850F8901F41F400410160704700004F
:1010D00000280040001002402DE9F041044690F83D
:1010E00024000B4601281AD0012684F8246002202F
:1010F00084F82500B2B19878D97840EA014558784B
:101100001978000240EA413005431B4FCA2038607D
:1011100053203860204601F0A5FCD8B122E002201F
:10112000BDE8F0815878C10603D500F0EF000A3021
:101130005870D87801F089FC0504587801F085FCD6
:1011400045EA0025987801F080FC0543187845EAC7
:101150004035DAE709480540074820380560204651
:1011600001F0A6FCFF21396008B984F82560002150
:1011700084F82410D4E70000242800403FFFFF003B
:101180002DE9F047054690F8240017460C46012843
:1011900014D04FF0010985F82490022085F825002D
:1011A000DFF8A480CA21C8F800105321C8F8001045
:1011B000284601F057FC002618B127E00220BDE8C0
:1011C000F087214B0C3B18684FEA40601FB30028A2
:1011D00000DBE670A0782178E27840EA014061788F
:1011E000090241EA82510843184908401649243946
:1011F0000860186820F480201860D4E903010843CF
:10120000196808431860284601F052FCFF22C8F80C
:101210000020A0B115E0002800DBE670207801F086
:1012200014FC0704607801F010FC47EA0027A0785E
:1012300001F00BFC0743E07847EA8050D4E785F8DB
:10124000259085F82460BAE7242800407F7F7F003E
:1012500070B50B4D286820F020002860FFF724F9B6
:1012600004464FF47A7606E0FFF71EF9001BB04201
:1012700001D9032070BD28688006F5D5002070BD17
:101280000C28004010B5401EB0F1807F01D3012032
:1012900010BD4FF0E02460610F21601701F000FFE6
:1012A0000020A06107202061002010BD704770471A
:1012B00070470000F0B590F83C20012A4AD0012286
:1012C00080F83C20CA688B6822F440721A434B684D
:1012D00022F480621A430B6822F400621A430B69FD
:1012E00022F480521A434B6922F400521A430B6BCA
:1012F00022F480421A430B8B22F4702242EA03420A
:10130000154C03680026154DA34201D0AB4203D112
:10131000CF6922F080523A43A34201D0AB4214D1AC
:101320000F8D22F4700242EA07520F6A22F0807297
:101330003A434F6A22F000723A43A34201D0AB42D3
:1013400003D1C96A22F000520A435A6480F83C6013
:101350000020F0BD0220F0BD002C0140003401400F
:101360007047704770470000F0B590F83C20012AA4
:101370003AD0012580F83C50022280F83D200368D5
:101380005A689C68194E1A4FB34201D0BB4204D12F
:1013900022F4700C4A6842EA0C02DFF858C002EAF4
:1013A0000C02D1F800C04CEA020CC3F804C0026879
:1013B000B2420DD0B2F1804F0AD00F4B9A4207D003
:1013C0000E4B9A4204D0BA4202D00D4B9A4204D13D
:1013D000896824F080031943916080F83D50002112
:1013E00080F83C100846F0BD0220F0BD002C014002
:1013F000003401408FFFFFFD000400400008004062
:1014000000400140704710B5040003D094F83D003F
:1014100010B107E0012010BD002084F83C002046F8
:1014200000F022F8022084F83D00211D206801F020
:10143000EFFB012084F8480084F83E0084F83F0068
:1014400084F8400084F8410084F8420084F84300A6
:1014500084F8440084F8450084F8460084F8470086
:1014600084F83D00002010BD08B501681048B1F1B6
:10147000804F0BD00F4A914207D1016E41F4802179
:101480000166006E00F48020009008BD816D41F07F
:1014900001018165806D002200F00100009011467D
:1014A0001C20FFF767F8BDE808401C20FFF754B880
:1014B000001002400048014090F83D10012901D081
:1014C00001207047022180F83D100168CA6842F08F
:1014D0000102CA600068104988420ED0B0F1804F06
:1014E0000BD00E49884208D00D49884205D00D49DD
:1014F000884202D00C49884207D181680B4A1140CA
:10150000062906D0B1F5803F03D0016841F0010102
:101510000160002070470000002C014000040040E2
:101520000008004000340140004001400700010075
:1015300070B5044690F83C00012814D0012584F8C9
:101540003C50022084F83D0022689068344B1840DB
:1015500020F47F4090600868702827D010DC10F0DD
:101560000F0F03D04AE04FF0020070BD4FEA201287
:10157000072A43D2DFE802F050505050483139007A
:10158000284BC21A984247D009DCB0F5805F35D0AD
:10159000B0F5005F15D0B0F1101F2FD13CE0102A3C
:1015A0003AD0202A38D0502A28D135E0CB68D1E96A
:1015B0000121206801F091FB2068816841F07701EA
:1015C00009E0CB68D1E90121206801F086FB2068A1
:1015D000816841F48041816010E0CA6849682068F0
:1015E00001F026FD5021206806E0CA68496820689D
:1015F00001F02FFD6021206801F07AFB84F83D5056
:10160000002084F83C0070BDCA684968206801F079
:101610000FFD40212068EFE7226801461046EBE706
:1016200088FFCEFF20001000704770B504460068A8
:1016300001694FF00005C943890715D4C168C94342
:10164000890711D4E91E0161012020772068806993
:101650008007204602D0FFF7E7FF04E000F020F902
:10166000204600F0F3F9257720680169C94349074E
:1016700017D4C168C943490713D46FF0040101614D
:10168000022020772068806910F4407F204602D035
:10169000FFF7CAFF04E000F003F9204600F0D6F996
:1016A000257720680169C943090716D4C168C94371
:1016B000090712D46FF00801016104202077206827
:1016C000C0698007204602D0FFF7AEFF04E000F0BB
:1016D000E7F8204600F0BAF9257720680169C94388
:1016E000C90617D4C168C943C90613D46FF01001E5
:1016F0000161082020772068C06910F4407F2046EF
:1017000002D0FFF791FF04E000F0CAF8204600F095
:101710009DF9257720680169C943C90708D1C168C7
:10172000C943C90704D1891E0161204600F00EFAA1
:1017300020680169C943090609D4C168C94309067B
:1017400005D46FF0800101612046FFF7B0FD2068ED
:101750000169C943C90509D4C168C943090605D44B
:101760006FF4807101612046FFF7A0FD20680169D8
:10177000C943490609D4C168C943490605D46FF075
:1017800040010161204600F07DFA20680169C943EB
:10179000890609D4C168C943890605D46FF02001C0
:1017A00001612046FFF784FD20680169C943C90231
:1017B00009D4C168C943C90205D46FF4801101611D
:1017C0002046FFF7CEFD20680169C943890209D48C
:1017D000C168C943890205D46FF400110161204634
:1017E000FFF7BEFD20680169C943490209D4C168F9
:1017F000C943490205D46FF4800101612046FFF717
:10180000B1FD20680169C94309020BD4C168C9430D
:10181000090207D46FF4000101612046BDE8704061
:10182000FFF7F0BD70BD000030B587B0044614214D
:101830006846FEF7F4FC2468164D00231649022280
:101840004FF09040AC420ED1CC6C44F00104CC641B
:10185000C96C01F00101059140218DE80E00CDE930
:101860000332694611E00D4DAC4210D1CC6C44F00E
:101870000104CC64C96C01F00101059180218DE85F
:101880000E000121CDE903316946FEF71FFD07B0C7
:1018900030BD00000004004000100240004801403C
:1018A000704770B5044690F83C000D4601280BD0F7
:1018B000012084F83C000C2A45D007DC5AB1042AE8
:1018C0001BD0082A78D12CE0022070BD102A4ED0FF
:1018D000142A71D15DE0206801F014FA2068816952
:1018E00041F0080181612068816921F00401816172
:1018F000206881692A69114311E0206801F050FADB
:101900002068816941F4006181612068816921F466
:1019100080618161206881692A6941EA02218161CF
:101920004AE0206801F084FA2068C16941F00801AA
:10193000C1612068C16921F00401C1612068C169E9
:101940002A69114311E0206801F0BAFA2068C169E0
:1019500041F40061C1612068C16921F48061C16105
:101960002068C1692A6941EA0221C16124E0206836
:1019700001F0EEFA2068016D41F008010165206870
:10198000016D21F0040101652068016D2A69114390
:1019900011E0206801F014FB2068016D41F4006142
:1019A00001652068016D21F4806101652068016D89
:1019B0002A6941EA02210165002084F83C0070BDDB
:1019C00010B5040003D094F83D0010B107E00120E9
:1019D00010BD002084F83C00204600F023F80220CF
:1019E00084F83D00211D206801F012F9012084F8DF
:1019F000480084F83E0084F83F0084F8400084F8F2
:101A0000410084F8420084F8430084F8440084F8DC
:101A1000450084F8460084F8470084F83D00002023
:101A200010BD000008B500680649884208D1064884
:101A3000816D41F002018165806D00F0020000902F
:101A400008BD000000040040001002407047000084
:101A500030B50446022269B1042912D0082917D0F2
:101A60000C291CD0102921D094F84300012824D03F
:101A7000012030BD94F83E000128F9D184F83E20C1
:101A80001DE094F83F000128F2D184F83F2016E0D1
:101A900094F840000128EBD184F840200FE094F83E
:101AA00041000128E4D184F8412008E094F8420084
:101AB0000128DDD184F8422001E084F8432001228E
:101AC000206801F0FDF8194B20681949194A98421D
:101AD00009D0884207D0904205D0174DA84202D0C5
:101AE000164DA84203D1456C45F400454564206875
:101AF00098420CD0B0F1804F09D0114B984206D0DB
:101B0000104B984203D0884201D0904207D181689F
:101B10000D4A1140062906D0B1F5803F03D0016877
:101B200041F001010160002030BD0000002C0140A7
:101B300000340140004001400044014000480140A1
:101B40000004004000080040070001002DE9F047B4
:101B5000484988427ED100F01FF9474C606D01284A
:101B6000606801D1401C606001260025B0F57A7FD5
:101B700002D16560A6636565E06B404FDFF80081C8
:101B80004FF0904A4FF47A69012808D100F092FD95
:101B90002068401CA0F5B8512060703903D0206C3B
:101BA000012815D02FE02560A563C4E91756A56567
:101BB000C4E90F56E664206B57F82010606B814231
:101BC00002DD00F1010002E002DAA0F10100606331
:101BD0004FF001024FF020015046FEF760FCD8F8AC
:101BE00000004FF496714163A068401CA060484516
:101BF00009D1A560206B07EB8000406808B1A6649E
:101C000000E066642564A06C012805D1E068401CF2
:101C1000E060B0F5FA6F03D0606C012802D016E0E6
:101C20006664E560002220215046FEF738FCD8F8B3
:101C30000000FA2141632069401C2061484506D11B
:101C400025616564D4E90B01814200DAE663E06C4A
:101C5000012800E00BE00AD16069401CA0F580710A
:101C60006061773903D16561206D401C2065BDE856
:101C7000F0870000440100200800002094000020AC
:101C8000DC0100207047FEE700B599B009A1684665
:101C900001F0F2F96946302000F054F90A480BA12E
:101CA0000268684601F0E8F96946782000F04AF9D0
:101CB00019B000BD202020202020204C4556454C46
:101CC00020202020000000003C00002020202020B8
:101CD000202020202025642020202020200000001B
:101CE00070B5234C00252046A669426B806A214BC3
:101CF000411C012E15D0E669012E1FD0266A012E47
:101D000029D0666A012E0BD1042A08D0032803DAF1
:101D1000042243F82020A162042000F08FFA6562BB
:101D200070BD012A08D0032803DA012243F82020DD
:101D3000A162012000F082FAA56170BD022A08D0DC
:101D4000032803DA022243F82020A162022000F0D7
:101D500075FAE56170BD032A08D0032803DA03226F
:101D600043F82020A162032000F068FA256270BDCC
:101D7000080000208400002070B50C460546FEF7E0
:101D800089FB08B1002070BD21462846FEF782FB82
:101D90000028F9D0012070BD2DE9F041154F012137
:101DA0003846FFF7E9FF00260125134C012815D01E
:101DB00002213846FFF7E0FF012812D004213846FF
:101DC000FFF7DAFF012811D001214FF09040FFF713
:101DD000D3FF012808D16565656204E06565A561EA
:101DE00001E06565E5616660BDE8F08165652562D5
:101DF000F9E70000000400480800002000B585B0A5
:101E000014216846FEF70BFA4FF6FF700090002091
:101E10000321CDE90201019069460248FEF756FA16
:101E200005B000BD0008004800B585B01421684623
:101E3000FEF7F5F94FF6FF700090012001900320A6
:101E400003900020029069460248FEF73FFA05B071
:101E500000BD00000008004870B500240646214679
:101E6000204600F013F900F055F94FF4963530464E
:101E700000F020F9641CAC42F9D370BD01A100F060
:101E800061B80000202020202020202020202020B9
:101E900020202020202020200000000030B587B026
:101EA00014216846FEF7BBF91E48C16C41F00401DD
:101EB000C164C16C01F004010591C16C41F00101E4
:101EC000C164C16C01F001010591C16C41F00201D6
:101ED000C164C06C012500F0020005904FF4487009
:101EE000CDE9000500240394694602940E48FEF7EC
:101EF000EDF9280203940090CDE901544FF090448D
:101F000069462046FEF7E2F9FFF78EFFA06940F42C
:101F10008070A06104481830016841F408710160C4
:101F200007B030BD0010024000040048203AD2B291
:101F3000034B02EB420203EB021200F019B800005F
:101F400014360008F0B50E460746002540F23F144F
:101F500007E021463846FFF7E9FF103C6D1CA4B2AC
:101F6000761C3278002A01D0142DF2D3F0BD000087
:101F70002DE9F04791468A460026044600F086F88F
:101F8000DFF84080012700BF00F0C4F85FF00005D3
:101F900039F8160007FA05F10842404601D1408899
:101FA00000E0008800F086F86D1C102DF0D3641C52
:101FB000E4B25146204600F069F8761C182EE3D3AF
:101FC000BDE8F0870000002010B5FFF767FF002094
:101FD00000F014F8084CA080A088A0F50241303928
:101FE00006D000F028FC002000F008F8A08010BD0A
:101FF00000F098FBF7E700000000002070B51D49D5
:102000000A6842F400720A600A6842F480720A6048
:10201000184C103C226842F020022260164A1060E0
:10202000086840F02000086000BF00BF00BF2068C3
:1020300040F020002060206840F480702060FFF7AE
:10204000DDFE4FF09041886A40F48070886200BFE6
:1020500000BF00BF0848001F006885B2886940F4CF
:1020600080708861FFF7E0FE206840F40070206017
:10207000284670BD280400481408004801B5BDF882
:1020800000000149488008BD0000002010B50C4642
:102090000146202000F070F82146BDE810402120C4
:1020A00000F06AB801B5BDF800000149088008BD1C
:1020B0000000002030B5154B1968154A8CB2116824
:1020C00041F400711160124910390D6845F48075B2
:1020D0000D600D6845F020050D601860106840F037
:1020E0002000106000BF00BF00BF086840F0200063
:1020F0000860086840F48070086000BF00BF00BF3F
:10210000086840F4007008601C6030BD1408004886
:1021100028040048164A10B51068164983B20868AA
:1021200040F400700860086840F48070086011484E
:102130001038046844F020040460222414600C6801
:1021400044F020040C6000BF00BF00BF016841F0F4
:1021500020010160016841F48071016000BF00BF8F
:1021600000BF016841F400710160136010BD000000
:10217000140800482804004870B51A4C22681A4B0D
:1021800095B21A6842F400721A601A6842F48072BA
:102190001A60154A103A166846F02006166020604C
:1021A000186840F02000186000BF00BF00BF106832
:1021B00040F020001060106840F4807010602160D2
:1021C000186840F02000186000BF00BF00BF106812
:1021D00040F020001060106840F4807010602560AE
:1021E00070BD0000140800482804004810B50824F9
:1021F000204600F05BF86420FEF756F8204600F019
:1022000055F8641EE4B2042CF2D810BD10B50122BA
:102210004FF6FF710748FEF742F9074C01220421EF
:102220002046FEF73CF920460022BDE8104004217C
:10223000FEF735B900080048000C00484FF48071E3
:10224000401E814010B589B200220848FEF727F9E8
:10225000074C012204212046FEF721F920460022E6
:10226000BDE810400421FEF71AB90000000800483C
:10227000000C00484FF48071401E814010B589B2B7
:1022800001220848FEF70BF9074C012204212046E1
:10229000FEF705F920460022BDE810400421FEF7B4
:1022A000FEB8000000080048000C004870B54FF46C
:1022B0008074401E8440104DA1B22846FEF7EAF813
:1022C000A1B228B12846FEF7E5F8012802D006E0C1
:1022D000012201E0A1B200222846FEF7E0F8074CF7
:1022E000012204212046FEF7DAF82046BDE87040BE
:1022F00000220421FEF7D3B800080048000C004873
:1023000010B505242046FFF7D1FF6420FDF7CCFF70
:102310002046FFF7CBFF641CE4B2092CF2D310BDBA
:102320002DE9F04786B014216846FDF778FF3F4855
:10233000C16C41F00401C164C16C01F0040105915C
:10234000C16C41F02001C164C16C01F02001059114
:10235000C16C41F00101C164C16C01F00101059142
:10236000C16C41F00201C164C16C01F00201059130
:10237000C16C41F00801C164C06C2D4F00F0080031
:102380004FF6FF740590002221463846FEF787F885
:102390004FF09048002230214046FEF780F8DFF8E9
:1023A0009490002204214846FEF779F8DFF888A0CF
:1023B0004FF44876002231465046FEF770F801256A
:1023C000CDE9004500240294694638460394FDF7A0
:1023D0007DFFCDE90054694640460294FDF776FF43
:1023E00030200090CDE90154694640460394FDF742
:1023F0006DFF0720CDE90004694650460294FDF7C1
:1024000065FF04200090CDE90154694648460394D5
:10241000FDF75CFF0096CDE90154694650460394F0
:10242000FDF754FF06B0BDE8F08700000010024041
:1024300000080048000C00480004004830B587B090
:1024400014216846FDF7EBFE1F4800241D49059442
:10245000C0E900147F218160FF21C0E903144FF01F
:1024600080414461C0E906410462FEF7DBFD08B12A
:10247000FDF718FF20208DF8000013258DF801507E
:102480008DF8025001940394012269460E48049489
:10249000FEF776FE08B1FDF705FF06208DF8140063
:1024A00003208DF815008DF816508DF81740012285
:1024B00005A90548FEF710FE002801D0FDF7F2FE41
:1024C00007B030BD002800401C01002010B594B0BA
:1024D0001C210DA8FDF7A3FE34216846FDF79FFEE1
:1024E0001F481E49002401604F21C0E9011440F239
:1024F000F311C0E9031444618461FEF784FF08B15D
:10250000FDF7D0FE1648FFF75BFA08B1FDF7CAFEEB
:102510006020CDE90D040F941094119412940022C0
:102520000DA90F481394FFF7BCF908B1FDF7BAFEE7
:1025300000944FF40050CDE90440019402940394B8
:102540000694694606480C94FEF7B4FE08B1FDF700
:10255000A9FE0348FFF768F914B010BD0048014018
:10256000DC01002010B588B00024174800940194C5
:1025700002940394049405944FF080410694016002
:102580004F21C0E9011440F2E731C0E9031484612E
:10259000FEF739FF08B1FDF785FE4FF4805000903B
:1025A00069460948FEF7C4FF08B1FDF77BFE0494B5
:1025B00004A905480694FEF7D7FE002801D0FDF7D0
:1025C00071FE08B010BD00004401002010B58AB0B3
:1025D0000024079408941C2168460994FDF71FFE07
:1025E0001648154901604F21C0E9011440F2E73156
:1025F000C0E903148461FFF7E3F908B1FDF752FE67
:10260000079407A90D480994FEF7AEFE08B1FDF73F
:1026100049FE6020CDE90004029400226946074883
:102620000494FFF73EF908B1FDF73CFE0348FFF7BD
:10263000FBF80AB010BD000000040040900100202B
:10264000FEE700002DE9F041184C00201849A26A6D
:10265000551E0AE001EB800751F820307E68B34236
:1026600002DA41F820607B60401CA842F2DB104B8C
:102670000020103351F8205043F82050401C03280C
:10268000F8DBE26200221046C4F8282041F820203E
:10269000401C0328FADB002220214FF09040FDF778
:1026A000FEFE01206064BDE8F0810000080000200B
:1026B00084000020F0B41749D1E90B02824226DAE7
:1026C000154D164B4F6B55F8226001241B684FF0D7
:1026D0009040BE4206DD8C654FF4487159634FF05F
:1026E000010206E00ADACC654FF4167159634FF027
:1026F0000002F0BC4FF01001FDF7D1BE05EB8200E7
:102700004068002803D0521C00200A634866F0BCD1
:102710007047000008000020940000209001002075
:10272000FEE7704730B501210020FFF725FD4FF48B
:102730007A70FDF7A9FD00210120FFF71DFD41F290
:1027400090711020FFF718FD4FF41C516020FFF727
:1027500013FD01216120FFF70FFD02214620FFF745
:102760000BFD48F210011320FFF706FD48F2FE01B1
:102770001220FFF701FD4FF4A0610220FFF7FCFCDF
:1027800041F230010320FFF7F7FC40F20334214609
:102790003020FFF7F1FC21463120FFF7EDFC214608
:1027A0003220FFF7E9FCE51E29463320FFF7E4FC61
:1027B00003213420FFF7E0FC21463520FFF7DCFC45
:1027C00014213620FFF7D8FC21463720FFF7D4FC30
:1027D00021463820FFF7D0FC21463920FFF7CCFCFA
:1027E00029463A20FFF7C8FC03213B20FFF7C4FC31
:1027F00021463C20FFF7C0FC4FF4A0513D20FFF7DD
:10280000BBFC4FF400719220FFF7B6FC21469320E9
:10281000FFF7B2FC40F60D019020FFF7ADFC41F24E
:1028200018010320FFF7A8FCBDE8304040F2731107
:102830000720FFF7A1BC10B543F20801E320FFF722
:102840009BFC1221E720FFF797FC41F23121EF209A
:10285000FFF792FC00210120FFF78EFC4FF4E061AE
:102860000220FFF789FC41F230010320FFF784FCCE
:1028700000210420FFF780FC40F207210820FFF729
:102880007BFC00210920FFF777FC00210A20FFF7DD
:1028900073FC00210C20FFF76FFC00210D20FFF7D7
:1028A0006BFC00210F20FFF767FC00211020FFF7D1
:1028B00063FC07211120FFF75FFC00211220FFF7C6
:1028C0005BFC00211320FFF757FCC820FDF7ECFC50
:1028D00041F290611020FFF74FFC40F227211120B8
:1028E000FFF74AFC3220FDF7DFFC1D211220FFF725
:1028F00043FC3220FDF7D8FC4FF400611320FFF7B2
:102900003BFC14212920FFF737FC0B212B20FFF77C
:1029100033FC3220FDF7C8FC00212020FFF72CFCFF
:1029200000212120FFF728FC07213020FFF724FC9D
:1029300040F207713120FFF71FFC06213220FFF71C
:102940001BFC40F204713520FFF716FC41F60471C0
:102950003620FFF711FC04213720FFF70DFC002182
:102960003820FFF709FC40F206713920FFF704FC1C
:1029700040F201713C20FFF7FFFB0F213D20FFF7E4
:10298000FBFB00215020FFF7F7FBEF215120FFF761
:10299000F3FB00215220FFF7EFFB40F23F115320E1
:1029A000FFF7EAFB4FF41C516020FFF7E5FB012124
:1029B0006120FFF7E1FB00216A20FFF7DDFB00212A
:1029C0008020FFF7D9FB00218120FFF7D5FB0021F4
:1029D0008220FFF7D1FB00218320FFF7CDFB0021F0
:1029E0008420FFF7C9FB00218520FFF7C5FB1021DC
:1029F0009020FFF7C1FB00219220FFF7BDFB0321D0
:102A00009320FFF7B9FB4FF488719520FFF7B4FBD3
:102A100000219720FFF7B0FB00219820FFF7ACFBC7
:102A200041F218010320FFF7A7FBBDE8104040F278
:102A300073110720FFF7A0BB010901EB810100F032
:102A40000F0000EB4100C0B270470022014602E0D7
:102A50000A39C9B2521C0A29FAD2100741EA106099
:102A6000704700002DE9F047104C81460025206892
:102A7000400618D4206840F080002060FDF714FD67
:102A800006464FF47A78032708E000BFFDF70CFDF7
:102A9000801B404502D9032589F82570206840062F
:102AA00001D4032DF2D12846BDE8F0870C28004060
:102AB0002DE9F041064613480025016821F0800108
:102AC0000160104C0C3420684FF00307800607D4D7
:102AD0003046FEF7BDFB90B186F8257003250EE069
:102AE000206820F0200020603046FEF7B1FB10B1D6
:102AF00086F825700325206840F0200020602846D5
:102B0000BDE8F0810C28004000B58FB000220C49D0
:102B10000C48FEF759FA00220B490A48FEF730FA32
:102B20000748817800914378027808A101A800F055
:102B3000A3FA01A9C020FFF705FA0FB000BD0000FD
:102B4000080100201C01002070000020202020200F
:102B500020253032643A20253032643A2025303244
:102B6000642000007047FDF7A5BC10B5A4B0382163
:102B70006846FDF754FB14211FA8FDF750FB4421C4
:102B80000EA8FDF74CFB4FF400742046FDF724FD22
:102B900061100A200391009040210122CDE9041226
:102BA0000221CDE908120791CDE90A010C9168468E
:102BB0000D91FDF7DFFF08B172B6FEE70F2000218F
:102BC0001F900320CDE920012291239102211FA80B
:102BD000FDF7ACFE08B172B6FEE74FF400200E9090
:102BE0001E940EA8FDF75EFD002801D072B6FEE728
:102BF00024B010BD0248016841F4700101607047C3
:102C000088ED00E00148FEF710BD000044010020FF
:102C10002DE9F0430268234B234D244E244C4FF002
:102C20008049984207D0484505D0A84203D0B04219
:102C300001D0A04203D122F070074A683A431D4FE9
:102C4000DFF874C0DFF8748098420DD048450BD08F
:102C5000A84209D0B04207D0A04205D0B84203D064
:102C6000604501D0404503D122F44075CA682A432B
:102C70004D6922F080022A4302608A68C2620A68B3
:102C80008262984207D0A04205D0B84203D0604586
:102C900001D0404501D10969016301214161BDE8CD
:102CA000F0830000002C01400004004000080040B8
:102CB0000034014000400140004401400048014010
:102CC00010B501F01F030121046A99408C4304628E
:102CD000016A9A401143016210BD10B5846842EA4E
:102CE000032224F47F440A432243826010BD000083
:102CF0008268034B1A400A4342F007018160704723
:102D00008FFFCFFF2DE9F043026A22F00102026239
:102D1000056A436882691C4C25F0020522400C6854
:102D200022F0030214438A68194E2A43174D194FA3
:102D3000DFF864C0DFF86490A84207D0B04205D045
:102D4000B84203D0604501D0484506D122F00808BA
:102D5000CA6842EA080222F00402A84207D0B04240
:102D600005D0B84203D0604501D0484505D14D6932
:102D700023F440731D438B692B434360846149688E
:102D800041630262BDE8F0838FFFFEFF002C01402B
:102D9000003401400040014000440140004801402F
:102DA000F0B5026A22F010020262056A4268836985
:102DB000194C1B4E23400C6823F4407343EA04244F
:102DC00025F020038D6843EA0513144DA84201D075
:102DD000B04206D1CF6823F0800343EA071323F003
:102DE0004003A8420AD0B04208D00E4DA84205D0F8
:102DF0000D4DA84202D00D4DA84207D14D6922F4D5
:102E0000406242EA85028D6942EA8502426084613D
:102E1000496881630362F0BDFF8FFFFE002C014013
:102E2000003401400040014000440140004801409E
:102E3000F0B5026A22F480720262056A4368C269D0
:102E4000194C1B4E22400C6822F00302144325F457
:102E500000728D6842EA0522144DA84201D0B042AA
:102E600006D1CF6822F4006242EA072222F480628F
:102E7000A8420AD0B04208D00E4DA84205D00E4D4F
:102E8000A84202D00D4DA84207D14D6923F440530A
:102E900043EA05138D6943EA05134360C461496839
:102EA000C1630262F0BD00008FFFFEFF002C0140F5
:102EB000003401400040014000440140004801400E
:102EC000F0B5026A22F480520262056A4268C36960
:102ED000194C1B4E23400C6823F4407343EA04242E
:102EE00025F400538D6843EA0533144DA84201D000
:102EF000B04206D1CF6823F4004343EA073323F4FA
:102F00008043A8420AD0B04208D00E4DA84205D056
:102F10000D4DA84202D00D4DA84207D14D6922F4B3
:102F2000404242EA85128D6942EA85124260C461DC
:102F3000496801640362F0BDFF8FFFFE002C014071
:102F4000003401400040014000440140004801407D
:102F500030B5026A22F480320262046A4268036D6C
:102F6000114D2B400D681D4324F400330C8943EAB6
:102F700004430E4CA0420BD00D4CA04208D00D4C87
:102F8000A04205D00C4CA04202D00C4CA04204D16F
:102F90004C6922F4803242EA0422426005654968A5
:102FA0008164036230BD00008FFFFEFF002C0140F2
:102FB000003401400040014000440140004801400D
:102FC00030B5026A22F480120262046A4268036D1C
:102FD000114D24F400142B400D6843EA05230D899C
:102FE00044EA05540D4DA8420BD00D4DA84208D01F
:102FF0000C4DA84205D00C4DA84202D00B4DA84262
:1030000004D14D6922F4802242EA852242600365A0
:103010004968C164046230BDFF8FFFFE002C01408F
:10302000003401400040014000440140004801409C
:1030300010B5036A046A24F001040462846924F070
:10304000F00444EA021423F00A020A438461026293
:1030500010BD10B5036A23F0100303628369046A8C
:1030600023F4704343EA023224F0A00343EA01113F
:103070008261016210BDFEE70FB4084B10B504A9D0
:1030800002AA039800F02CF8044602A9002000F0E0
:10309000C8F9204610BC5DF814FB0000233400087A
:1030A0000907090E002804DB00F1E02080F8001475
:1030B000704700F00F0000F1E02080F8141D704709
:1030C00002E008C8121F08C1002AFAD170477047F1
:1030D000002001E001C1121F002AFBD1704700004F
:1030E0002DE9FF4F8BB088460546002606E02528CF
:1030F0000BD0DDE90D1290476D1C761C2878002856
:10310000F5D10FB03046BDE8F08F0024A146A246AD
:103110000122AE4900E0044315F8013F203B02FACA
:1031200003F00842F7D128782A2810D06FF02F0238
:103130002878A0F13001092915D809EB890102EBA3
:10314000410144F0020400EB01096D1CF0E758F85E
:10315000041B5FEA010903D544F40054C9F10009D6
:1031600044F002046D1C28782E2817D115F8010FA1
:1031700044F004042A280ED06FF02F022878A0F122
:10318000300109290AD80AEB8A0102EB410100EB60
:10319000010A6D1CF2E758F804AB6D1C28786C2806
:1031A0000FD006DC4C2817D068280DD06A2814D11F
:1031B00004E0742810D07A280FD10DE044F40014F4
:1031C0000AE044F4801401E044F440146978814238
:1031D00002D104F580146D1C6D1C2878692865D017
:1031E00006DC00288DD0632827D0642806D15DE056
:1031F0006E2808D073282AD0752877D0DDE90D1203
:103200009047761CE0E0C4F30250022809D003285E
:103210000DD0D8F8001004280DD00E6008F1040875
:10322000D2E0D8F80010F217C1E90062F6E7D8F84A
:1032300000100E80F2E70E70F0E718F8041B8DF80E
:10324000001000208DF80100EB46012003E058F843
:1032500004BB4FF0FF3061074FF0000701D40AE0D4
:103260007F1C57450DDA8742FADB1BF8071000294F
:10327000F6D106E07F1C8742FCDB1BF80710002913
:10328000F8D1DDE90D23A9EB07008146214600F0C6
:10329000B1F83044C61904E0DDE90D121BF8010B4A
:1032A00090477F1EF8D22146484688E058F8040B24
:1032B000C4F302514FF00A0B032900D100B20429D4
:1032C00000D140B2002802DA40422D2102E021055F
:1032D00005D52B218DF82410012104E006E0E1073B
:1032E00010D02021F6E708AF089113E058F8040B3E
:1032F000C4F302514FF00A0B032900D180B2042914
:1033000000D1C0B20021EEE75946FCF793FF3031FF
:1033100007F8011D0028F7D1ADEB070000F1200BE5
:10332000600702D524F4803401E04FF0010ADA4549
:1033300002DDAAEB0B0000E00020824600EB0B014F
:1033400008980144A9EB01000A90E00306D4DDE9E6
:103350000D2321460A9800F04DF806444FF000096D
:1033600008E009A911F80900DDE90D12904709F1FB
:103370000109761C08998945F3DBE0030CD5DDE9EA
:103380000D2321460A9800F035F8064404E0DDE9F3
:103390000D1230209047761CBAF10001AAF1010A03
:1033A000F5DC05E0DDE90D1217F8010B9047761CFE
:1033B000BBF10001ABF1010BF4DC0A982146DDE919
:1033C0000D2300F005F806446D1C97E6092801005E
:1033D0002DE9F041044600251E461746880404D412
:1033E00005E039462020B0476D1C641EF9D52846FB
:1033F000BDE8F0812DE9F041044600251E469046C7
:10340000C80301D5302700E02027880404D505E053
:1034100041463846B0476D1C641EF9D52846BDE8C4
:10342000F0810A68531C0B601070704710B5114C86
:10343000012211022046FDF732F8012280212046A8
:10344000FDF72DF8012240212046FDF728F8012242
:1034500020212046FDF723F8074C012204212046B5
:10346000FDF71DF820460022BDE810400421FDF7BD
:1034700016B8000000080048000C00480EB5FDF723
:1034800021F8FFF772FBFEF74BFFFEF7D7FFFFF7C0
:103490009DF8FFF767F8FFF719F8FEF795FD002094
:1034A000FEF7DAFC0020FEF7E9FD4FF6FF70FEF7AD
:1034B000F9FD00213D48FEF7CBFA00213C48FEF71C
:1034C000C7FA012220214FF09040FCF7E8FFFEF7F9
:1034D000DBFBFEF79BFE3748FDF7EEFF364D374C22
:1034E000002600BFFFF710FBFEF7FAFBA06B0128D8
:1034F00002D1FFF7A7F8A663D5E90101226B8DE899
:1035000007002D482B682EA14230E26AFFF7B4FD78
:10351000294990204231FEF715FD2748D4E90D23B3
:1035200030A14230FFF7A8FD2349A8204231FEF721
:1035300009FDE06C01281DD11F482CA11030FFF7B8
:103540009BFD1D4930201031FEF7FCFC1A482CA1D0
:103550001030626BFFF790FD174978201031FEF7AD
:10356000F1FC206D022801DA606E78B1E66401207A
:1035700026656066A06D01280CD0E06D01280CD096
:10358000206E01280CD0FFF751FFABE77820FEF743
:1035900075FCEFE7FEF7B4FEA4E7FEF727FEA1E710
:1035A00094F83400FEF766FE9CE7000090010020CE
:1035B000DC010020440100209400002008000020CD
:1035C0006E756D3A2531642F2F2025316420253109
:1035D00064202531642063683A253164202020204E
:1035E00020200000256420256400000020202020E9
:1035F0002020204C4556454C202020200000000073
:103600002020202020202020202564202020202071
:10361000200000000000000000000000000000008A
:10362000000000000000000000000000000000009A
:10363000000000000000000000000000000000008A
:1036400000000000000080018001800180018001F5
:103650008001800180018001800180018001800162
:103660000000000080018001000000000000000058
:103670000000000000000000CC00CC00CC00CC001A
:10368000CC00CC00000000000000000000000000A2
:10369000000000000000000000000000000000002A
:1036A000000000000000000000000000000000001A
:1036B000600C600C600C30063006FE1FFE1F3006EA
:1036C00038071803FE1FFE1F180318038C018C0116
:1036D0008C01000000008000E003F80F9C0E8C1CA1
:1036E0008C188C009800F801E007800E801C8C1864
:1036F0008C189C18B80CF00FE003800080000000CC
:10370000000000000000000000000E181B0C110C4F
:1037100011061106110311039B018E01C038C06C04
:1037200060446044304430441844186C0C38000045
:10373000000000000000E001F0033807180618063A
:103740003003F001F000F8009C310E33061E061C19
:10375000061C063FFC73F021000000000000000082
:1037600000000000000000000C000C000C000C0029
:103770000C000C0000000000000000000000000031
:103780000000000000000000000000000000000039
:10379000000000000000000200038001C000C00023
:1037A0006000600030003000300030003000300039
:1037B0003000300060006000C000C00080010003E5
:1037C00000020000000020006000C00080018001B5
:1037D00000030003000600060006000600060006BF
:1037E000000600060003000380018001C0006000A5
:1037F00020000000000000000000000000000000A9
:10380000C000C000D806F807E00130033807000008
:1038100000000000000000000000000000000000A8
:103820000000000000000000000000000000000098
:1038300080018001800180018001FC3FFC3F80010C
:103840008001800180018001000000000000000074
:103850000000000000000000000000000000000068
:103860000000000000000000000000000000000058
:1038700000000000000080018001000100018000C4
:103880000000000000000000000000000000000038
:10389000000000000000000000000000E007E0075A
:1038A0000000000000000000000000000000000018
:1038B0000000000000000000000000000000000008
:1038C00000000000000000000000000000000000F8
:1038D000000000000000C000C00000000000000068
:1038E000000000000000000C000C000600060006AE
:1038F0000003000300038003800180018001C000F9
:10390000C000C00060006000000000000000000077
:10391000000000000000E003F007380E180C0C183F
:103920000C180C180C180C180C180C180C180C1877
:10393000180C380EF007E003000000000000000043
:1039400000000000000000018001C001F0019801AA
:103950008801800180018001800180018001800157
:103960008001800180018001000000000000000053
:10397000000000000000E003F80F180C0C180C18F1
:1039800000180018000C000600038001C000600051
:1039900030001800FC1FFC1F0000000000000000A9
:1039A000000000000000E001F807180E0C0C0C0CE1
:1039B000000C0006C003C007000C001800180C180B
:1039C0000C18180CF807E0030000000000000000CD
:1039D000000000000000000C000E000F000F800D22
:1039E000C00C600C600C300C180C0C0CFC3FFC3F45
:1039F000000C000C000C000C000000000000000097
:103A0000000000000000F80FF80F180018000C006C
:103A1000EC03FC071C0E001C0018001800180C1802
:103A20001C0C180EF807E003000000000000000066
:103A3000000000000000C007F00F381C1818180024
:103A40000C00CC03EC0F3C0E1C1C0C180C180C18B2
:103A5000181C380EF007E003000000000000000012
:103A6000000000000000FC1FFC1F000C0006000608
:103A7000000380038001C001C000E000600060001E
:103A80007000300030003000000000000000000036
:103A9000000000000000E003F007380E180C180CBE
:103AA000180C3806F007F007180C0C180C180C1836
:103AB0000C18380CF80FE0030000000000000000B4
:103AC000000000000000E003F007380E1C0C0C188A
:103AD0000C180C181C1C381EF81BE0190018000CE0
:103AE000000C1C0EF807F0010000000000000000B0
:103AF00000000000000000000000000000000000C6
:103B000080018001000000000000000000000000B3
:103B100000000000800180010000000000000000A3
:103B20000000000000000000000000000000000095
:103B30008001800100000000000000000000000083
:103B400000000000800180010001000180000000F1
:103B50000000000000000000000000000000000065
:103B6000000000000010001C800FE003F8001800A7
:103B7000F800E003800F001C0010000000000000AF
:103B80000000000000000000000000000000000035
:103B900000000000F81F000000000000F81F0000F7
:103BA0000000000000000000000000000000000015
:103BB0000000000000000000000000000000000005
:103BC0000000000008003800F001C007001F0018C6
:103BD000001FC007F00138000800000000000000CE
:103BE000000000000000E003F80F180C0C180C187F
:103BF0000018000C000600038001C000C000C000D7
:103C000000000000C000C000000000000000000034
:103C10000000000000000000E00718180420C2297E
:103C2000224A114409440944094409221113E20CAF
:103C3000024004201818E007000000000000000007
:103C400000000000000080038003C006C006C0061C
:103C5000600C600C301830183018F83FF83F1C70BA
:103C60000C600C6006C006C00000000000000000F0
:103C7000000000000000FC03FC0F0C0C0C180C18DA
:103C80000C180C0CFC07FC0F0C180C300C300C3012
:103C90000C300C18FC1FFC070000000000000000A6
:103CA000000000000000C007F01F38381C300C7006
:103CB0000660060006000600060006000600066014
:103CC0000C701C30F01FE007000000000000000036
:103CD000000000000000FE03FE0F060E0618061886
:103CE000063006300630063006300630063006183C
:103CF0000618060EFE0FFE03000000000000000084
:103D0000000000000000FC3FFC3F0C000C000C0019
:103D10000C000C00FC1FFC1F0C000C000C000C0025
:103D20000C000C00FC3FFC3F000000000000000005
:103D3000000000000000F83FF83F180018001800CD
:103D400018001800F81FF81F1800180018001800B5
:103D50001800180018001800000000000000000003
:103D6000000000000000E00FF83F3C780E6006E025
:103D700007C00300030003FE03FE03C007C006C024
:103D80000EC03CF0F83FE00F000000000000000013
:103D90000000000000000C300C300C300C300C30F7
:103DA0000C300C30FC3FFC3F0C300C300C300C3035
:103DB0000C300C300C300C30000000000000000013
:103DC000000000000000800180018001800180016E
:103DD00080018001800180018001800180018001DB
:103DE00080018001800180010000000000000000CF
:103DF00000000000000000060006000600060006A5
:103E0000000600060006000600060006000618066A
:103E100018063807F003E001000000000000000071
:103E200000000000000006300618060C0606060317
:103E30008601C60066007600DE008E0106030606D7
:103E4000060C0618063006600000000000000000A6
:103E500000000000000018001800180018001800EA
:103E60001800180018001800180018001800180092
:103E700018001800F81FF81F0000000000000000E4
:103E80000000000000000EE01EF01EF01EF036D80C
:103E900036D836D836D866CC66CC66CCC6C6C6C64A
:103EA000C6C6C6C686C386C3000000000000000068
:103EB0000000000000000C301C303C303C306C3006
:103EC0006C30CC30CC308C310C330C330C360C369F
:103ED0000C3C0C3C0C380C300000000000000000D2
:103EE000000000000000E007F81F1C380E7006609C
:103EF00003C003C003C003C003C003C003C0066007
:103F00000E701C38F81FE0070000000000000000E1
:103F1000000000000000FC0FFC1F0C380C300C30BF
:103F20000C300C300C18FC1FFC070C000C000C00B3
:103F30000C000C000C000C00000000000000000051
:103F4000000000000000E007F81F1C380E7006603B
:103F500003E003C003C003C003C003C007E006635F
:103F60000E3F1C3CF83FE0F700C0000000000000DE
:103F7000000000000000FE0FFE1F0638063006306D
:103F800006300638FE1FFE0706030606060C061856
:103F90000618063006300660000000000000000031
:103FA000000000000000E003F80F1C0C0C180C18B7
:103FB0000C001C00F803E00F001E0038063006302D
:103FC0000E301C1CF80FE00700000000000000008D
:103FD000000000000000FE7FFE7F80018001800164
:103FE00080018001800180018001800180018001C9
:103FF00080018001800180010000000000000000BD
:104000000000000000000C300C300C300C300C3084
:104010000C300C300C300C300C300C300C300C30C0
:104020000C301818F81FE007000000000000000026
:1040300000000000000003600630063006300C1857
:104040000C180C18180C180C380E300630067007B7
:1040500060036003C001C001000000000000000018
:104060000000000000000360C361C361C3616633E8
:10407000663366336633663366336C1B6C1B6C1BAE
:104080002C1A3C1E380E380E000000000000000004
:104090000000000000000FE00C7018303018700CA9
:1040A000600EC00780038003C003E006700C301C64
:1040B00018180C300E6007E000000000000000003F
:1040C00000000000000003C006600C301C383818E7
:1040D000300C6006E007C003800180018001800190
:1040E00080018001800180010000000000000000CC
:1040F000000000000000FC7FFC7F00600030001822
:10410000000C000600038001C000600030001800B1
:104110000C000600FE7FFE7F000000000000000093
:10412000000000000000E003E003600060006000A9
:10413000600060006000600060006000600060007F
:104140006000600060006000600060006000E003EC
:10415000E0030000000030003000600060006000FC
:10416000C000C000C000C0018001800180010003C8
:10417000000300030006000600000000000000002D
:10418000000000000000E003E00300030003000360
:104190000003000300030003000300030003000307
:1041A0000003000300030003000300030003E00317
:1041B000E003000000000000C001C00160036003D4
:1041C000600330063006180C180C000000000000D8
:1041D00000000000000000000000000000000000DF
:1041E00000000000000000000000000000000000CF
:1041F00000000000000000000000000000000000BF
:10420000000000000000FFFFFFFF000000000000B2
:104210000000000000000C000C000C000C000C0062
:104220000C00000000000000000000000000000082
:10423000000000000000000000000000000000007E
:10424000000000000000000000000000000000006E
:10425000F003F8071C0C0C0C000FF00FF80C0C0C02
:104260000C0C1C0FF80FF0180000000000000000FC
:1042700000000000000018001800180018001800C6
:10428000D803F80F380C1818181818181818181818
:104290001818380CF80FD8030000000000000000C8
:1042A000000000000000000000000000000000000E
:1042B000C003F007300E180C180018001800180082
:1042C000180C300EF007C0030000000000000000D2
:1042D0000000000000000018001800180018001866
:1042E000C01BF01F301C18181818181818181818A8
:1042F0001818301CF01FC01B000000000000000058
:1043000000000000000000000000000000000000AD
:10431000C003F00F300C1818F81FF81F1800180011
:104320003818301CF00FC00700000000000000002B
:10433000000000000000800FC00FC000C000C000DF
:10434000F007F007C000C000C000C000C000C000FF
:10435000C000C000C000C00000000000000000005D
:10436000000000000000000000000000000000004D
:10437000E00DF80F180E0C0C0C0C0C0C0C0C0C0CAB
:104380000C0C180EF80FE00D000C0C0C1C06F807B6
:10439000F0010000000018001800180018001800B4
:1043A000D807F80F381C18181818181818181818E3
:1043B000181818181818181800000000000000003D
:1043C000000000000000C000C0000000000000006D
:1043D000C000C000C000C000C000C000C000C000DD
:1043E000C000C000C000C0000000000000000000CD
:1043F000000000000000C000C0000000000000003D
:10440000C000C000C000C000C000C000C000C000AC
:10441000C000C000C000C000C000C000C000F80064
:104420007800000000000C000C000C000C000C00D8
:104430000C0C0C060C038C01CC006C00FC009C01E5
:104440008C030C030C060C0C0000000000000000A4
:10445000000000000000C000C000C000C000C0009C
:10446000C000C000C000C000C000C000C000C0004C
:10447000C000C000C000C00000000000000000003C
:10448000000000000000000000000000000000002C
:104490007C3CFF7EC7E383C183C183C183C183C1E9
:1044A00083C183C183C183C10000000000000000FC
:1044B00000000000000000000000000000000000FC
:1044C0009807F80F381C1818181818181818181802
:1044D000181818181818181800000000000000001C
:1044E00000000000000000000000000000000000CC
:1044F000C003F00F300C18181818181818181818CE
:104500001818300CF00FC00300000000000000007D
:10451000000000000000000000000000000000009B
:10452000D803F80F380C1818181818181818181875
:104530001818380CF80FD8031800180018001800C5
:104540001800000000000000000000000000000053
:10455000C01BF01F301C1818181818181818181835
:104560001818301CF01FC01B001800180018001885
:104570000018000000000000000000000000000023
:10458000B007F00370003000300030003000300021
:10459000300030003000300000000000000000005B
:1045A000000000000000000000000000000000000B
:1045B000E003F003380E180C3800F003C007000CBD
:1045C000180C380EF007E0030000000000000000A7
:1045D00000000000000000008000C000C000C0001B
:1045E000F007F007C000C000C000C000C000C0005D
:1045F000C000C000C00780070000000000000000ED
:1046000000000000000000000000000000000000AA
:10461000181818181818181818181818181818181A
:104620001818381CF01FE0190000000000000000FE
:10463000000000000000000000000000000000007A
:104640000C18180C180C180C3006300630066003D5
:1046500060036003C001C001000000000000000012
:10466000000000000000000000000000000000004A
:10467000C141C141C36163636363636336363636E8
:1046800036361C1C1C1C1C1C000000000000000016
:10469000000000000000000000000000000000001A
:1046A0001C38381C300C6006600360036003600334
:1046B0006006300C381C1C380000000000000000B0
:1046C00000000000000000000000000000000000EA
:1046D0001830301830187018600C600CE00CC006F0
:1046E000C00680038003800380018001C001F000C8
:1046F000700000000000000000000000000000004A
:10470000FC1FFC1F000C000600038001C0006000BD
:1047100030001800FC1FFC1F00000000000000001B
:1047200000000000000000038001C000C000C000C5
:10473000C000C000C00060006000300060004000A9
:10474000C000C000C000C000C000C0008001000365
:1047500000000000000080018001800180018001D4
:104760008001800180018001800180018001800141
:104770008001800180018001800180018001800131
:104780008001000000006000C000C00180018001C5
:104790008001800180010003000300060003000186
:1047A000800180018001800180018001C0006000E3
:1047B00000000000000000000000000000000000F9
:1047C00000000000F010F81F080F000000000000BB
:1047D00000000000000000000000000000000000D9
:1047E00000000000000000000000000001020304BF
:1047F0000607080914480008000000208400000093
:10480000C03000089848000884000020A40500007B
:10481000D03000080000FFFF000000000000000092
:104820000000000000000000000000000000000088
:104830000000000000000000000000000000000078
:104840000000000000000000000000000000000068
:104850000100000000000000000000000000000057
:104860000000000000000000000000000000000048
:104870000000000000000000000000000000000038
:104880000000000000000000100000000100000017
:08489000000000000024F40008
:04000005080001D915
:00000001FF
