:020000040800F2
:1000000080050020ED0100083B2000081B160008B9
:100010003920000885020008092E000800000000B1
:10002000000000000000000000000000F5230008B0
:1000300087020008000000003D200008F7230008A8
:10004000070200080702000807020008070200086C
:10005000070200080702000807020008070200085C
:10006000070200080702000807020008070200084C
:10007000070200080702000807020008070200083C
:10008000070200080000000007020008070200083D
:10009000070200080702000807020008070200081C
:1000A000070200087524000807020008070200087C
:1000B00007020008070200080702000807020008FC
:1000C00007020008070200080702000807020008EC
:1000D00007020008070200080702000807020008DC
:1000E00007020008070200080702000807020008CC
:1000F00007020008070200080702000800000000CD
:1001000000000000070200080000000007020008CD
:1001100007020008000000000702000807020008AC
:10012000070200080702000807020008070200088B
:10013000070200080000000000000000070200089D
:10014000070200080702000800000000000000008D
:10015000000000000000000000000000000000009F
:10016000000000000000000000000000070200087E
:10017000070200080000000000000000000000006E
:10018000000000000702000800000000000000005E
:10019000000000000000000000000000000000005F
:1001A000000000000000000007020008070200082D
:1001B000070200080702000807020008000000000C
:1001C000000000000702000800000000000000001E
:1001D0000702000807020008DFF80CD000F040F822
:1001E00000480047CD3100088005002006488047C0
:1001F00006480047FEE7FEE7FEE7FEE7FEE7FEE70C
:10020000FEE7FEE7FEE7FEE765240008D9010008E7
:10021000D2B201E000F8012B491EFBD27047002248
:10022000F6E710B513460A4604461946FFF7F0FFF5
:10023000204610BD30B50B46014600202022012487
:1002400009E021FA02F59D4205D303FA02F5491BA4
:1002500004FA02F52844151EA2F10102F1DC30BDBA
:10026000064C074D06E0E06840F0010394E8070003
:1002700098471034AC42F6D3FFF7B2FF0C440008A5
:100280002C440008FEE77047002240F6B83306E031
:100290000021491C89B29942FBD3521C92B282427E
:1002A000F6D3704710B5044601F006FAA02001F01D
:1002B000DCF901F037FA204601F0D7F901F032FA03
:1002C00001F0FAF9A12001F0D0F901F02BFA01F0C8
:1002D000A5F9044601F026FA01F009FA204610BDFE
:1002E00070B50D46044601F0E7F9A02001F0BDF914
:1002F00001F018FA204601F0B8F901F013FA284687
:1003000001F0B3F901F00EFABDE8704001F0EFB969
:1003100072B6FEE770B5044600F0FCF80546601CB6
:1003200002D004484068044400F0F4F8401BA042A6
:10033000FAD370BD4C0000202DE9FC4FDFF8A0A1DE
:10034000002301250AF1040B03244FF00F0C0BF1DD
:10035000040EBDE005FA03F632406FD04F68012F5E
:1003600005D0022F03D0112F01D0122F17D1D0F8B2
:1003700008905F0004FA07F829EA08090097D1F805
:100380000C8008FA07F848EA0908C0F808804768AE
:10039000B7430E79C6F300169E403E434660C668DA
:1003A0004FEA430804FA08F7BE4301978F6807FA3B
:1003B00008F73743C7604E68022E01D0122E13D1C2
:1003C000DE0800EB86060096366A5F07FF0E0CFA21
:1003D00007F926EA0906D1F8109009FA07F949EA5F
:1003E0000609009EC6F820900668019FBE430F795B
:1003F00007F0030707FA08F7374307604E68F6006F
:1004000065D5384E376E47F001073766366E23F0F4
:10041000030706F001060096334E3E44B146B66827
:100420009F074FEA17780CFA08F7BE43B0F1904FD8
:1004300005D02E4FB84204D1012717E047E000272E
:1004400014E02B4FB84201D102270FE0294FB842E8
:1004500001D103270AE0284FB84201D1042705E063
:10046000264FB84201D1052700E0062707FA08F712
:100470003743C9F80870DAF800605746D1F80480AD
:1004800096435FEAC83800D516433E60DBF800604B
:100490005F46D1F8048096435FEA883800D516435A
:1004A0003E60DEF800607746D1F8048096435FEA4C
:1004B000C82800D516433E60094F0C373E68D1F876
:1004C000048096435FEA882800D516433E605B1C93
:1004D0000A6832FA03F67FF43DAFBDE8FC8F0000F6
:1004E00000040140001002400000014000040048E8
:1004F00000080048000C00480010004800140048A4
:100500000069084000D0012070470AB1816170473E
:100510008162704701488068704700004C000020ED
:100520000248816842681144816070474C00002095
:1005300010B50024032000F073F8002000F008F844
:1005400008B1012401E000F025F8204610BD0000AC
:1005500070B50E4E05460024706898B14FF47A715C
:10056000B1FBF0F00A490968B1FBF0F000F0FAFBCA
:1005700040B9102D06D200222946501E00F030F856
:10058000356000E00124204670BD00004C000020D2
:10059000580000200A4882B0016E41F00101016656
:1005A000016E01F001010091816D41F08051816582
:1005B000806D00F08050009002B000F0A1B8000003
:1005C00000100240002809DB00F01F0201219140C9
:1005D0004009800000F1E020C0F8001170470000E1
:1005E000F0B40E4B1B680C46C3F30223C3F107059E
:1005F000042D00D90425191D072901D2002300E08C
:10060000DB1E012606FA05F1491E214099409E4055
:10061000761E16403143F0BC02F00CBC0CED00E03D
:10062000064900F0070208684FF6FF03184040EA49
:100630000220034A10430860704700000CED00E000
:100640000000FA052B492C4B0A6832214A432B49FA
:1006500040B1B0F5007F086829D020F4C06040F4B4
:1006600080602CE00868C0F34120022804D051F8D3
:10067000800F20F4807022E0D1F8800020F4807098
:10068000C1F88000086820F4C06040F40070086081
:10069000B2FBF3F0401C00E0401E4A69520501D550
:1006A0000028F9D1486940050AD503207047C0F3F6
:1006B0004120022806D051F8800F40F48070086075
:1006C00000207047D1F8800040F48070C1F88000AD
:1006D000086820F4C06040F400700860B2FBF3F0DA
:1006E000401C00E0401E4A695205DBD50028F9D1C4
:1006F000D8E700005800002040420F000070004082
:100700000248816841F48041816070470070004078
:100710002DE9F0470E4605004FF0000725D0DFF821
:10072000AC81D8F8000000F00F00B0420CD2D8F82D
:10073000001021F00F013143C8F80010D8F8000074
:1007400000F00F00B04210D12968614CC80741F297
:10075000883A5AD06868DFF87C91032808D00228CC
:1007600020682DD0400500282CDB0120BDE8F08753
:1007700020688001F9D5E06800F00302E068C0F36A
:100780000310401C032A19D0534A00BFB2FBF0F0FB
:10079000E268C2F306225043E268C2F34162521C8F
:1007A0005200B0FBF2F0484517D9A06810F0F00FE6
:1007B0000CD0880711D5A86840B10EE0474AE5E79C
:1007C0008003D0E700F092F8484506D9A06820F0F1
:1007D000F00040F08000A0608027A068696820F0E9
:1007E00003000843A060FFF795FE814606E000BFC6
:1007F000FFF790FEA0EB090151453AD8A06869685F
:1008000000F00C00B0EB810FF2D12868810714D5FD
:10081000400703D5A06840F4E060A0602878000796
:1008200005D5A06820F4605040F4E060A060A068A6
:10083000A96820F0F000084304E0802F03D1A068ED
:1008400020F0F000A060D8F80010404601F00F0141
:10085000B14216D9016821F00F0131430160FFF761
:1008600059FE074607E000BFFFF754FEC11B514584
:1008700001D903207AE7D8F8000000F00F00B04259
:10088000F2D12878400705D5A068E96820F4E06037
:100890000843A0602878000706D5A068296920F4DD
:1008A000605040EAC100A06000F020F8A1680C4A46
:1008B000C1F30311515C01F01F01C84009490860F0
:1008C00009480068BDE8F047FFF742BE002002403B
:1008D0000010024000B4C4040024F40000127A00A6
:1008E000FC430008580000204C000020184910B5B7
:1008F0008868C0F381021748012A0BD08A68431028
:10090000C2F38102022A06D08A68C2F38102032A56
:1009100003D0002010BD184610BDCA6802F00304C1
:10092000CA68C2F30312521C032C02D0B0FBF2F0CF
:1009300001E0B3FBF2F0CA68C968C2F30622504373
:10094000C1F34161491C4900B0FBF1F010BD00004A
:10095000001002400024F4002DE9F84304007AD08E
:100960002078FA4DC00747D0A868E96800F00C006D
:1009700001F003010C2802D0082817D001E0032958
:1009800014D06068B0F5803F17D0B0F5A02F28686C
:1009900017D020F480302860286820F48020286058
:1009A0006068E0B1FFF7B6FD064614E028688003F2
:1009B00022D560680028D2D01EE0286840F480303C
:1009C000EDE740F480202860F7E700BFFFF7A2FDC5
:1009D000801B642870D828688003F7D50CE0FFF7E7
:1009E00099FD064605E000BFFFF794FD801B6428D3
:1009F000F0D828688003F7D4207880074CD5A86801
:100A0000E96800F00C0001F003010C2802D0042872
:100A10000DD001E002290AD0E068002828682BD018
:100A200040F480702860FFF775FD064619E02868DD
:100A3000400502D5E068002891D06868217C20F04C
:100A4000FE4040EA01606860C1480068FFF780FD31
:100A5000002800D120E076E1FFF75CFD801B022832
:100A6000B8D828684005F7D56868217C20F0FE409A
:100A700040EA016068600FE020F480702860FFF7B2
:100A800049FD064605E000BFFFF744FD801B022834
:100A9000A0D828684005F7D42078000729D56069D8
:100AA0000028D5F8940013D040F00100C5F8940058
:100AB000FFF730FD064606E090E000BFFFF72AFD95
:100AC000801B022886D8D5F894008007F6D510E060
:100AD00020F00100C5F89400FFF71CFD064604E075
:100AE000FFF718FD801B022878D8D5F894008007FE
:100AF000F6D42078400761D5A86D0026C00008D440
:100B0000A86D40F08050A865A86D012600F08050C7
:100B1000009090480168C90511D40168804641F4ED
:100B200080710160FFF7F6FC074604E0FFF7F2FC76
:100B3000C01B022852D8D8F80000C005F6D5A0681E
:100B4000012815D00528D5F8900016D020F0010016
:100B5000C5F89000D5F8900020F00400C5F890008A
:100B6000A06841F28838B8B1FFF7D4FC07460EE020
:100B7000D5F8900040F00100F0E740F00400C5F81F
:100B80009000F5E7FFF7C6FCC11B414526D8D5F814
:100B900090008007F6D50CE0FFF7BCFC074604E0A8
:100BA000FFF7B8FCC11B414518D8D5F89000800765
:100BB000F6D41EB1A86D20F08050A865207880067C
:100BC00029D5A0690028D5F8980013D040F001007D
:100BD000C5F89800FFF79EFC064606E077E000BFE8
:100BE000FFF798FC801B022877D8D5F8980080077B
:100BF000F6D510E020F00100C5F89800FFF78AFC58
:100C0000064604E0FFF786FC801B022865D8D5F86D
:100C100098008007F6D4E069F0B3A968C1F38101B8
:100C2000032961D00228286820F0807028600BD04A
:100C3000E86820F00300E860E86847490840E86099
:100C4000FFF768FC04464BE0FFF764FC064604E04F
:100C5000FFF760FC801B02283FD828688001F7D48A
:100C6000F4E908016FF00F0202EB01110843218A39
:100C70005204490802EB4151A26841EA02210843AB
:100C8000217D4FF07E42490802EB41610843217B00
:100C900040EAC160E96800E062E0304A1140084380
:100CA000E860286840F080702860E86840F0807054
:100CB000E860FFF72FFC044605E000BFFFF72AFCC1
:100CC000001B022809D828688001F7D548E004E015
:100CD000FFF720FC001B022802D90320BDE8F8839F
:100CE00028688001F4D43BE00128F7D0E868226A44
:100CF00000F00301914226D1616A00F0F00209017F
:100D0000103991421FD1A26A00F4FE41B1EB022FCB
:100D100019D194F82C2000F07841B1EBC26F12D1B8
:100D2000218E00F4C00249084905A1F50011914245
:100D300009D194F8341000F0C06049084906A1F1C7
:100D4000007181420CD00120C8E700000010024071
:100D50004C00002000700040FFFFEEFE0C809F0161
:100D60000020BBE710B5401EB0F1807F01D3012009
:100D700010BD4FF0E02460610F21601702F05AF8B7
:100D80000020A06107202061002010BD704770473F
:100D90007047704770477047F0B590F83C20012AC3
:100DA0003AD0012580F83C50022280F83D200368AB
:100DB0005A689C68194E1A4FB34201D0BB4204D105
:100DC00022F4700C4A6842EA0C02DFF858C002EACA
:100DD0000C02D1F800C04CEA020CC3F804C002684F
:100DE000B2420DD0B2F1804F0AD00F4B9A4207D0D9
:100DF0000E4B9A4204D0BA4202D00D4B9A4204D113
:100E0000896824F080031943916080F83D500021E7
:100E100080F83C100846F0BD0220F0BD002C0140D7
:100E2000003401408FFFFFFD000400400008004037
:100E300000400140704710B5040003D094F83D0015
:100E400010B107E0012010BD002084F83C002046CE
:100E500000F022F8022084F83D00211D206801F0F6
:100E60000BFC012084F8480084F83E0084F83F0021
:100E700084F8400084F8410084F8420084F843007C
:100E800084F8440084F8450084F8460084F847005C
:100E900084F83D00002010BD08B500680B49884269
:100EA00012D10B48016E41F400610166006E002210
:100EB00000F40060009011461920FFF791FBBDE897
:100EC00008401920FFF77EBB08BD0000002C014040
:100ED0000010024090F83D10012901D00120704718
:100EE000022180F83D100168CA6842F00102CA6020
:100EF0000068104988420ED0B0F1804F0BD00E49E7
:100F0000884208D00D49884205D00D49884202D058
:100F10000C49884207D181680B4A1140062906D046
:100F2000B1F5803F03D0016841F00101016000206C
:100F300070470000002C0140000400400008004001
:100F400000340140004001400700010070B5044634
:100F500090F83C00012814D0012584F83C50022070
:100F600084F83D0022689068344B184020F47F409C
:100F700090600868702827D010DC10F00F0F03D0A5
:100F80004AE04FF0020070BD4FEA2012072A43D218
:100F9000DFE802F05050505048313900284BC21A57
:100FA000984247D009DCB0F5805F35D0B0F5005FDE
:100FB00015D0B0F1101F2FD13CE0102A3AD0202AD2
:100FC00038D0502A28D135E0CB68D1E901212068FA
:100FD00001F0B7FB2068816841F0770109E0CB6838
:100FE000D1E90121206801F0ACFB2068816841F45F
:100FF0008041816010E0CA684968206801F04CFDBA
:101000005021206806E0CA684968206801F055FD53
:101010006021206801F0A0FB84F83D50002084F896
:101020003C0070BDCA684968206801F035FD402168
:101030002068EFE7226801461046EBE788FFCEFF05
:1010400020001000704770B50446006801694FF039
:101050000005C943890715D4C168C943890711D45C
:10106000E91E016101202077206880698007204601
:1010700002D0FFF7E7FF04E000F00CF9204600F093
:10108000DFF9257720680169C943490717D4C1688A
:10109000C943490713D46FF004010161022020778E
:1010A0002068806910F4407F204602D0FFF7CAFF15
:1010B00004E000F0EFF8204600F0C2F92577206840
:1010C0000169C943090716D4C168C943090712D485
:1010D0006FF008010161042020772068C069800753
:1010E000204602D0FFF7AEFF04E000F0D3F8204620
:1010F00000F0A6F9257720680169C943C90617D40D
:10110000C168C943C90613D46FF0100101610820FA
:1011100020772068C06910F4407F204602D0FFF796
:1011200091FF04E000F0B6F8204600F089F9257739
:1011300020680169C943C90708D1C168C943C90703
:1011400004D1891E0161204600F0FAF92068016986
:10115000C943090609D4C168C943090605D46FF01B
:10116000800101612046FFF712FE20680169C94332
:10117000C90509D4C168C943090605D46FF4807153
:1011800001612046FFF702FE20680169C943490654
:1011900009D4C168C943490605D46FF04001016113
:1011A000204600F039FA20680169C943890609D44C
:1011B000C168C943890605D46FF02001016120464A
:1011C000FFF7E6FD20680169C943C90209D4C16877
:1011D000C943C90205D46FF4801101612046FFF7AD
:1011E000D9FD20680169C943890209D4C168C9438E
:1011F000890205D46FF4001101612046FFF7C9FD93
:1012000020680169C943490209D4C168C943490238
:1012100005D46FF4800101612046FFF7BCFD206812
:101220000169C94309020BD4C168C943090207D443
:101230006FF4000101612046BDE87040FFF7FABD80
:1012400070BD000010B586B0044614216846FEF754
:10125000E6FF0E492068884215D10D48C16C41F067
:101260000101C164C06C002100F001000590402024
:1012700000900220CDE90101CDE9031069464FF04D
:101280009040FFF759F806B010BD00000004004080
:1012900000100240704770B5044690F83C000D46BF
:1012A00001280BD0012084F83C000C2A45D007DC33
:1012B0005AB1042A1BD0082A78D12CE0022070BD34
:1012C000102A4ED0142A71D15DE0206801F04EFA48
:1012D0002068816941F0080181612068816921F0FD
:1012E00004018161206881692A69114311E0206845
:1012F00001F08AFA2068816941F400618161206807
:10130000816921F480618161206881692A6941EAEB
:10131000022181614AE0206801F0BEFA2068C169BB
:1013200041F00801C1612068C16921F00401C16177
:101330002068C1692A69114311E0206801F0F4FABC
:101340002068C16941F40061C1612068C16921F46C
:101350008061C1612068C1692A6941EA0221C161D5
:1013600024E0206801F028FB2068016D41F00801AD
:1013700001652068016D21F0040101652068016D9F
:101380002A69114311E0206801F04EFB2068016DCD
:1013900041F4006101652068016D21F480610165FF
:1013A0002068016D2A6941EA02210165002084F864
:1013B0003C0070BD10B5040003D094F83D0010B19E
:1013C00007E0012010BD002084F83C00204600F01A
:1013D00023F8022084F83D00211D206801F04CF91B
:1013E000012084F8480084F83E0084F83F0084F827
:1013F000400084F8410084F8420084F8430084F8F7
:10140000440084F8450084F8460084F8470084F8D6
:101410003D00002010BD000008B500680649884264
:1014200008D10648816D41F002018165806D00F0B0
:101430000200009008BD00000004004000100240BF
:101440007047000030B50446022269B1042912D069
:10145000082917D00C291CD0102921D094F843005A
:10146000012824D0012030BD94F83E000128F9D194
:1014700084F83E201DE094F83F000128F2D184F862
:101480003F2016E094F840000128EBD184F840207A
:101490000FE094F841000128E4D184F8412008E0ED
:1014A00094F842000128DDD184F8422001E084F85C
:1014B00043200122206801F037F9194B20681949AF
:1014C000194A984209D0884207D0904205D0174D5A
:1014D000A84202D0164DA84203D1456C45F4004500
:1014E0004564206898420CD0B0F1804F09D0114B70
:1014F000984206D0104B984203D0884201D09042C7
:1015000007D181680D4A1140062906D0B1F5803F08
:1015100003D0016841F001010160002030BD0000EE
:10152000002C0140003401400040014000440140D3
:10153000004801400004004000080040070001008E
:101540002DE9F041324C206A401C2062606A401C48
:101550006062E06A401CE06200F0D6F9E06A4FF495
:101560007A760025B04202D101F0C8FBE562206A1C
:101570004FF4C877B84202D1256201F0E9FA606AF7
:10158000B84229D12348C068B04224DDE06820B1C8
:1015900001280FD0022810D01DE01D4821783030DE
:1015A000084410F8011C491CC9B200F8011C0C29A0
:1015B0000FD810E01648363001E015483C3021784D
:1015C000084410F8011C491CC9B200F8011C3C2950
:1015D00001D900F8015C6562A069012816D1A06AF2
:1015E000401CA062B0F5FA7F10D1A06810B10128AC
:1015F00007D00AE040F2FF1000F004FC0120A060D8
:1016000003E0FF2000F0FEFBA560A562BDE8F081CD
:1016100008000020700000207047FEE770B5082425
:10162000002500F0AFFE13E06806050E002000F074
:1016300091FE142001F0C4FD142001F0C1FD012031
:1016400000F088FE142001F0BBFD00F08FFE054382
:10165000641EE4B2E8D2002000F07CFE142001F009
:10166000AFFD00F0B1FE284670BD70B504460825F8
:1016700016E000F06FFE142001F0A2FD04F08000DF
:1016800000F096FE142001F09BFD6006040E14206D
:1016900001F096FD012000F05DFE142001F090FDA8
:1016A0006D1EEDB24FF00000E3D200F053FEBDE836
:1016B0007040142001F084BD10B5012000F078FEC8
:1016C000142001F07DFD012000F044FE142001F003
:1016D00077FD002000F06CFE142001F071FD002069
:1016E00000F038FEBDE81040142001F069BD10B5CF
:1016F000002000F02FFE142001F062FD002000F019
:1017000057FE142001F05CFD012000F023FE1420A0
:1017100001F056FD012000F04BFEBDE81040142002
:1017200001F04EBD10B5052400F02CFE142001F090
:1017300047FD012000F00EFE142001F041FD05E000
:10174000641EA4B2142001F03BFD6CB100F00EFE4B
:101750000028F5D100F038FE002000F0FBFD142039
:1017600001F02EFD002010BD00F02EFEFFF7BFFFA0
:10177000012010BD2DE9F05FDFF880A10221504665
:10178000FEF7BEFE5E4F01265E4C4FF42F7900251A
:1017900007F1140838BB7820FEF7BCFD0221504643
:1017A000FEF7AEFEF8B9BE6002215046FEF7A8FE75
:1017B0000028F9D0BD60D8F80810494508DDC4E913
:1017C0000456E561217861604FF0FF31E16008E087
:1017D0002661E6616560E168491CE160022900DD7F
:1017E000E560C8F8085004215046FEF789FED0BBDA
:1017F0007820FEF78FFD04215046FEF781FE90BB56
:10180000FE6004215046FEF77BFE0028F9D0FD6003
:10181000D8F80C00484524DCE06820B101280FD03E
:10182000022810D01DE0374822783030104410F8DC
:10183000012C521CD2B200F8012C0C2A0FD810E057
:101840003048363001E02F483C302278104410F800
:10185000012C521CD2B200F8012C3C2A01D900F80C
:10186000015CC8F80C504FF0904B01215846FEF730
:1018700047FEF0B97820FEF74DFD01215846FEF7EE
:101880003FFEB0B93E6101215846FEF739FE0028FF
:10189000F9D03D61D8F81000484502DDA561E56149
:1018A00005E0A069401CA061022800DDA661C8F81F
:1018B000105001215046FEF723FE00281CD178204D
:1018C000FEF728FD01215046FEF71AFE002813D12D
:1018D0007E6001215046FEF713FE0028F9D07D609E
:1018E000D8F80410494505DC6168491C6160052988
:1018F00000DD6660C8F80450BDE8F09F00040048B1
:101900005C000020080000200C4901F114004A6826
:1019100012B14268521C42608A6812B18268521C3D
:101920008260CA6812B1C268521CC260096900298B
:1019300002D00169491C0161704700005C00002071
:1019400000B585B014216846FEF769FC4FF6FF70BC
:10195000009000200321CDE9020101906946024870
:10196000FEF7EAFC05B000BD0008004800B585B0F0
:1019700014216846FEF753FC4FF6FF7000900120DB
:101980000190032003900020029069460248FEF770
:10199000D3FC05B000BD00000008004870B500246D
:1019A00006462146204600F003F900F041F94FF4C5
:1019B0009635304600F010F9641CAC42F9D370BD86
:1019C00030B587B014216846FEF729FC1E48C16C6B
:1019D00041F00401C164C16C01F004010591C16CC6
:1019E00041F00101C164C16C01F001010591C16CBC
:1019F00041F00201C164C06C012500F002000590B5
:101A00004FF44870CDE90005002403946946029420
:101A10000E48FEF791FC280203940090CDE9015492
:101A20004FF0904469462046FEF786FCFFF79EFF84
:101A3000A06940F48070A06104481830016841F446
:101A40000871016007B030BD00100240000400487A
:101A5000203AD2B2034B02EB420203EB021200F037
:101A600019B800002C320008F0B50E4607460025D4
:101A700040F23F1407E021463846FFF7E9FF103CEB
:101A80006D1CA4B2761C3278002A01D0142DF2D33A
:101A9000F0BD00002DE9F04791468A460026044635
:101AA00000F086F8DFF84080012700BF00F0C0F8A2
:101AB0005FF0000539F8160007FA05F108424046C4
:101AC00001D1408800E0008800F086F86D1C102DE0
:101AD000F0D3641CE4B25146204600F069F8761C4D
:101AE000182EE3D3BDE8F0870000002010B5FFF703
:101AF00067FF002000F014F8084CA080A088A0F533
:101B00000241303906D000F023FB002000F008F835
:101B1000A08010BD00F093FAF7E70000000000205D
:101B200070B51D490A6842F400720A600A6842F4FE
:101B300080720A60184C103C226842F02002226039
:101B4000164A1060086840F02000086000BF00BF1F
:101B500000BF206840F020002060206840F48070C2
:101B60002060FFF7EDFE4FF09041886A40F48070EE
:101B7000886200BF00BF00BF0848001F006885B230
:101B8000886940F480708861FFF7F0FE206840F4B7
:101B900000702060284670BD2804004814080048E2
:101BA00001B5BDF800000149488008BD00000020D3
:101BB00010B50C460146202000F068F82146BDE82B
:101BC0001040212000F062B801B5BDF800000149C5
:101BD000088008BD00000020134A116841F400711C
:101BE0001160114910390B6843F480730B600B6866
:101BF00043F020030B600D4B1860106840F020008C
:101C0000106000BF00BF00BF086840F020000860FF
:101C1000086840F48070086000BF00BF00BF08681B
:101C200040F4007008607047280400481408004819
:101C30001449086840F400700860086840F4807037
:101C4000086010481038026842F0200202600E4B13
:101C500022221A600A6842F020020A6000BF00BF18
:101C600000BF016841F020010160016841F480710A
:101C7000016000BF00BF00BF016841F40071016056
:101C8000704700002804004814080048184B10B59D
:101C90001A6842F400721A601A6842F480721A607C
:101CA000134A103A146844F020041460114C206068
:101CB000186840F02000186000BF00BF00BF106827
:101CC00040F020001060106840F4807010602160C7
:101CD000186840F02000186000BF00BF00BF106807
:101CE00040F020001060106840F48070106010BD5B
:101CF000280400481408004838B52D4C60680128B5
:101D000024D002282ED0032838D0042842D0052819
:101D10004CD1207004F13C000079009004F13600B1
:101D20000379801F027923A1284801F06FF8274921
:101D30006020FFF799FE26A12448626801F066F84A
:101D4000BDE8384021493020FFF78EBE01202070C9
:101D500017483C3000780090154836300378801FD3
:101D60000278E0E70220207011483C304078009073
:101D70000F4836304378801F4278D4E70320207024
:101D80000B483C3080780090094836308378801FBB
:101D90008278C8E70420207005483C30C078009065
:101DA00003483630C378801FC278BCE738BD0000D6
:101DB0000800002020202020253032643A202530E1
:101DC00032643A2025303264202000008400002054
:101DD00020204E6F20256400084910B54FF47F4045
:101DE0000860074C012204212046FEF78EFB2046A6
:101DF0000022BDE810400421FEF787BB1808004808
:101E0000000C00480A4910B50860094980F47F4079
:101E100010390860074C012204212046FEF775FBAB
:101E200020460022BDE810400421FEF76EBB0000F2
:101E300028080048000C00482DE9F04F87B0142115
:101E40006846FEF7ECF94048C16C41F00401C164FA
:101E5000C16C01F004010591C16C41F02001C16425
:101E6000C16C01F020010591C16C41F00101C16418
:101E7000C16C01F001010591C16C41F00201C16426
:101E8000C16C01F002010591C16C41F00801C1640F
:101E9000C06CDFF8B88000F008004FF6FF740590C2
:101EA000002221464046FEF730FB4FF480764FF08B
:101EB0009049002231464846FEF727FBDFF890A004
:101EC000002204215046FEF720FBDFF888B04FF4D3
:101ED0007877002239465846FEF717FB0125CDE9F1
:101EE000004500240294694640460394FEF724FA14
:101EF000CDE90054694648460294FEF71DFA0720D2
:101F0000CDE90004694658460294FEF715FA00969A
:101F1000CDE90154694648460394FEF70DFA0420C2
:101F20000090CDE90154694650460394FEF704FA47
:101F30000097CDE90154694658460394FEF7FCF931
:101F400007B0BDE8F08F0000001002400008004814
:101F5000000C00480004004810B588B00024184860
:101F600005940694039404940094019413490294F4
:101F700001604F21C0E9011440F2E731C0E90314C8
:101F800044618461FEF757FF08B1FEF7C1F94FF4D1
:101F90008050039003A90A48FEF7D8FF08B1FEF766
:101FA000B7F900940194694605480294FEF7F4FEDF
:101FB000002801D0FEF7ACF908B010BD002C01409C
:101FC000E800002010B58AB00024079408941C2172
:101FD00068460994FEF723F91648154901604F2118
:101FE000C0E9011440F2E731C0E903148461FFF74E
:101FF000E1F908B1FEF78CF9079407A90D48099497
:10200000FEF7CAFE08B1FEF783F96020CDE90004AF
:1020100002940022694607480494FFF73CF908B18E
:10202000FEF776F90348FFF70DF90AB010BD00007E
:102030000004004034010020FEE7FEE7704730B5A1
:1020400001210020FFF722FE4FF47A70FEF71CF901
:1020500000210120FFF71AFE41F290711020FFF7D6
:1020600015FE4FF41C516020FFF710FE0121612086
:10207000FFF70CFE02214620FFF708FE48F2100190
:102080001320FFF703FE48F2FE011220FFF7FEFDCA
:102090004FF4A0610220FFF7F9FD41F23001032067
:1020A000FFF7F4FD40F2033421463020FFF7EEFD48
:1020B00021463120FFF7EAFD21463220FFF7E6FDF9
:1020C000E51E29463320FFF7E1FD03213420FFF709
:1020D000DDFD21463520FFF7D9FD14213620FFF71D
:1020E000D5FD21463720FFF7D1FD21463820FFF7E7
:1020F000CDFD21463920FFF7C9FD29463A20FFF7DB
:10210000C5FD03213B20FFF7C1FD21463C20FFF721
:10211000BDFD4FF4A0513D20FFF7B8FD4FF4007115
:102120009220FFF7B3FD21469320FFF7AFFD40F665
:102130000D019020FFF7AAFD41F218010320FFF7DF
:10214000A5FDBDE8304040F273110720FFF79EBDAA
:1021500010B543F20801E320FFF798FD1221E720B4
:10216000FFF794FD41F23121EF20FFF78FFD0021B1
:102170000120FFF78BFD4FF4E0610220FFF786FDA1
:1021800041F230010320FFF781FD00210420FFF719
:102190007DFD40F207210820FFF778FD002109208E
:1021A000FFF774FD00210A20FFF770FD00210C20CD
:1021B000FFF76CFD00210D20FFF768FD00210F20C7
:1021C000FFF764FD00211020FFF760FD07211120BB
:1021D000FFF75CFD00211220FFF758FD00211320BE
:1021E000FFF754FDC820FEF795F841F290611020EA
:1021F000FFF74CFD40F227211120FFF747FD322069
:10220000FEF788F81D211220FFF740FD3220FEF76F
:1022100081F84FF400611320FFF738FD14212920C5
:10222000FFF734FD0B212B20FFF730FD3220FEF7A6
:1022300071F800212020FFF729FD00212120FFF760
:1022400025FD07213020FFF721FD40F207713120E5
:10225000FFF71CFD06213220FFF718FD40F2047144
:102260003520FFF713FD41F604713620FFF70EFD10
:1022700004213720FFF70AFD00213820FFF706FD73
:1022800040F206713920FFF701FD40F201713C2058
:10229000FFF7FCFC0F213D20FFF7F8FC0021502048
:1022A000FFF7F4FCEF215120FFF7F0FC0021522052
:1022B000FFF7ECFC40F23F115320FFF7E7FC4FF42F
:1022C0001C516020FFF7E2FC01216120FFF7DEFCDA
:1022D00000216A20FFF7DAFC00218020FFF7D6FCFE
:1022E00000218120FFF7D2FC00218220FFF7CEFCE5
:1022F00000218320FFF7CAFC00218420FFF7C6FCE1
:1023000000218520FFF7C2FC10219020FFF7BEFCC2
:1023100000219220FFF7BAFC03219320FFF7B6FCBF
:102320004FF488719520FFF7B1FC00219720FFF74B
:10233000ADFC00219820FFF7A9FC41F21801032011
:10234000FFF7A4FCBDE8104040F273110720FFF72F
:102350009DBC000008B1044801E00348103001684A
:1023600041F04001016070471804004810B5802119
:102370000348FEF7C5F8012800D0002010BD00007A
:102380000004004800B585B014216846FDF747FFFA
:1023900080200090002001900120029002200390F4
:1023A00069460248FDF7C8FF05B000BD00040048BB
:1023B00008B1044801E003481030016841F0800191
:1023C000016070471804004800B585B014216846C4
:1023D000FDF725FF80200090112001900020029041
:1023E0000220039069460248FDF7A6FF05B000BD34
:1023F000000400487047FEF793B800B593B0382149
:102400006846FDF70CFF14210EA8FDF708FF4FF4F6
:102410000070FEF717F90220C101039140210491D9
:102420000121CDE9080100900A21CDE90A100790A9
:102430000C900D906846FEF78FFA08B172B6FEE771
:102440000F200E9003200F900020109011901290FA
:1024500002210EA8FEF75CF9002801D072B6FEE753
:1024600013B000BD0248016841F47001016070477B
:1024700088ED00E00148FEF7E6BD0000E80000201E
:102480002DE9F0470F20FDF70DFFFF284FF0050065
:102490007ED0FDF73FFF774C4FF00108002084F815
:1024A0000080FDF7FFFE217804F13005294401F892
:1024B000010C0520FDF72EFF207800EB4000801E68
:1024C000C0B2FDF7EFFE2178AE1D314401F8010CDA
:1024D0000520FDF71FFF207800EB4000401EC0B232
:1024E000FDF7E0FE2178B71D394401F8010C052005
:1024F000FDF710FF022020704FF003094846FDF75A
:10250000D1FE2178294401F8010C0520FDF702FFD6
:10251000207800EB4000801EC0B2FDF7C3FE21789A
:10252000314401F8010C0520FDF7F4FE207800EBA2
:102530004000401EC0B2FDF7B5FE2178394401F8D5
:10254000010C0520FDF7E6FE84F800900620FDF75B
:10255000A9FE2178294401F8010C0520FDF7DAFED7
:10256000207800EB4000801EC0B2FDF79BFE217872
:10257000314401F8010C0520FDF7CCFE207800EB7A
:102580004000401EC0B2FDF78DFE2178394400E0C6
:1025900058E001F8010C0520FDF7BCFE0420207076
:1025A0000920FDF77FFE2178294401F8010C052060
:1025B000FDF7B0FE207800EB4000801EC0B2FDF7B2
:1025C00071FE2178314401F8010C0520FDF7A2FECF
:1025D000207800EB4000401EC0B2FDF763FE21787A
:1025E000394401F8010C0520FDF794FE0520207008
:1025F0000C20FDF757FE2178294401F8010C052035
:10260000FDF788FE207800EB4000801EC0B2FDF789
:1026100049FE2178314401F8010C0520FDF77AFECE
:10262000207800EB4000401EC0B2FDF73BFE217851
:10263000394401F8010C0520FDF76CFE84F8008098
:10264000BDE8F087FDF766FE002400212046FDF777
:1026500047FE0520FDF75EFE641CE4B20F2CF4D3A8
:1026600000210F20FDF73CFEBDE8F0470520FDF7F7
:1026700051BE0000080000202DE9F0430268234B02
:10268000234D244E244C4FF08049984207D04845B2
:1026900005D0A84203D0B04201D0A04203D122F01D
:1026A00070074A683A431D4FDFF874C0DFF8748042
:1026B00098420DD048450BD0A84209D0B04207D06F
:1026C000A04205D0B84203D0604501D0404503D1B7
:1026D00022F44075CA682A434D6922F080022A43D9
:1026E00002608A68C2620A688262984207D0A04289
:1026F00005D0B84203D0604501D0404501D10969F9
:10270000016301214161BDE8F0830000002C01401C
:102710000004004000080040003401400040014037
:10272000004401400048014010B501F01F030121A1
:10273000046A99408C430462016A9A401143016221
:1027400010BD10B5846842EA032224F47F440A4392
:102750002243826010BD00008268034B1A400A4386
:1027600042F00701816070478FFFCFFF2DE9F043F2
:10277000026A22F001020262056A436882691C4C07
:1027800025F0020522400C6822F0030214438A68F7
:10279000194E2A43174D194FDFF864C0DFF86490D3
:1027A000A84207D0B04205D0B84203D0604501D05E
:1027B000484506D122F00808CA6842EA080222F019
:1027C0000402A84207D0B04205D0B84203D0604509
:1027D00001D0484505D14D6923F440731D438B69F1
:1027E0002B4343608461496841630262BDE8F08322
:1027F0008FFFFEFF002C01400034014000400140EB
:102800000044014000480140F0B5026A22F0100285
:102810000262056A42688369194C1B4E23400C68AA
:1028200023F4407343EA042425F020038D6843EA2F
:102830000513144DA84201D0B04206D1CF6823F051
:10284000800343EA071323F04003A8420AD0B042B2
:1028500008D00E4DA84205D00D4DA84202D00D4D16
:10286000A84207D14D6922F4406242EA85028D698F
:1028700042EA850242608461496881630362F0BD77
:10288000FF8FFFFE002C014000340140004001405A
:102890000044014000480140F0B5026A22F4807211
:1028A0000262056A4368C269194C1B4E22400C68DB
:1028B00022F00302144325F400728D6842EA0522D7
:1028C000144DA84201D0B04206D1CF6822F4006274
:1028D00042EA072222F48062A8420AD0B04208D01D
:1028E0000E4DA84205D00E4DA84202D00D4DA84273
:1028F00007D14D6923F4405343EA05138D6943EA38
:1029000005134360C4614968C1630262F0BD000001
:102910008FFFFEFF002C01400034014000400140C9
:102920000044014000480140F0B5026A22F48052A0
:102930000262056A4268C369194C1B4E23400C6849
:1029400023F4407343EA042425F400538D6843EADA
:102950000533144DA84201D0B04206D1CF6823F40C
:10296000004343EA073323F48043A8420AD0B0422D
:1029700008D00E4DA84205D00D4DA84202D00D4DF5
:10298000A84207D14D6922F4404242EA85128D697E
:1029900042EA85124260C461496801640362F0BD85
:1029A000FF8FFFFE002C0140003401400040014039
:1029B000004401400048014030B5026A22F48032F0
:1029C0000262046A4268036D114D2B400D681D437D
:1029D00024F400330C8943EA04430E4CA0420BD08C
:1029E0000D4CA04208D00D4CA04205D00C4CA0428A
:1029F00002D00C4CA04204D14C6922F4803242EA4D
:102A000004224260056549688164036230BD0000AC
:102A10008FFFFEFF002C01400034014000400140C8
:102A2000004401400048014030B5026A22F480129F
:102A30000262046A4268036D114D24F400142B40B5
:102A40000D6843EA05230D8944EA05540D4DA8425B
:102A50000BD00D4DA84208D00C4DA84205D00C4D0E
:102A6000A84202D00B4DA84204D14D6922F4802225
:102A700042EA8522426003654968C164046230BD50
:102A8000FF8FFFFE002C0140003401400040014058
:102A9000004401400048014010B5036A046A24F074
:102AA00001040462846924F0F00444EA021423F06F
:102AB0000A020A438461026210BD10B5036A23F062
:102AC000100303628369046A23F4704343EA023209
:102AD00024F0A00343EA01118261016210BD0000ED
:102AE00010B51A4C606901282ED1207804F130010C
:102AF0000144401E00EB400011F8011CC0B2FDF77C
:102B0000EFFB0520FDF706FC207804F136010144B7
:102B100000EB4000801E11F8011CC0B2FDF7E0FB85
:102B20000520FDF7F7FB207804F13C01014400EBA0
:102B30004000401E11F8011CC0B2FDF7D1FB05207A
:102B4000FDF7E8FB0020606110BD000008000020D8
:102B50002DE9F84361480024016901297ED100F183
:102B60003C01C3688A1F0078951F01440244284431
:102B70005B4D4FF6E0774FF6FF784FF4A0769BB3AE
:102B8000012B70D0022B6CD111F8011C009112F8AE
:102B9000013C10F8012C53A1284600F037F960429F
:102BA00006EB001081B22A5D6020FEF751FF641C25
:102BB0000C2CF4DB3846FEF7F3FF0020FFF704F897
:102BC0000C24604206EB001081B22A5D6020FEF703
:102BD0003FFF641C0E2CF4DB0020FEF7E1FF4046B3
:102BE000BDE8F843FEF7F0BF11F8011C009112F8A0
:102BF000013C10F8012C3BA1394800F007F9604274
:102C000006EB001081B22A5D6020FEF721FF641CF4
:102C1000042CF4DB3846FEF7C3FF0020FEF7D4FF98
:102C20000424604206EB001081B22A5D6020FEF7AA
:102C30000FFF641C062CF4DB0020FEF7B1FF4046BA
:102C4000FEF7C2FF0624604206EB001081B22A5D47
:102C50006020FEF7FDFE641C0E2C01E001E002E0A6
:102C6000F1DBBDE8F88311F8011C009112F8013C7A
:102C700010F8012C1BA11A4800F0C8F8604206EBBE
:102C8000001081B22A5D6020FEF7E2FE641C082C71
:102C9000F4DB3846FEF784FF0020FEF795FF08249A
:102CA000604206EB001081B22A5D6020FEF7D0FE84
:102CB000641C0A2CF4DB0020FEF772FF4046FEF78E
:102CC00083FF0A24604206EB001081B22A5D602077
:102CD000FEF7BEFE641C0E2CF4DBC2E708000020E9
:102CE000B600002020202020253032643A202530F4
:102CF00032643A20253032640000000070B51C4C6C
:102D00001C4DA069012807D0022804D10320E061EE
:102D100029680020486370BD0220E0610021154849
:102D2000FEF790FB29684FF44870486310482378F9
:102D30003C30C21812F8010C18B1401E02F8010C08
:102D400070BD0B483630C1183C2411F8010C28B175
:102D500002F8014C401E01F8010C70BD04483030EF
:102D6000C21812F8010C0028F7D001F8014CE4E772
:102D700008000020340100200D4810B5C06978B16A
:102D800001280FD002280FD003280FD109A10E4827
:102D900000F03CF8BDE810400B49C020FEF764BECF
:102DA0000AA1F4E70EA1F2E712A1F0E710BD0000BE
:102DB000080000202020202020205061757365200D
:102DC000202020200000000084000020202020205F
:102DD00020205374616E646279202020202000003E
:102DE00020202020202053657474696E67202020E5
:102DF0002020000020202020202052756E6E696E59
:102E00006720202020200000FEE700000FB4084BC0
:102E100010B504A902AA039800F02CF8044602A9F0
:102E2000002000F0C8F9204610BC5DF814FB00003B
:102E3000B73100080907090E002804DB00F1E02083
:102E400080F80014704700F00F0000F1E02080F8D7
:102E5000141D704702E008C8121F08C1002AFAD1E9
:102E600070477047002001E001C1121F002AFBD10A
:102E7000704700002DE9FF4F8BB0884605460026BD
:102E800006E025280BD0DDE90D1290476D1C761C5D
:102E900028780028F5D10FB03046BDE8F08F002427
:102EA000A146A2460122AE4900E0044315F8013FC5
:102EB000203B02FA03F00842F7D128782A2810D0E4
:102EC0006FF02F022878A0F13001092915D809EBFD
:102ED000890102EB410144F0020400EB01096D1C81
:102EE000F0E758F8041B5FEA010903D544F40054E5
:102EF000C9F1000944F002046D1C28782E2817D16E
:102F000015F8010F44F004042A280ED06FF02F02A8
:102F10002878A0F1300109290AD80AEB8A0102EBCE
:102F2000410100EB010A6D1CF2E758F804AB6D1C7F
:102F300028786C280FD006DC4C2817D068280DD0D4
:102F40006A2814D104E0742810D07A280FD10DE03B
:102F500044F400140AE044F4801401E044F4401402
:102F60006978814202D104F580146D1C6D1C2878AB
:102F7000692865D006DC00288DD0632827D0642816
:102F800006D15DE06E2808D073282AD0752877D046
:102F9000DDE90D129047761CE0E0C4F302500228F0
:102FA00009D003280DD0D8F8001004280DD00E60E9
:102FB00008F10408D2E0D8F80010F217C1E9006265
:102FC000F6E7D8F800100E80F2E70E70F0E718F878
:102FD000041B8DF8001000208DF80100EB46012045
:102FE00003E058F804BB4FF0FF3061074FF00007D3
:102FF00001D40AE07F1C57450DDA8742FADB1BF843
:1030000007100029F6D106E07F1C8742FCDB1BF885
:1030100007100029F8D1DDE90D23A9EB070081464F
:10302000214600F0B1F83044C61904E0DDE90D1284
:103030001BF8010B90477F1EF8D22146484688E0D6
:1030400058F8040BC4F302514FF00A0B032900D1C6
:1030500000B2042900D140B2002802DA40422D21FA
:1030600002E0210505D52B218DF82410012104E073
:1030700006E0E10710D02021F6E708AF089113E041
:1030800058F8040BC4F302514FF00A0B032900D186
:1030900080B2042900D1C0B20021EEE75946FDF705
:1030A000C9F8303107F8011D0028F7D1ADEB070052
:1030B00000F1200B600702D524F4803401E04FF0CA
:1030C000010ADA4502DDAAEB0B0000E0002082468F
:1030D00000EB0B0108980144A9EB01000A90E00302
:1030E00006D4DDE90D2321460A9800F04DF8064488
:1030F0004FF0000908E009A911F80900DDE90D12F7
:10310000904709F10109761C08998945F3DBE00332
:103110000CD5DDE90D2321460A9800F035F8064468
:1031200004E0DDE90D1230209047761CBAF1000171
:10313000AAF1010AF5DC05E0DDE90D1217F8010B33
:103140009047761CBBF10001ABF1010BF4DC0A984F
:103150002146DDE90D2300F005F806446D1C97E6D5
:10316000092801002DE9F041044600251E461746B6
:10317000880404D405E039462020B0476D1C641E45
:10318000F9D52846BDE8F0812DE9F0410446002537
:103190001E469046C80301D5302700E0202788044A
:1031A00004D505E041463846B0476D1C641EF9D58C
:1031B0002846BDE8F0810A68531C0B601070704708
:1031C000002100E0491C8142FCD37047FDF7B0F9B3
:1031D000FFF713F9FEF730FEFEF7F4FEFEF7BCFE34
:1031E000FEF784FC0020FEF7D9FB0020FEF7D8FC98
:1031F0004FF6FF70FEF7E8FCFEF7EEFDFFF740F933
:103200000848FDF767FE084CFFF76AFCFEF7B2FAC4
:10321000FEF772FDFFF7B0FDA0690128F4D0FEF7BC
:10322000DBFDF1E7E80000200800002000000000BE
:10323000000000000000000000000000000000008E
:10324000000000000000000000000000000000007E
:1032500000000000000000000000000000008001ED
:103260008001800180018001800180018001800156
:103270008001800180018001000000008001800148
:10328000000000000000000000000000000000003E
:10329000CC00CC00CC00CC00CC00CC000000000066
:1032A000000000000000000000000000000000001E
:1032B000000000000000000000000000000000000E
:1032C0000000000000000000600C600C600C300684
:1032D0003006FE1FFE1F300638071803FE1FFE1FB4
:1032E000180318038C018C018C0100000000800081
:1032F000E003F80F9C0E8C1C8C188C009800F801D1
:10330000E007800E801C8C188C189C18B80CF00FED
:10331000E0038000800000000000000000000000CA
:1033200000000E181B0C110C1106110611031103DD
:103330009B018E01C038C06C60446044304430440E
:103340001844186C0C380000000000000000E00178
:10335000F0033807180618063003F001F000F800F3
:103360009C310E33061E061C061C063FFC73F02122
:10337000000000000000000000000000000000004D
:103380000C000C000C000C000C000C0000000000F5
:10339000000000000000000000000000000000002D
:1033A000000000000000000000000000000000021B
:1033B00000038001C000C0006000600030003000E9
:1033C000300030003000300030003000600060001D
:1033D000C000C000800100030002000000002000C7
:1033E0006000C000800180010003000300060006A9
:1033F00000060006000600060006000600030003A3
:1034000080018001C000600020000000000000007A
:103410000000000000000000C000C000D806F8074F
:10342000E001300338070000000000000000000049
:10343000000000000000000000000000000000008C
:103440000000000000000000800180018001800178
:103450008001FC3FFC3F80018001800180018001F0
:10346000000000000000000000000000000000005C
:10347000000000000000000000000000000000004C
:1034800000000000000000000000000000008001BB
:103490008001000100018000000000000000000029
:1034A000000000000000000000000000000000001C
:1034B00000000000E007E00700000000000000003E
:1034C00000000000000000000000000000000000FC
:1034D00000000000000000000000000000000000EC
:1034E0000000000000000000000000000000C0001C
:1034F000C000000000000000000000000000000C00
:10350000000C000600060006000300030003800311
:10351000800180018001C000C000C0006000600028
:103520000000000000000000000000000000E003B8
:10353000F007380E180C0C180C180C180C180C1876
:103540000C180C180C180C18180C380EF007E003A7
:10355000000000000000000000000000000000016A
:103560008001C001F0019801880180018001800183
:103570008001800180018001800180018001800143
:103580000000000000000000000000000000E00358
:10359000F80F180C0C180C1800180018000C000676
:1035A00000038001C000600030001800FC1FFC1FF9
:1035B0000000000000000000000000000000E0012A
:1035C000F807180E0C0C0C0C000C0006C003C0070A
:1035D000000C001800180C180C18180CF807E00361
:1035E0000000000000000000000000000000000CCF
:1035F000000E000F000F800DC00C600C600C300C32
:10360000180C0C0CFC3FFC3F000C000C000C000CD8
:103610000000000000000000000000000000F80FA3
:10362000F80F180018000C00EC03FC071C0E001C1F
:103630000018001800180C181C0C180EF807E003EE
:103640000000000000000000000000000000C007B3
:10365000F00F381C181818000C00CC03EC0F3C0EAF
:103660001C1C0C180C180C18181C380EF007E00362
:103670000000000000000000000000000000FC1F2F
:10368000FC1F000C00060006000380038001C0013F
:10369000C000E000600060007000300030003000CA
:1036A0000000000000000000000000000000E00337
:1036B000F007380E180C180C180C3806F007F00735
:1036C000180C0C180C180C180C18380CF80FE00318
:1036D0000000000000000000000000000000E00307
:1036E000F007380E1C0C0C180C180C181C1C381E7B
:1036F000F81BE0190018000C000C1C0EF807F00174
:1037000000000000000000000000000000000000B9
:1037100000000000000000008001800100000000A7
:103720000000000000000000000000008001800197
:103730000000000000000000000000000000000089
:103740000000000000000000800180010000000077
:103750000000000000000000000000008001800167
:1037600000010001800000000000000000000000D7
:103770000000000000000000000000000010001C1D
:10378000800FE003F8001800F800E003800F001C31
:103790000010000000000000000000000000000019
:1037A000000000000000000000000000F81F000002
:1037B00000000000F81F00000000000000000000F2
:1037C00000000000000000000000000000000000F9
:1037D00000000000000000000000000008003800A9
:1037E000F001C007001F0018001FC007F0013800DB
:1037F0000800000000000000000000000000E003DE
:10380000F80F180C0C180C180018000C0006000318
:103810008001C000C000C00000000000C000C00067
:103820000000000000000000000000000000000098
:10383000E00718180420C229224A11440944094407
:10384000094409221113E20C024004201818E00771
:1038500000000000000000000000000000008003E5
:103860008003C006C006C006600C600C301830181B
:103870003018F83FF83F1C700C600C6006C006C0A2
:103880000000000000000000000000000000FC0339
:10389000FC0F0C0C0C180C180C180C0CFC07FC0F73
:1038A0000C180C300C300C300C300C18FC1FFC07C2
:1038B0000000000000000000000000000000C00741
:1038C000F01F38381C300C70066006000600060039
:1038D00006000600060006600C701C30F01FE007B2
:1038E0000000000000000000000000000000FE03D7
:1038F000FE0F060E06180618063006300630063093
:1039000006300630063006180618060EFE0FFE03B7
:103910000000000000000000000000000000FC3F6C
:10392000FC3F0C000C000C000C000C00FC1FFC1FEA
:103930000C000C000C000C000C000C00FC3FFC3FC9
:103940000000000000000000000000000000F83F40
:10395000F83F18001800180018001800F81FF81F8A
:103960001800180018001800180018001800180097
:103970000000000000000000000000000000E00F58
:10398000F83F3C780E6006E007C00300030003FE2A
:1039900003FE03C007C006C00EC03CF0F83FE00FB6
:1039A00000000000000000000000000000000C30DB
:1039B0000C300C300C300C300C300C30FC3FFC3F29
:1039C0000C300C300C300C300C300C300C300C3017
:1039D0000000000000000000000000000000800166
:1039E00080018001800180018001800180018001CF
:1039F00080018001800180018001800180018001BF
:103A000000000000000000000000000000000006B0
:103A10000006000600060006000600060006000676
:103A2000000600060006180618063807F003E00135
:103A30000000000000000000000000000000063050
:103A40000618060C060606038601C6006600760008
:103A5000DE008E0106030606060C06180630066018
:103A6000000000000000000000000000000018003E
:103A70001800180018001800180018001800180086
:103A8000180018001800180018001800F81FF81F78
:103A900000000000000000000000000000000EE038
:103AA0001EF01EF01EF036D836D836D836D866CC82
:103AB00066CC66CCC6C6C6C6C6C6C6C686C386C3E0
:103AC00000000000000000000000000000000C30BA
:103AD0001C303C303C306C306C30CC30CC308C31D5
:103AE0000C330C330C360C360C3C0C3C0C380C30C4
:103AF0000000000000000000000000000000E007DF
:103B0000F81F1C380E70066003C003C003C003C05A
:103B100003C003C003C006600E701C38F81FE00726
:103B20000000000000000000000000000000FC0F8A
:103B3000FC1F0C380C300C300C300C300C18FC1FF7
:103B4000FC070C000C000C000C000C000C000C001E
:103B50000000000000000000000000000000E0077E
:103B6000F81F1C380E70066003E003C003C003C0DA
:103B700003C003C007E006630E3F1C3CF83FE0F7BC
:103B800000C0000000000000000000000000FE0F68
:103B9000FE1F06380630063006300638FE1FFE07C8
:103BA00006030606060C06180618063006300660E0
:103BB0000000000000000000000000000000E00322
:103BC000F80F1C0C0C180C180C001C00F803E00F6C
:103BD000001E0038063006300E301C1CF80FE007BF
:103BE0000000000000000000000000000000FE7F58
:103BF000FE7F8001800180018001800180018001C1
:103C000080018001800180018001800180018001AC
:103C100000000000000000000000000000000C3068
:103C20000C300C300C300C300C300C300C300C30B4
:103C30000C300C300C300C300C301818F81FE0072A
:103C40000000000000000000000000000000036011
:103C50000630063006300C180C180C18180C180C0E
:103C6000380E30063006700760036003C001C001E3
:103C700000000000000000000000000000000360E1
:103C8000C361C361C36166336633663366336633CB
:103C900066336C1B6C1B6C1B2C1A3C1E380E380ECA
:103CA00000000000000000000000000000000FE025
:103CB0000C7018303018700C600EC0078003800341
:103CC000C003E006700C301C18180C300E6007E0C2
:103CD000000000000000000000000000000003C021
:103CE00006600C301C383818300C6006E007C00342
:103CF00080018001800180018001800180018001BC
:103D00000000000000000000000000000000FC7F38
:103D1000FC7F006000300018000C000600038001EA
:103D2000C0006000300018000C000600FE7FFE7F1F
:103D30000000000000000000000000000000E003A0
:103D4000E0036000600060006000600060006000F0
:103D50006000600060006000600060006000600063
:103D6000600060006000E003E0030000000030003D
:103D70003000600060006000C000C000C000C001F2
:103D8000800180018001000300030003000600069B
:103D90000000000000000000000000000000E00340
:103DA000E00300030003000300030003000300031B
:103DB00000030003000300030003000300030003EB
:103DC000000300030003E003E00300000000000024
:103DD000C001C00160036003600330063006180CA8
:103DE000180C0000000000000000000000000000AF
:103DF00000000000000000000000000000000000C3
:103E000000000000000000000000000000000000B2
:103E10000000000000000000000000000000FFFFA4
:103E2000FFFF0000000000000000000000000C0088
:103E30000C000C000C000C000C0000000000000046
:103E40000000000000000000000000000000000072
:103E50000000000000000000000000000000000062
:103E60000000000000000000F003F8071C0C0C0C20
:103E7000000FF00FF80C0C0C0C0C1C0FF80FF018C6
:103E8000000000000000000000000000000018001A
:103E90001800180018001800D803F80F380C18186C
:103EA00018181818181818181818380CF80FD803FC
:103EB0000000000000000000000000000000000002
:103EC0000000000000000000C003F007300E180CD6
:103ED0001800180018001800180C300EF007C00366
:103EE00000000000000000000000000000000018BA
:103EF0000018001800180018C01BF01F301C1818FC
:103F000018181818181818181818301CF01FC01B8B
:103F100000000000000000000000000000000000A1
:103F20000000000000000000C003F00F300C181863
:103F3000F81FF81F180018003818301CF00FC007C1
:103F40000000000000000000000000000000800FE2
:103F5000C00FC000C000C000F007F007C000C000E4
:103F6000C000C000C000C000C000C000C000C00051
:103F70000000000000000000000000000000000041
:103F80000000000000000000E00DF80F180E0C0CFF
:103F90000C0C0C0C0C0C0C0C0C0C180EF80FE00D8F
:103FA000000C0C0C1C06F807F001000000001800C3
:103FB0001800180018001800D807F80F381C181837
:103FC0001818181818181818181818181818181871
:103FD0000000000000000000000000000000C00021
:103FE000C000000000000000C000C000C000C00011
:103FF000C000C000C000C000C000C000C000C000C1
:104000000000000000000000000000000000C000F0
:10401000C000000000000000C000C000C000C000E0
:10402000C000C000C000C000C000C000C000C00090
:10403000C000C000C000F8007800000000000C00C4
:104040000C000C000C000C000C0C0C060C038C017A
:10405000CC006C00FC009C018C030C030C060C0CC7
:104060000000000000000000000000000000C00090
:10407000C000C000C000C000C000C000C000C00040
:10408000C000C000C000C000C000C000C000C00030
:104090000000000000000000000000000000000020
:1040A00000000000000000007C3CFF7EC7E383C1ED
:1040B00083C183C183C183C183C183C183C183C1E0
:1040C00000000000000000000000000000000000F0
:1040D00000000000000000009807F80F381C1818B6
:1040E0001818181818181818181818181818181850
:1040F00000000000000000000000000000000000C0
:104100000000000000000000C003F00F300C181881
:1041100018181818181818181818300CF00FC003B1
:10412000000000000000000000000000000000008F
:104130000000000000000000D803F80F380C181829
:1041400018181818181818181818380CF80FD80359
:1041500018001800180018001800000000000000E7
:104160000000000000000000C01BF01F301C1818E9
:1041700018181818181818181818301CF01FC01B19
:1041800000180018001800180018000000000000B7
:104190000000000000000000B007F00370003000D5
:1041A000300030003000300030003000300030008F
:1041B00000000000000000000000000000000000FF
:1041C0000000000000000000E003F003380E180CAF
:1041D0003800F003C007000C180C380EF007E0039D
:1041E00000000000000000000000000000000000CF
:1041F0008000C000C000C000F007F007C000C00091
:10420000C000C000C000C000C000C000C0078007E0
:10421000000000000000000000000000000000009E
:1042200000000000000000001818181818181818CE
:1042300018181818181818181818381CF01FE01932
:10424000000000000000000000000000000000006E
:1042500000000000000000000C18180C180C180CCE
:10426000300630063006600360036003C001C00101
:10427000000000000000000000000000000000003E
:104280000000000000000000C141C141C361636340
:10429000636363633636363636361C1C1C1C1C1CA6
:1042A000000000000000000000000000000000000E
:1042B00000000000000000001C38381C300C6006B4
:1042C00060036003600360036006300C381C1C3818
:1042D00000000000000000000000000000000000DE
:1042E000000000000000000018303018301870186E
:1042F000600C600CE00CC006C006800380038003E5
:1043000080018001C001F00070000000000000008A
:104310000000000000000000FC1FFC1F000C000655
:1043200000038001C000600030001800FC1FFC1F6B
:10433000000000000000000000000000000000037A
:104340008001C000C000C000C000C000C00060000C
:104350006000300060004000C000C000C000C0002D
:10436000C000C000800100030000000000008001C8
:104370008001800180018001800180018001800135
:104380008001800180018001800180018001800125
:104390008001800180018001800100000000600038
:1043A000C000C00180018001800180018001000304
:1043B00000030006000300018001800180018001EC
:1043C00080018001C00060000000000000000000CB
:1043D000000000000000000000000000F010F81FC6
:1043E000080F0000000000000000000000000000B6
:1043F00000000000000000000000000000000000BD
:104400000000000001020304060708092C4400080C
:10441000000000205C000000542E000888440008C2
:104420005C00002024050000642E00080000FFFF4F
:10443000000000000100000001000000000000007A
:10444000FFFFFFFF00000000000000000000000070
:10445000000000000000000000000000000000005C
:10446000000000000000000000000000000000004C
:10447000000000000000000010000000010000002B
:08448000000000000024F4001C
:04000005080001D915
:00000001FF
